:040000005BEF00F0C2
:0C000800FACF86F0FBCF87F0FCEF08F089
:10001800D8CF23F0E8CF24F0E0CF25F0FACF26F0B0
:10002800FBCF27F0E9CF28F0EACF29F0E1CF2AF07B
:10003800E2CF2BF0D9CF2CF0DACF2DF0F3CF2EF082
:10004800F4CF2FF0F6CF30F0F7CF31F0F8CF32F011
:10005800F5CF33F09EA003D09E90CEEC0DF09EAA73
:1000680003D09E9A1FEC0CF033C0F5FF32C0F8FFA6
:1000780031C0F7FF30C0F6FF2FC0F4FF2EC0F3FFEA
:100088002DC0DAFF2CC0D9FF2BC0E2FF2AC0E1FF48
:1000980029C0EAFF28C0E9FF27C0FBFF26C0FAFFF6
:1000A80025C0E0FF24C0E8FF23C0D8FF10004DEFB3
:1000B8000CF0030E2FEC08F000017A6F000E00011F
:1000C8000001846F00017A5100017A6F000E00016F
:1000D80000017F6F00017A5100017A6F000E000164
:1000E8000001836F00017A5100017A6F000E000150
:1000F8000001826F00017A5100017A6F000E000141
:100108000001806F00017A51C6AC29D0C69C00015D
:1001180020EE18F00001B251D9260001B351DA22BD
:10012800050EDF6E00017A6F010E00010001806F7D
:1001380000017A51000120EE1AF00001B251D926CF
:100148000001B351DA22DF2A000120EE19F0000184
:10015800B251D9260001B351DA22040EDF6EC7A0CE
:100168000AD0C9CF81F000017A6F010E00010001A9
:10017800846F00017A51000100018067CED1B7D1A8
:10018800C7A6CBD100010001845196EC08F000010C
:1001980020EE18F00001B251D9260001B351DA223D
:1001A800080EDF62BAD100017A6F000E000100016B
:1001B800846F00017A5100017A6F010E000100017D
:1001C800826F87D1C7A830D0000120EE17F0000158
:1001D800B251D9260001B351DA22DF2A0001000109
:1001E8008451D8B479D1C7BA09D000017A6F010E09
:1001F80000010001836F00017A516ED1000120EEE9
:100208001AF00001B251D9260001B351DA22DF2ACF
:10021800000120EE19F00001B251D9260001B351B6
:10022800DA22060EDF6E58D1000100018451D8B4DD
:1002380074D1000120EE17F00001B251D926000157
:10024800B351DA22DF2AC7BA19D0C7B40BD00001DC
:1002580020EE18F00001B251D9260001B351DA227C
:10026800070E76D0000120EE18F00001B251D92611
:100278000001B351DA22080EDF6E1DD1000120EE15
:100288001AF00001B251D9260001B351DA22DF2A4F
:10029800000120EE18F00001B251D9260001B35137
:1002A800DA22050EDF6E000120EE19F00001B251CE
:1002B800D9260001B351DA22060E4AD0000120EEF9
:1002C80032F00001B251D9260001B351DA22DF50D1
:1002D80000017A6F000120EE31F00001B251D926F9
:1002E8000001B351DA22DF5000017A5DD8B0F4D0B2
:1002F800000120EE32F00001B251D9260001B351BD
:10030800DA22DF5000017A6F00017A51010D1B0ECD
:10031800F326000EF422F35000010001B225D96E35
:10032800F45000010001B321DA6EDF50C96E0001FC
:1003380020EE32F00001B251D9260001B351DA2281
:10034800DF2A00017A6F010E000100017F6FC1D022
:10035800DF6EE3D0C7A862D0000120EE17F00001DD
:10036800B251D9260001B351DA22DF2A0001000177
:100378008451D8B44AD0C7AA27D0000120EE16F07D
:100388000001B251D9260001B351DA22DF50000131
:100398007A6F00017A51010DF35000010001B22576
:1003A800D96EF45000010001B321DA6E000181C05A
:1003B800DFFF000120EE16F00001B251D92600013E
:1003C800B351DA22DF2A21D0000120EE1AF0000111
:1003D800B251D9260001B351DA22DF2A000120EEFA
:1003E80019F00001B251D9260001B351DA22060EE4
:1003F800DF6E000120EE18F00001B251D92600018D
:10040800B351DA22050EDF6E67D000017A6F010E54
:1004180000010001836F00017A515ED000010001E4
:100428008451D8B47AD0000120EE17F00001B251FF
:10043800D9260001B351DA22DF2AC7AA27D0000142
:1004480020EE16F00001B251D9260001B351DA228C
:10045800DF5000017A6F00017A51010DF35000015D
:100468000001B225D96EF45000010001B321DA6E03
:10047800000181C0DFFF000120EE16F00001B2513B
:10048800D9260001B351DA22DF2A47D0C7A4B6D64D
:10049800000120EE18F00001B251D9260001B35135
:1004A800DA22080EDF6E00017A6F010E00010001EA
:1004B800836F00017A5100017A6F010E000100017B
:1004C800826F00017A5100017A6F000E000100016D
:1004D800846F00017A5121D0000120EE18F000014C
:1004E800B251D9260001B351DA22050E31D70001E5
:1004F80020EE18F00001B251D9260001B351DA22DA
:10050800DF50050AD8B43CD6030AD8B45BD6010A32
:10051800D8B420D70F0AD8B4D1D600010001846717
:1005280005D0000100017F51D8B402D0C6A8C68802
:10053800000120EE16F00001B251D9260001B35196
:10054800DA22140EDF6424D000010001836720D072
:10055800000120EE18F00001B251D9260001B35174
:10056800DA22050EDF6E000120EE1AF00001B2510A
:10057800D9260001B351DA22DF2A000120EE19F052
:100588000001B251D9260001B351DA22070EDF6EFD
:10059800000100018351D8B448D0000120EE17F0C3
:1005A8000001B251D9260001B351DA22000110EE40
:1005B80016F00001B251E1260001B351E222E750E2
:1005C80000017A6F00017A51010DF350000100011A
:1005D800B225E16EF45000010001B321E26EDFCFD5
:1005E800E7FF00017A6F280E00010001766F000115
:1005F8007A5100010001B3C078F000010001B2C0D7
:1006080077F0000120EE16F00001B251D926000162
:10061800B351DA22DF5000017B6F00017B297DECAA
:100628000DF0000120EE16F04BD0000120EE1AF07C
:100638000001B251D9260001B351DA22DF50D8B4F3
:1006480047D0000120EE1AF00001B251D92600016E
:10065800B351DA22DF50000100017C6F000120EE67
:1006680019F00001B251D9260001B351DA22DF5046
:10067800000100017D6F000120EE17F00001B2516A
:10068800D9260001B351DA22DF50000100017E6F44
:1006980000017A6F290E00010001766F00017A517E
:1006A8000001000E00010001786F00017C0E0001BE
:1006B8000001776F030E7DEC0DF0000120EE1AF0BB
:1006C8000001B251D9260001B351DA22000EDF6EC3
:1006D800000100018251D8B41200000E000100018F
:1006E800616F000E00010001606F160E6FEC04F0E0
:1006F80000017A6F000E00010001826F00017A513B
:100708001200E00ED36E9B8C0101010E0001000166
:10071800956F01011A0E00010001946F22EC0EF092
:100728000101010E00010001956F0101330E000166
:100738000001946FC8EC07F01CEC0BF0000E936EF0
:10074800000E8A6ED10EE6EC0DF00001B16F840E3A
:1007580000010001946F0001B1511F0E000100015A
:10076800966FFF0E0001956FDB0E0AEC0AF09E9C57
:10077800F28C9D8C0001B16F000E00010001946F96
:100788000001B1519B0E22EC0DF09F909F9A9F861D
:100798009E0EFBEC0DF09D86000E00010001956F8A
:1007A800260E0001946F6C0E9FEC0AF096EC0EF08A
:1007B8005AEC0AF00101010E00010001AD6F0101C0
:1007C800310E00010001AC6F0101010E00010001B2
:1007D800AF6F0101000E00010001AE6F160E01ECB3
:1007E8000DF001010101326F0101010132BF31D069
:1007F80026D000C1B1F00001B13B0F0EB1170001C6
:10080800B15101010101186F0101196B01010101C9
:1008180018051911D8B41DD00101010E00010001FD
:10082800976F0101000E00010001966F010101019F
:1008380032058CEC0BF00DD000C117F10AD0010184
:1008480001013151280AD8B4D4D7010AD8B4F4D751
:10085800030A0101010E00010001AD6F0101310E13
:1008680000010001AC6F0101010E00010001AF6F32
:100878000101000E00010001AE6F160EE0EC0CF055
:1008880001010101326F0101010132BF91D713D07B
:100898009DEC0EF08DD70101010E00010001956F4E
:1008A8000101000E00010001946F010101013251A4
:1008B800F6EC06F07DD70101010131511E0AD8B4CA
:1008C80077D7010AD8B4E7D7300AD8B471D71F0A46
:1008D800D8B4DED76DD7E8CF64F0000120EE31F050
:1008E8000001B251D9260001B351DA22000EDF6EA1
:1008F80046D0000120EE31F00001B251D9260001A6
:10090800B351DA22DF500001626F00016251010D1C
:10091800340EF326000EF422F35000010001B22534
:10092800D96EF45000010001B321DA6E000110EE17
:1009380031F00001B251E1260001B351E222E75043
:100948000001636F00016351010D1B0EF326000EB9
:10095800F422F35000010001B225E16EF4500001C9
:100968000001B321E26EDFCFE7FF000120EE31F096
:100978000001B251D9260001B351DA22DF2A000161
:1009880020EE31F00001B251D9260001B351DA222C
:10099800DF500001626F0001000164510001625DD7
:1009A800D8A0A7D7000120EE4AF00001B251D926FD
:1009B8000001B351DA22000EDF6E000120EE31F0A3
:1009C8000001B251D9260001B351DA22000164C0F6
:1009D800DFFF000120EE32F00001B251D9260001FC
:1009E800B351DA22010EDF6E000120EE1BF0000188
:1009F800B251D9260001B351DA22DF50C96EC68838
:100A08000001626F000E00010001656F0001625174
:100A18000001626F000E00010001656F0001625164
:100A2800150E00010001656501D0120000010001EA
:100A38006551010D340EF326000EF422F350000127
:100A48000001B225D96EF45000010001B321DA6E1D
:100A5800FF0EDF6E00010001652B150E000100017D
:100A68006565E4D71200020E5EEC09F087D0FF0E30
:100A78001B6EFF0E1C6E20EE16F04250D926435016
:100A8800DA22DF501D6E1E6A1B501D261C501E22C6
:100A98001D504224D96E1E504320DA6EDF500F0BD2
:100AA8003E6E3E6605D01B6E020E406E1B50120055
:100AB8001B6E010E406E1B501200FF0E1B6EFF0EC8
:100AC8001C6E3E501D6E1E6A1B501D261C501E2299
:100AD8003F501F6E206A2050800A216E1D501F5CF7
:100AE8001E50800A2158D8B002D03F2A12001B6E2F
:100AF800000E3F6E1B501B6E000E3E6E1B501B6E91
:100B0800020E406E1B5012001B6E030E406E1B50EF
:100B180012001B6E040E406E1B5012001B6E050E59
:100B2800406E1B5012001B6E060E406E1B501200CA
:100B38001B6E000E3E6E1B501B6E000E3F6E1B5050
:100B48001B6E000E406E1B501B6E1F0E176E1B5047
:100B580043C019F042C018F020EE16F04250D926D2
:100B68004350DA22DF500FEC0EF020EE16F0425020
:100B7800D9264350DA22000EDF6E12004050000AD8
:100B8800D8B475D7010AD8B498D7030AD8B4BCD753
:100B9800010AD8B4BED7070AD8B4C0D7010AD8B456
:100BA800C2D7030AD8A41200C3D7000120EE65F00B
:100BB80000019E51D92600019F51DA22DF50000121
:100BC8000001A76F00010001A751190DF3500001A2
:100BD80000019E2500010001AA6FF45000010001E8
:100BE8009F210001AB6F010EAAC0D9FFABC0DAFF8D
:100BF800DF6274D0000120EE01F00001AA51D9266D
:100C08000001AB51DA22DF5000010001A05DD8B02D
:100C180002D0FD0E1200000120EE01F00001AA51E1
:100C2800D9260001AB51DA22DF500001A56F00017F
:100C3800A55100010001A86F0001A96B0001000186
:100C4800A4C095F000010001A3C094F0030E0001B8
:100C58000001AA250001A56F000E00010001AB21CB
:100C68000001A66FA5C096F0A6C097F0A8C098F09E
:100C7800A9C099F0C1EC0BF0000120EE65F000016D
:100C88009E51D92600019F51DA22000110EE65F02D
:100C980000019E51E12600019F51E222E750000128
:100CA800A56F0001A529030BDF6E000120EE02F0FD
:100CB8000001AA51D9260001AB51DA22A1C0E1FFF7
:100CC800A2C0E2FFDFCFE7FFAAC0D9FFABC0DAFFBF
:100CD800000EDF6E00010001A8511200FC0E120088
:100CE800000100016CC071F000010001726B00018D
:100CF80020EE64F000016A51D92600016B51DA2216
:100D0800DF5000010001736F000100017351190DDC
:100D1800F350000100016A2500010001746FF450CE
:100D2800000100016B210001756F74C0D9FF75C007
:100D3800DAFFDF50D8B402D0FF0E1200000120EE17
:100D480001F000017451D92600017551DA22000121
:100D58006CC0DFFF000120EE02F000017451D926BB
:100D680000017551DA2200016DC0DFFF030E00019A
:100D78000001742500010001606F000E00010001F0
:100D880075210001616F000100016FC063F000016F
:100D980000016EC062F071C064F072C065F0F0ECE2
:100DA8000BF0000120EE64F000016A51D926000121
:100DB8006B51DA22000110EE64F000016A51E1265D
:100DC80000016B51E222E7500001706F00017029A9
:100DD800030BDF6E74C0D9FF75C0DAFF010EDF6E3A
:100DE800010E1200E8CF98F0160E00010001985D80
:100DF800D8B01200000120EE4AF00001B251D92605
:100E08000001B351DA22000EDF6E000E000100016E
:100E18009A6F000E0001996F000E000100019A6F91
:100E2800000E0001996F36D00001000199510001B0
:100E380000019425D96E000100019A5100010001BA
:100E48009521DA6E340E0001000199250001966F94
:100E5800000E000100019A210001976F00019651D0
:100E680000010001B225E16E000197510001000167
:100E7800B321E26EDFCFE7FF000120EE4AF0000168
:100E8800B251D9260001B351DA22DF2A000100014C
:100E9800994B9A2B0001000198510001966F976BAE
:100EA8000001965100010001995D00019751000170
:100EB80000019A59D8B01200B7D7E8CF95F051D0B1
:100EC8008AB002D0010E01D0000E0001946F8A5042
:100ED80000019419FE0B94198A6E12008AB202D08E
:100EE800010E01D0000E0001946F000194478A5052
:100EF80000019419FD0B94198A6E12008AB402D06D
:100F0800010E01D0000E0001946F00019447944730
:100F18008A5000019419FB0B94198A6E12008AB644
:100F280002D0010E01D0000E0001946F0001944719
:100F3800944794478A5000019419F70B94198A6EC4
:100F480012008AB802D0010E01D0000E0001946F81
:100F58000001943B8A5000019419EF0B94198A6E92
:100F68001200000100019551000AD8B4A9D7010A5E
:100F7800D8B4B4D7030AD8B4C1D7010AD8B4CFD7E4
:100F8800070AD8A41200DDD70001000195C0B3F00C
:100F98000001000194C0B2F0B2C0D9FFB3C0DAFFBB
:100FA800000EDF6E000120EE01F00001B251D926DB
:100FB8000001B351DA22000EDF6E000120EE02F0CC
:100FC8000001B251D9260001B351DA22000EDF6EBA
:100FD800000120EE16F00001B251D9260001B351EC
:100FE800DA22000EDF6E000120EE17F00001B25188
:100FF800D9260001B351DA22000EDF6E000120EE7F
:1010080018F00001B251D9260001B351DA22050EB9
:10101800DF6E000120EE1AF00001B251D92600015E
:10102800B351DA22000EDF6E000120EE4BF0000112
:10103800B251D9260001B351DA22000EDF6E000149
:1010480020EE4AF00001B251D9260001B351DA224C
:10105800000EDF6E1200E8CF61F051D08AB002D0E6
:10106800010E01D0000E0001606F8A500001601966
:10107800FE0B60198A6E12008AB202D0010E01D0EE
:10108800000E0001606F000160478A50000160197E
:10109800FD0B60198A6E12008AB402D0010E01D0CD
:1010A800000E0001606F0001604760478A50000130
:1010B8006019FB0B60198A6E12008AB602D0010E05
:1010C80001D0000E0001606F000160476047604773
:1010D8008A5000016019F70B60198A6E12008AB8ED
:1010E80002D0010E01D0000E0001606F0001603BCC
:1010F8008A5000016019EF0B60198A6E1200000116
:1011080000016151000AD8B4A9D7010AD8B4B4D7EC
:10111800030AD8B4C1D7010AD8B4CFD7070AD8A4CC
:101128001200DDD7E8CF60F0000120EE17F00001D3
:10113800B251D9260001B351DA22010EDF6E000147
:1011480020EE16F00001B251D9260001B351DA227F
:10115800000EDF6E000100016051D8B43DD0C7AA6F
:1011680021D0000120EE18F00001B251D92600016B
:10117800B351DA22050EDF6E000120EE1AF00001ED
:10118800B251D9260001B351DA22DF2A000120EE3C
:1011980019F00001B251D9260001B351DA22050E27
:1011A800DF6E1200C7A40CD0000120EE18F0000179
:1011B800B251D9260001B351DA22080EDF6E1200AF
:1011C800000120EE18F00001B251D9260001B351F8
:1011D800DA22070EDF6E1200000120EE18F000017F
:1011E800B251D9260001B351DA22060EDF6E120081
:1011F800E9CF88F0EACF89F0E1CF8AF0E2CF8BF02F
:10120800D9CF8CF0DACF8DF0F3CF8EF0F4CF8FF00A
:10121800F6CF90F0F7CF91F0F8CF92F0F5CF93F0AA
:101228009EA603D09E965DEC00F09EAC12D08AB2CA
:1012380002D0010E01D0000E0001856F0001854724
:101248008A5000018519FD0B85198A6E9E9C98ECC1
:101258000DF0F2A410D08AB002D0010E01D0000E19
:101268000001856F8A5000018519FE0B85198A6E69
:10127800F29440EC0EF055EC0BF093C0F5FF92C0E1
:10128800F8FF91C0F7FF90C0F6FF8FC0F4FF8EC043
:10129800F3FF8DC0DAFF8CC0D9FF8BC0E2FF8AC094
:1012A800E1FF89C0EAFF88C0E9FF87C0FBFF86C06D
:1012B800FAFF1100E8CF02F043D08AB002D0010E45
:1012C80001D0000E016E8A500118FE0B01188A6EBB
:1012D80012008AB202D0010E01D0000E016E014642
:1012E8008A500118FD0B01188A6E12008AB402D0C8
:1012F800010E01D0000E016E014601468A50011808
:10130800FB0B01188A6E12008AB602D0010E01D0BA
:10131800000E016E0146014601468A500118F70B7E
:1013280001188A6E12008AB802D0010E01D0000E90
:10133800016E013A8A500118EF0B01188A6E1200EB
:101348000250000AD8B4B9D7010AD8B4C2D7030AE0
:10135800D8B4CCD7010AD8B4D7D7070AD8A4120072
:10136800E2D70DC012F0136A20EE64F00B50D926B4
:101378000C50DA22DF50146E1450190DF3500B2460
:10138800156EF4500C20166E15C0D9FF16C0DAFF82
:10139800DF50D8B402D0FF0E120020EE01F0155035
:1013A800D9261650DA220DC0DFFF20EE02F01550C4
:1013B800D9261650DA220EC0DFFF030E1524016E5F
:1013C800000E1620026E10C004F00FC003F012C009
:1013D80005F013C006F042EC0DF020EE64F00B505F
:1013E800D9260C50DA2210EE64F00B50E1260C508E
:1013F800E222E750116E1128030BDF6E15C0D9FFEA
:1014080016C0DAFF010EDF6E010E1200E8CF9AF067
:10141800000EC26E000EC16E94C097F0060E000159
:10142800986F0001D89097370001982FFAD7C00E0F
:101438000001971700010001D89094313C0B00017E
:101448009711C26E9AC097F00001D89097370001A3
:10145800D8909737380E000197179AC098F0000176
:10146800983B0F0E9817070E00019817000100010E
:101478009A51800B0001981100019711C16E95C017
:1014880048FF000196C097F097C098F00001996B4B
:10149800000198510F010F01496F0001000194AF3D
:1014A80003D09E9C9D8CF28CC2801200BEEC0CF086
:1014B80000010001995100019811D8B412000001EF
:1014C8009A6F010E00010001B46F00019A510201E8
:1014D800020E00010001956F0201660E0001000175
:1014E800946F62EC0DF00009D8B409D000019A6F2E
:1014F800000E00010001B46F00019A5112000101B1
:10150800010E00010001956F01017F0E000100012D
:10151800946F62EC0DF00009D8B409D000019A6FFD
:10152800000E00010001B46F00019A5112000A0E6A
:101538004CEC0EF0CCD7E8CF99F0000EAD6E000E53
:10154800AC6E0001000199B1AD880001000199A3BA
:1015580002D0AD8CAC8C0001000199B5AD8E0001B4
:10156800000199A702D0AC8801D0AC8A0001000123
:1015780099B9AD840001000199BBAC860001000156
:1015880099AD02D09D8A01D09D9A0001000199AFC2
:1015980002D09D8801D09D9894C0B0FF000195C0ED
:1015A80096F096C097F00001986B000197517F6EF6
:1015B800AD8AAC8E1200000120EE64F00001945157
:1015C800D92600019551DA22000EDF6E000120EEC7
:1015D80065F000019451D92600019551DA22000ED8
:1015E800DF6E0001966F000E00010001976F000189
:1015F8009651030E00010001976501D01200000109
:1016080000019751190DF350000100019425D96E7E
:10161800F450000100019521DA6E000EDF6E000122
:101628000001972B030E000100019765E8D712000F
:101638000001986F000E00010001B46F000198517D
:101648000101010E00010001956F01017F0E0001EB
:101658000001946FDFEC0AF00201020E00010001A4
:10166800956F0201660E00010001946FDFEC0AF02D
:101678000201020E00010001956F0201000E000137
:101688000001946FDFEC0AF00301030E0001000172
:10169800956F0301000E00010001946FDFEC0AF062
:1016A800120000010001B46701D012009BEC0CF09D
:1016B80000010001635100016211D8A4120085ECF9
:1016C8000EF000010001615100016011D8B4120050
:1016D8000201020E00010001616F0201660E0001A5
:1016E8000001606FB3EC0DF00009D8A412000101ED
:1016F800010E00010001616F01017F0E0001000170
:10170800606FB3EC0DF00009D8B49AEC0EF012003B
:10171800E8CF99F0040E61EC07F00001986F000E15
:10172800000100019A6F000198510001986F000EA6
:10173800000100019A6F0001985116D0ADA2FED7A2
:10174800000100019A51010DF35000010001962596
:10175800D96EF450000100019721DA6EDF5057EC82
:101768000EF0000100019A2B0001000199510001BF
:1017780000019A5DD8B01200E1D70001000197C0BE
:101788009DF00001000196C09CF00001000195C089
:101798009BF00001000194C09AF012D09CC0D9FFC0
:1017A8009DC0DAFF9AC0E1FF9BC0E2FFDFCFE7FFF1
:1017B800000100019C4B9D2B000100019A4B9B2BC3
:1017C800000100019807D8A0990700019829D8B40A
:1017D8009929D8B41200E2D70001000163C069F06A
:1017E8000001000162C068F00001000161C067F0FB
:1017F8000001000160C066F012D068C0D9FF69C05E
:10180800DAFF66C0E1FF67C0E2FFDFCFE7FF000154
:101818000001684B692B00010001664B672B000132
:1018280000016407D8A0650700016429D8B46529B8
:10183800D8B41200E2D79EAA1CD020EE16F042506F
:10184800D9264350DA22DF50226E2250010DF35080
:101858004224D96EF4504320DA6E31EC0EF0DF6E7C
:1018680020EE16F04250D9264350DA22DF2A37EC10
:1018780005F041A61200AC98AC88226E1E0E176EB9
:101888002250000E196E000E186E000E0FEC0EF0AE
:10189800120003EE00F0660EEE6AE806FDE102EEC5
:1018A80000F0CC0EEE6AE806FDE101EE7FF0660E70
:1018B800EE6AE806FDE10001B46B00EE34F00E0EAE
:1018C800EE6AE806FDE1420EF66E1D0EF76E000E9A
:1018D800F86E0900F5CF44F00900F5CF45F0000E89
:1018E800F86E000185EF03F0F2AC08D0000E00019D
:1018F8000001976F000E0001966F120061EC0EF068
:1019080000010001955100019411D8B408D0000ECF
:1019180000010001976F000E0001966F1200000E83
:1019280000010001976F010E0001966F1200F2ACE2
:1019380008D0000E00010001636F000E0001626F05
:10194800120085EC0EF000010001615100016011E8
:10195800D8B408D0000E00010001636F000E00012A
:10196800626F1200000E00010001636F010E00019A
:10197800626F120078EC0CF0000100019751000131
:101988009611D8A411D061EC0EF000010001955118
:1019980000019411D8A408D0000E00010001996F2D
:1019A800010E0001986F1200000E00010001996FEE
:1019B800000E0001986F1200E8CFB0F00101010E8F
:1019C800000100019F6F01017F0E000100019E6F61
:1019D800B0C0A0F000010001ADC0A2F000010001FC
:1019E800ACC0A1F000010001AFC0A4F000010001EB
:1019F800AEC0A3F0D9EC05F01200E8CFB0F00201B8
:101A0800020E000100019F6F0201660E0001000135
:101A18009E6FB0C0A0F000010001ADC0A2F00001AF
:101A28000001ACC0A1F000010001AFC0A4F00001AA
:101A38000001AEC0A3F0D9EC05F01200E8CF96F093
:101A4800000100019451F30B9A6E96C095F07F0E39
:101A5800000195170001D8909535CD6E000ECF6E18
:101A6800000ECE6E9E900001000196AF02D09D80C0
:101A780001D09D909ABE9A86CD80120004C00AF0CB
:101A880003C009F002C008F001C007F00ED009C079
:101A9800D9FF0AC0DAFF07C0E1FF08C0E2FFDFCFC5
:101AA800E7FF094A0A2A074A082A0506D8A00606AF
:101AB8000528D8B40628D8B41200E9D7000120EECA
:101AC80065F000019451D92600019551DA22DF50C2
:101AD8000001966F00019651190DF35000010001A5
:101AE8009425D96EF450000100019521DA6EDF507B
:101AF8001200E8CF79F00201020E000100016B6FBD
:101B08000201660E000100016A6F79C06CF076C0B0
:101B18006DF00001000178C06FF00001000177C08E
:101B28006EF074EC06F012008EEC0EF0000160C04E
:101B380064F0000161C065F0000164C062F000015A
:101B480065C063F00001D890633362330001D89018
:101B58006333623362C064F063C065F01200000151
:101B680020EE65F000016051D92600016151DA22AA
:101B7800DF500001626F00016251190DF35000013E
:101B880000016025D96EF450000100016121DA6E70
:101B9800DF50120073EC0EF001C01CF002C01DF003
:101BA8001B6E0B0E176E1B50000E196E000E186E72
:101BB800000E0FEC0EF0000E026E000E016E6AECC5
:101BC8000EF01200E8CF94F00001000194517F0B51
:101BD800D56E000ED76E000ED66EF294000100018D
:101BE80094AF02D0F28A01D0F29AD58E1200E8CFD3
:101BF80094F09388938A94C0C8FF000EC76E000EB5
:101C0800C66E000EC56E0E0EC612C78E8188818AFA
:101C1800C580C68A1200E8CF1AF00101010E0C6EC9
:101C280001017F0E0B6E1AC00DF017C00EF019C01F
:101C380010F018C00FF0B5EC09F01200000195C0C3
:101C480043F0000194C042F020EE16F04250D9262D
:101C58004350DA22000EDF6E1200F20E4116ACACD1
:101C680003D04190ACB04180ACB44184ACB2418661
:101C7800AFCF01F001501200000E00010001616FAA
:101C8800000E0001606F7CEC0EF09FEC0EF012006D
:101C9800E8CF94F0FA0E00F0E82EFDD7000100011D
:101CA800942FF8D71200E8CF94F0ADAC03D0AD90E4
:101CB80041B2AD8094C0AEFF1200000EF2AE010E2C
:101CC80000010001946F0001956B120001C003F040
:101CD80002C004F004C0CFFF03C0CEFF1200CECF75
:101CE80003F0CFCF04F003C001F004C002F01200EB
:101CF80060C062F061C063F063C0D7FF62C0D6FF06
:101D08001200000EF2AE010E00010001606F00012A
:101D1800616B1200C45000010001616FC3500001E3
:101D2800606F1200D08EF28EF28C1200D38E0300F8
:0C1D38001200C2821200C282120064007D
:08FFF8008AF795FFF2F9FFF111
:00000001FF
