:040000005BEF00F0C2
:0C000800FACFC1F0FBCFC2F072EF09F09C
:10001800D8CF1CF0E8CF1DF0E0CF1EF0FACF1FF0CC
:10002800FBCF20F0E9CF21F0EACF22F0E1CF23F097
:10003800E2CF24F0D9CF25F0DACF26F0F3CF27F09E
:10004800F4CF28F0F6CF29F0F7CF2AF0F8CF2BF02D
:10005800F5CF2CF09EA003D09E9086EC0DF09EAAC2
:1000680003D09E9AFDEC07F02CC0F5FF2BC0F8FFDB
:100078002AC0F7FF29C0F6FF28C0F4FF27C0F3FF06
:1000880026C0DAFF25C0D9FF24C0E2FF23C0E1FF64
:1000980022C0EAFF21C0E9FF20C0FBFF1FC0FAFF12
:1000A8001EC0E0FF1DC0E8FF1CC0D8FF100027EFEE
:1000B8000BF00001B66F000E00010001C06F0001D7
:1000C800B6510001B66F000E00010001BB6F0001C0
:1000D800B6510001B66F000E00010001BF6F0001AC
:1000E800B6510001B66F000E00010001BE6F00019D
:1000F800B6510001B66F000E00010001BC6F00018F
:10010800B651C6AC20D0C69C20EE0DF04E50D92674
:100118004F50DA22050EDF6E0001B66F010E0001A6
:100128000001BC6F0001B65120EE0FF04E50D926E9
:100138004F50DA22DF2A20EE0EF04E50D9264F50CB
:10014800DA22040EDF6EC7A00AD0C9CFBDF00001C5
:10015800B66F010E00010001C06F0001B651000129
:100168000001BC6774D160D1C7A671D1000100013C
:10017800C05198EC08F020EE0DF04E50D9264F50A3
:10018800DA22080EDF6263D10001B66F000E0001AB
:100198000001C06F0001B6510001B66F010E0001E9
:1001A8000001BE6F36D1C7A827D020EE0CF04E5004
:1001B800D9264F50DA22DF2A00010001C051D8B4F5
:1001C8002BD1C7BA09D00001B66F010E000100019A
:1001D800BF6F0001B65120D120EE0FF04E50D92646
:1001E8004F50DA22DF2A20EE0EF04E50D9264F501B
:1001F800DA22060EDF6E10D100010001C051D8B41A
:1002080026D120EE0CF04E50D9264F50DA22DF2AA4
:10021800C7BA13D0C7B408D020EE0DF04E50D92677
:100228004F50DA22070E5AD020EE0DF04E50D92644
:100238004F50DA22080EDF6EDED020EE0FF04E505F
:10024800D9264F50DA22DF2A20EE0DF04E50D9265B
:100258004F50DA22050EDF6E20EE0EF04E50D926F2
:100268004F50DA22060E3AD020EE1BF04E50D92617
:100278004F50DA22DF500001B66F20EE1AF04E50D0
:10028800D9264F50DA22DF500001B65DD8B0C4D06D
:1002980020EE1BF04E50D9264F50DA22DF500001D5
:1002A800B66F0001B651010D100EF326000EF422B0
:1002B800F3504E24D96EF4504F20DA6EDF50C96ED9
:1002C80020EE1BF04E50D9264F50DA22DF2A0001CB
:1002D800B66F010E00010001BB6F9BD0DF6EB7D077
:1002E800C7A84CD020EE0CF04E50D9264F50DA2239
:1002F800DF2A00010001C051D8B437D0C7AA1DD0E9
:1003080020EE0AF04E50D9264F50DA22DF50000175
:10031800B66F0001B651010DF3504E24D96EF4505A
:100328004F20DA6E0001BDC0DFFF20EE0AF04E500C
:10033800D9264F50DA22DF2A18D020EE0FF04E507F
:10034800D9264F50DA22DF2A20EE0EF04E50D92659
:100358004F50DA22060EDF6E20EE0DF04E50D926F1
:100368004F50DA22050EDF6E57D00001B66F010E2E
:1003780000010001BF6F0001B6514ED0000100011D
:10038800C051D8B464D020EE0CF04E50D9264F504E
:10039800DA22DF2AC7AA1DD020EE0AF04E50D9264D
:1003A8004F50DA22DF500001B66F0001B651010D3F
:1003B800F3504E24D96EF4504F20DA6E0001BDC0C0
:1003C800DFFF20EE0AF04E50D9264F50DA22DF2AFE
:1003D8003ED0C7A401D720EE0DF04E50D9264F507D
:1003E800DA22080EDF6E0001B66F010E000100016F
:1003F800BF6F0001B6510001B66F010E0001000188
:10040800BE6F0001B6510001B66F000E0001000179
:10041800C06F0001B6511BD020EE0DF04E50D9260A
:100428004F50DA22050E5AD720EE0DF04E50D9263D
:100438004F50DA22DF50050AD8B496D6030AD8B44A
:10044800B2D6010AD8B44CD70F0AD8B40DD70001D8
:100458000001C06705D000010001BB51D8B402D02B
:10046800C6A8C68820EE0AF04E50D9264F50DA2288
:10047800080EDF641BD000010001BF6717D020EE13
:100488000DF04E50D9264F50DA22050EDF6E20EEC1
:100498000FF04E50D9264F50DA22DF2A20EE0EF008
:1004A8004E50D9264F50DA22070EDF6E00010001A8
:1004B800BF51D8B434D020EE0CF04E50D9264F504E
:1004C800DA2210EE0AF04E50E1264F50E222E750B1
:1004D8000001B66F0001B651010DF3504E24E16ED4
:1004E800F4504F20E26EDFCFE7FF0001B66F280E11
:1004F800436E0001B6514FC045F04EC044F020EEA7
:100508000AF04E50D9264F50DA22DF500001B76F5B
:100518000001B72934EC0DF020EE0AF038D020EEB7
:100528000FF04E50D9264F50DA22DF50D8B435D0CC
:1005380020EE0FF04E50D9264F50DA22DF5000013E
:100548000001B86F20EE0EF04E50D9264F50DA2237
:10055800DF5000010001B96F20EE0CF04E50D92693
:100568004F50DA22DF5000010001BA6F0001B66F68
:10057800290E436E0001B6510001000E456E0001C0
:10058800B80E446E030E34EC0DF020EE0FF04E5012
:10059800D9264F50DA22000EDF6E00010001BE514D
:1005A800D8B41200000E2E6E000E2D6E525092EC32
:1005B80005F00001B66F000E00010001BE6F0001DA
:1005C800B651120054D120EE0DF04E50D9264F509E
:1005D800DA22240EDF6E20EE1CF04E50D9264F5042
:1005E800DA22DF500001B66F0001D890B635FE0B55
:1005F800C96E1200C5BC5BD020EE1BF04E50D92648
:100608004F50DA22DF500001B66F20EE1AF04E503C
:10061800D9264F50DA22DF500001B65DD8B028D075
:1006280020EE1BF04E50D9264F50DA22DF50000141
:10063800B66F0001B651010D100EF326000EF4221C
:10064800F3504E24D96EF4504F20DA6EDF50C96E45
:1006580020EE1BF04E50D9264F50DA22DF2A20EE2A
:100668000DF04E50D9264F50DA22240EDF6E1200BC
:100678000001B66F2B0E436E0001B651000E456E99
:10068800000E446E000E34EC0DF020EE1AF04E50C1
:10069800D9264F50DA22000EDF6E20EE0DF04E50B4
:1006A800D9264F50DA22050EDF6EC58412000001EC
:1006B800B66F2C0E436E0001B651000E456E000E4B
:1006C800446E000E34EC0DF020EE0DF04E50D9269D
:1006D8004F50DA22050EDF6EC58412000001B66F96
:1006E8002B0E436E0001B651000E456E000E446E8F
:1006F800000E34EC0DF020EE0DF04E50D9264F5080
:10070800DA22050EDF6E120020EE0DF04E50D926CB
:100718004F50DA22270EDF6E20EE1CF04E50D926FD
:100728004F50DA22DF500001B66F0001D880B6358D
:10073800C96E1200C5BC0AD020EE0DF04E50D92665
:100748004F50DA22150EDF6EC58612000001B66F13
:100758002E0E436E0001B651000E456E000E446E1B
:10076800000E34EC0DF020EE0DF04E50D9264F500F
:10077800DA22050EDF6EC584120020EE0BF04E5013
:10078800D9264F50DA22DF500001B66F0001B6516A
:10079800010DF3504E24D96EF4504F20DA6EC9CFB4
:1007A800DFFF20EE0BF04E50D9264F50DA22DF2A19
:1007B80020EE0DF04E50D9264F50DA22140EDF6E7F
:1007C80020EE0BF04E50D9264F50DA22DF500001B0
:1007D800B66F20EE0AF04E50D9264F50DA22DF507D
:1007E8000001B65DD8B003D0C59AC5881200C58A85
:1007F800C588120020EE0BF04E50D9264F50DA2251
:10080800DF500001B66F20EE0AF04E50D9264F5047
:10081800DA22DF500001B65DD8B00AD020EE0DF024
:100828004E50D9264F50DA22150EDF6EC5861200BB
:100838000001B66F2D0E436E0001B6514FC045F052
:100848004EC044F020EE0AF04E50D9264F50DA221E
:10085800DF5034EC0DF020EE0DF04E50D9264F50FD
:10086800DA22050EDF6EC584C59AC588120020EE0F
:100878000DF04E50D9264F50DA22DF50090AD8B46D
:10088800A2D6190AD8B440D7030AD8B427D7070A7A
:10089800D8B4B0D7010AD8B470D7310AD8B4AAD618
:1008A800030AD8A4120046D7820ED36E9B8C01018E
:1008B800010E00010001D06F0101BF0E000100010F
:1008C800CF6F59EC0DF00101010E00010001D06F4E
:1008D8000101C60E00010001CF6F4BEC08F00101C9
:1008E800010E00010001D06F0101BD0E00010001E1
:1008F800CF6FB1EC0DF068EC0AF0000E936E000EAD
:100908008A6E970E0CEC0DF0F50E70EC0CF09F90C3
:100918009F9A9F869E0EC2EC0CF09D86000E0001E9
:100928000001D06F260E0001CF6F6C0EE4EC08F0CA
:10093800E4EC0DF0B3EC09F00101010E0101010135
:10094800A36F0101C40E01010101A26F0101010E93
:1009580001010101A56F0101AE0E01010101A46FA2
:100968000A0ED2EC0BF001010101C56F0101010172
:10097800C5BF56D049D00101010E00010001D06F5A
:100988000101BB0E00010001CF6F01010001C4C1CC
:10099800D1F000010001D26B01010101C551000134
:1009A8000001D36F0001D46B0001D3BFD40701014C
:1009B800010E00010001D66F0101AE0E0001000119
:1009C800D56FA8EC0DF02CD00101010E000100013B
:1009D800D16F0101AE0E00010001D06F01010101CC
:1009E800C5519FEC0AF01CD00101010E0001000165
:1009F800D16F0101AE0E00010001D06F01010101AC
:100A0800C5519FEC0AF00CD001010101C4510A0A3A
:100A1800D8B4B1D7270AD8B4D7D7020AD8B4E4D7FC
:100A28000101010E01010101A36F0101C40E0101C1
:100A38000101A26F0101010E01010101A56F010170
:100A4800AE0E01010101A46F0A0EB1EC0BF0010119
:100A58000101C56F01010101C5BF6CD752D0010169
:100A6800010E01010101A66F0101BD0E0101010185
:100A7800A56F01010101C4C1A7F101010101A86B22
:100A880001010101C55101010101A96F0101AA6B11
:100A98000101A9BFAA070101010E01010101AC6F03
:100AA8000101AE0E01010101AB6F2FEC0AF042D734
:100AB8000101010E00010001D06F0101B90E000112
:100AC8000001CF6F01010001C4C1D1F00001000194
:100AD800D26B01010101C55100010001D36F000172
:100AE800D46B0001D3BFD4070101010E000100013E
:100AF800D66F0101AE0E00010001D56F33EC0CF08A
:100B080019D701010101C4510B0AD8B4A8D7150A95
:100B1800D8B4CED7010AD8B4CBD70CD7E8CF32F0A7
:100B280020EE1AF04E50D9264F50DA22000EDF6E12
:100B38006BD020EE1AF04E50D9264F50DA22DF50F3
:100B48002F6E20EE27F04E50D9264F50DA22DF5074
:100B58002F5CD8B01ED020EE1AF04E50D9264F5038
:100B6800DA22DF502F6E2F50010D1D0EF326000ED6
:100B7800F422F3504E24D96EF4504F20DA6E10EE62
:100B88001AF04E50E1264F50E222E750306E3050B6
:100B980027D020EE27F04E50D9264F50DA22DF50CA
:100BA800D8B408D020EE27F04E50D9264F50DA227C
:100BB800DF5001D032502F6E306A1C0E2F26000EE7
:100BC80030222F504E24D96E30504F20DA6E10EE5E
:100BD8001AF04E50E1264F50E222E750316E315064
:100BE800010D100EF326000EF422F3504E24E16E90
:100BF800F4504F20E26EDFCFE7FF20EE1AF04E50A0
:100C0800D9264F50DA22DF2A20EE1AF04E50D92684
:100C18004F50DA22DF502F6E32502F5CD8A089D780
:100C280020EE27F04E50D9264F50DA22000EDF6E04
:100C380020EE1AF04E50D9264F50DA2232C0DFFF8C
:100C480020EE1BF04E50D9264F50DA22010EDF6EEF
:100C580020EE10F04E50D9264F50DA22DF50C96EE0
:100C6800C6881200000120EE35F00001D951D926BE
:100C78000001DA51DA22DF5000010001E26F0001C1
:100C88000001E2510D0DF35000010001D9250001CA
:100C98000001E56FF45000010001DA210001E66F60
:100CA800010EE5C0D9FFE6C0DAFFDF6274D00001AB
:100CB80020EE01F00001E551D9260001E651DA22C3
:100CC800DF5000010001DB5DD8B002D0FD0E12003C
:100CD800000120EE01F00001E551D9260001E6519E
:100CE800DA22DF500001E06F0001E051000100014D
:100CF800E36F0001E46B00010001DFC0D0F00001E8
:100D08000001DEC0CFF0030E00010001E52500015F
:100D1800E06F000E00010001E6210001E16FE0C074
:100D2800D1F0E1C0D2F0E3C0D3F0E4C0D4F0D1EC0C
:100D38000AF0000120EE35F00001D951D926000152
:100D4800DA51DA22000110EE35F00001D951E1261E
:100D58000001DA51E222E7500001E06F0001E029CA
:100D6800030BDF6E000120EE02F00001E551D926E9
:100D78000001E651DA22DCC0E1FFDDC0E2FFDFCF8F
:100D8800E7FFE5C0D9FFE6C0DAFF000EDF6E00011D
:100D98000001E3511200FC0E120000010001DBC04B
:100DA800E0F000010001E16B000120EE34F00001E9
:100DB800D951D9260001DA51DA22DF5000010001A9
:100DC800E26F00010001E2510D0DF3500001000136
:100DD800D92500010001E36FF45000010001DA2178
:100DE8000001E46FE3C0D9FFE4C0DAFFDF50D8B4F4
:100DF80002D0FF0E1200000120EE01F00001E351C5
:100E0800D9260001E451DA220001DBC0DFFF00012E
:100E180020EE02F00001E351D9260001E451DA2264
:100E28000001DCC0DFFF030E00010001E325000123
:100E38000001CF6F000E00010001E4210001D06F16
:100E480000010001DEC0D2F000010001DDC0D1F0D8
:100E5800E0C0D3F0E1C0D4F0D1EC0AF0000120EEFC
:100E680034F00001D951D9260001DA51DA22000103
:100E780010EE34F00001D951E1260001DA51E222E6
:100E8800E7500001DF6F0001DF29030BDF6EE3C0CD
:100E9800D9FFE4C0DAFF010EDF6E010E12000DC0AB
:100EA80012F0136A20EE34F00B50D9260C50DA22D7
:100EB800DF50146E14500D0DF3500B24156EF450C2
:100EC8000C20166E15C0D9FF16C0DAFFDF50D8B453
:100ED80002D0FF0E120020EE01F01550D926165050
:100EE800DA220DC0DFFF20EE02F01550D926165089
:100EF800DA220EC0DFFF030E1524016E000E162045
:100F0800026E10C004F00FC003F012C005F013C049
:100F180006F0F3EC0BF020EE34F00B50D9260C5011
:100F2800DA2210EE34F00B50E1260C50E222E750A2
:100F3800116E1128030BDF6E15C0D9FF16C0DAFF3A
:100F4800010EDF6E010E120039C03EF03F6A20EE3E
:100F580034F03750D9263850DA22DF50406E4050EE
:100F68000D0DF3503724416EF4503820426E41C0C5
:100F7800D9FF42C0DAFFDF50D8B402D0FF0E12000A
:100F880020EE01F04150D9264250DA2239C0DFFF65
:100F980020EE02F04150D9264250DA223AC0DFFF53
:100FA800030E41242D6E000E42202E6E3CC030F000
:100FB8003BC02FF03EC031F03FC032F013EC0CF0D4
:100FC80020EE34F03750D9263850DA2210EE34F0BB
:100FD8003750E1263850E222E7503D6E3D28030B9A
:100FE800DF6E41C0D9FF42C0DAFF010EDF6E010E8D
:100FF80012009EAA3CD020EE04F05050D926515041
:10100800DA22DF501B6E1B50010DF3505024D96EAD
:10101800F4505120DA6E68EC0DF0DF6E20EE04F02B
:101028005050D9265150DA22DF2A20EE04F05050D1
:10103800D9265150DA22040EDF6219D01B6E1F0E1A
:10104800176E1B5051C019F050C018F020EE04F074
:101058005050D9265150DA22DF5021EC0DF020EE05
:1010680004F05050D9265150DA22000EDF6E4CA6FB
:101078001200AB98AB881B6E1E0E176E1B50000E2D
:10108800196E000E186E000E21EC0DF01200000112
:10109800D0C04FF00001CFC04EF04EC0D9FF4FC0B6
:1010A800DAFF000EDF6E20EE01F04E50D9264F50C9
:1010B800DA22000EDF6E20EE02F04E50D9264F5095
:1010C800DA22000EDF6E20EE0AF04E50D9264F507D
:1010D800DA22000EDF6E20EE0CF04E50D9264F506B
:1010E800DA22000EDF6E20EE0DF04E50D9264F505A
:1010F800DA22050EDF6E20EE0FF04E50D9264F5043
:10110800DA22000EDF6E20EE28F04E50D9264F501E
:10111800DA22000EDF6E20EE27F04E50D9264F500F
:10112800DA22000EDF6E1200E8CF2DF020EE0CF070
:101138004E50D9264F50DA22010EDF6E20EE0AF00B
:101148004E50D9264F50DA22000EDF6E2D50D8B4FB
:101158002ED0C7AA18D020EE0DF04E50D9264F50E9
:10116800DA22050EDF6E20EE0FF04E50D9264F50D2
:10117800DA22DF2A20EE0EF04E50D9264F50DA221E
:10118800050EDF6E1200C7A409D020EE0DF04E50F8
:10119800D9264F50DA22080EDF6E120020EE0DF02D
:1011A8004E50D9264F50DA22070EDF6E120020EE7D
:1011B8000DF04E50D9264F50DA22060EDF6E12007F
:1011C800E8CFD4F0000EAC6E000EAB6E000100014B
:1011D800D4B1AC8800010001D4A302D0AC8CAB8C94
:1011E80000010001D4B5AC8E00010001D4A702D0E3
:1011F800AB8801D0AB8A00010001D4B9AC849E98B9
:1012080000010001D4BBAB8600010001D4AD02D0BF
:101218009D8A01D09D9A9E9A00010001D4AF02D008
:101228009D8801D09D98CFC0AFFF0001D0C0D1F0FC
:10123800D1C0D2F00001D36B0001D251B06EAC8A9C
:10124800AB8E949C948EACA81200ACBE1200948C09
:10125800120000010001D251D111D8B43AD00001D6
:10126800D36F010E00010001D46F0001D35109D0E2
:10127800000100010001D890D137D23700010001E8
:10128800D42B00010001D2AFF3D700010001D151E6
:1012980000010001CF5D00010001D25100010001F1
:1012A800D059D8A00CD000010001D1510001000193
:1012B800CF5F00010001D25100010001D05B0001A5
:1012C80000010001D890D233D13300010001D42F9E
:1012D800DCD7CFC0CFF0D0C0D0F01200E9CFC3F038
:1012E800EACFC4F0E1CFC5F0E2CFC6F0D9CFC7F05E
:1012F800DACFC8F0F3CFC9F0F4CFCAF0F6CFCBF00D
:10130800F7CFCCF0F8CFCDF0F5CFCEF09EA603D036
:101318009E9677EC0DF0F2A403D0F294DCEC0CF07E
:1013280000EC0BF0CEC0F5FFCDC0F8FFCCC0F7FF46
:10133800CBC0F6FFCAC0F4FFC9C0F3FFC8C0DAFFCC
:10134800C7C0D9FFC6C0E2FFC5C0E1FFC4C0EAFFFD
:10135800C3C0E9FFC2C0FBFFC1C0FAFF11006DECBA
:101368000BF000010001D4510001D311D8B41200D0
:101378000001D56F010E4B6E0001D5510101010E20
:1013880000010001D06F01016C0E00010001CF6F58
:10139800A7EC0CF00009D8B407D00001D56F000EF7
:1013A8004B6E0001D55112000001000E0001000132
:1013B800D06F0001800E00010001CF6FA7EC0CF088
:1013C8000009D8B407D00001D56F000E4B6E00019C
:1013D800D55112000A0E93EC0DF0D0D7000120EE83
:1013E80034F00001CF51D9260001D051DA22000E85
:1013F800DF6E000120EE35F00001CF51D926000143
:10140800D051DA22000EDF6E0001D16F000E00010C
:101418000001D26F0001D151030E00010001D26515
:1014280001D0120000010001D2510D0DF35000014E
:101438000001CF25D96EF45000010001D021DA6EE9
:10144800000EDF6E00010001D22B030E0001000127
:10145800D265E8D71200A5C1D9FFA6C1DAFFDE2AF6
:10146800000EDD22A5C1D9FFA6C1DAFF0001DECF3B
:10147800CFF00001DDCFD0F0000E00010001D26FE7
:101488000A0E0001D16F2DEC09F000010001CF51C7
:10149800090A0001D011D8A412000001E66F140E49
:1014A80001010101A26F0001E65101010101A6C17C
:1014B800A4F101010101A5C1A3F1020E8CEC0CF00D
:1014C80001010101AD6F12000001D36F000E4B6ED8
:1014D8000001D3510001000E00010001D06F00018E
:1014E800800E00010001CF6FF2EC09F00101010E3E
:1014F80000010001D06F01016C0E00010001CF6FE7
:10150800F2EC09F00101010E00010001D06F0101A8
:10151800360E00010001CF6FF2EC09F00101010E57
:1015280000010001D06F0101000E00010001CF6F22
:10153800F2EC09F01200E8CFD3F00001D26F000EF0
:1015480000010001D46F0001D2510001D26F000EDA
:1015580000010001D46F0001D25116D0ACA2FED711
:1015680000010001D451010DF35000010001D02504
:10157800D96EF45000010001D121DA6EDF509EECE3
:101588000DF000010001D42B00010001D35100012E
:101598000001D45DD8B01200E1D700010001D2C02B
:1015A800D8F000010001D1C0D7F000010001D0C07F
:1015B800D6F000010001CFC0D5F012D0D7C0D9FFB6
:1015C800D8C0DAFFD5C0E1FFD6C0E2FFDFCFE7FF22
:1015D80000010001D74BD82B00010001D54BD62BB9
:1015E80000010001D307D8A0D4070001D329D8B43B
:1015F800D429D8B41200E2D74B6601D01200F5EC1A
:101608000CF030502F10D8A41200DEEC0DF02E5044
:101618002D10D8B412000101010E2E6E01016C0EBE
:101628002D6E47EC0DF00009D8A412000001000E41
:101638002E6E0001800E2D6E47EC0DF00009D8B417
:10164800E8EC0DF0120001EE00F0A20EEE6AE806DA
:10165800FDE100EE80F0360EEE6AE806FDE100EEF0
:1016680047F0070EEE6AE806FDE1D60EF66E1B0E91
:10167800F76E000EF86E0900F5CF52F00900F5CFAD
:1016880053F0000EF86E000158EF04F0F2AC08D0E9
:10169800000E00010001D26F000E0001D16F120090
:1016A800BAEC0DF000010001D0510001CF11D8B4FF
:1016B80008D0000E00010001D26F000E0001D16FAA
:1016C8001200000E00010001D26F010E0001D16F5F
:1016D80012004AEC0BF000010001D2510001D111B7
:1016E800D8A411D0BAEC0DF000010001D0510001CE
:1016F800CF11D8A408D0000E00010001D46F010E4C
:101708000001D36F1200000E00010001D46F000E1B
:101718000001D36F1200E8CF2EF02D6E010E4D6E32
:101728002D5020EE1CF04E50D9264F50DA222EC0F4
:10173800DFFF000EC66E000EC56E000EC76E630E8C
:10174800C86EC650F00B0809C66EC68A800EC76EF2
:101758008B868B88948694881200E8CFA6F10001C6
:10176800000E00010001DA6F0001800E0001000187
:10177800D96FA6C1DBF001010001A3C1DDF00101B1
:101788000001A2C1DCF001010001A5C1DFF00101E7
:101798000001A4C1DEF036EC06F01200E8CFA6F195
:1017A8000101010E00010001DA6F01016C0E000158
:1017B8000001D96FA6C1DBF001010001A3C1DDF072
:1017C80001010001A2C1DCF001010001A5C1DFF0A7
:1017D80001010001A4C1DEF036EC06F0120004C0DD
:1017E8000AF003C009F002C008F001C007F00ED0EB
:1017F80009C0D9FF0AC0DAFF07C0E1FF08C0E2FF4D
:10180800DFCFE7FF094A0A2A074A082A0506D8A0AF
:1018180006060528D8B40628D8B41200E9D730C07F
:1018280036F02FC035F02EC034F02DC033F00ED076
:1018380035C0D9FF36C0DAFF33C0E1FF34C0E2FF5C
:10184800DFCFE7FF354A362A334A342A3106D8A093
:1018580032063128D8B43228D8B41200E9D70001AA
:101868000001D1511E0AD211D8B4120000010001A2
:10187800D1511F0AD211D8A4120000010001D3517E
:1018880000010001D525D96E00010001D4510001E5
:101898000001D621DA6E000EDF6E1200E8CF2DF0BF
:1018A800C7B4120020EE0AF04E50D9264F50DA2263
:1018B8002DC0DFFF20EE0BF04E50D9264F50DA2214
:1018C800000EDF6EC58020EE0DF04E50D9264F5029
:1018D800DA22100EDF6E1200E8CFCFF0000100010F
:1018E800CF517E0BCD6E00010001CFAD02D0CD8E61
:1018F80001D0CD9E000ECF6E000ECE6E9E900001E0
:101908000001CFAF02D09D8001D09D90CD80120004
:10191800E8CFE5F00101010E00010001DA6F0101D5
:10192800000E00010001D96FE5C0DBF0A2C1DCF0B8
:1019380001010001A4C1DEF001010001A3C1DDF035
:10194800D1EC06F01200000120EE35F00001CF5175
:10195800D9260001D051DA22DF500001D16F0001F1
:10196800D1510D0DF35000010001CF25D96EF4506F
:1019780000010001D021DA6EDF501200E8CFD0F06C
:1019880094869488D0C0C8FF000EC76E000EC66E3D
:10199800000EC56E0E0EC612C78E9486948800017E
:1019A800CF6F020E4D6E0001CF51C580C68A12005E
:1019B800316E320E326E3150000E2E6E000E2D6ECC
:1019C800D5EC0DF04A504910D8A41200000E4A6E0A
:1019D800010E496E4D0E8FEC0BF0060E52EC0CF01A
:1019E8001200F2AC05D0000E306E000E2F6E120001
:1019F800DEEC0DF02E502D10D8B405D0000E306E50
:101A0800000E2F6E1200000E306E010E2F6E1200A7
:101A1800E8CFCFF000010001CF517F0BD56E000E4B
:101A2800D76E000ED66EF29400010001CFAF02D03F
:101A3800F28A01D0F29AD58E1200E8CF1AF000018E
:101A4800000E0C6E0001800E0B6E1AC00DF017C050
:101A58000EF019C010F018C00FF053EC07F0120088
:101A6800E8CF46F00101010E386E01016C0E376EA9
:101A780046C039F043C03AF045C03CF044C03BF0A2
:101A8800A8EC07F0120020EE35F02D50D9262E5084
:101A9800DA22DF502F6E2F500D0DF3502D24D96E02
:101AA800F4502E20DA6EDF5012000001D0C051F041
:101AB8000001CFC050F020EE04F05050D92651500C
:101AC800DA22000EDF6E1200F20E4C16ABAC03D019
:101AD8004C90ABB04C80ABB44C84ABB24C86AECF20
:101AE80001F00150120006D0E6EC02F012005DECA5
:101AF80000F012004D50010AD8B4F6D7030AD8A452
:101B08001200F5D7CCEC0DF001C005F002C006F0CC
:101B1800000E026E000E016EC3EC0DF01200E8CF4D
:101B2800CFF0FA0E00F0E82EFDD700010001CF2F0C
:101B3800F8D71200E8CFCFF0ACAC03D0AC904CB2E1
:101B4800AC80CFC0ADFF120000010001D6C0D8F0B4
:101B580000010001D5C0D7F01200CFC0D9FFD0C016
:101B6800DAFF000EDE6E000EDD6E1200000EF2AE21
:101B7800010E00010001CF6F0001D06B120001C0FF
:101B880003F002C004F004C0CFFF03C0CEFF120070
:101B9800CECF03F0CFCF04F003C001F004C002F0B1
:101BA80012002DC02FF02EC030F030C0D7FF2FC04C
:101BB800D6FF1200000EF2AE010E2D6E2E6A120034
:101BC800D08EF28EF28C1200D38E03001200170012
:067FF80080F4C5FFFFF15B
:00000001FF
