:040000005BEF00F0C2
:0C000800FACF97F0FBCF98F00CEF0EF051
:10001800D8CF21F0E8CF22F0E0CF23F0FACF24F0B8
:10002800FBCF25F0E9CF26F0EACF27F0E1CF28F083
:10003800E2CF29F0D9CF2AF0DACF2BF0F3CF2CF08A
:10004800F4CF2DF0F6CF2EF0F7CF2FF0F8CF30F019
:10005800F5CF31F09EA003D09E903BEC11F09EAA04
:1000680003D09E9A6BEC0FF031C0F5FF30C0F8FF5B
:100078002FC0F7FF2EC0F6FF2DC0F4FF2CC0F3FFF2
:100088002BC0DAFF2AC0D9FF29C0E2FF28C0E1FF50
:1000980027C0EAFF26C0E9FF25C0FBFF24C0FAFFFE
:1000A80023C0E0FF22C0E8FF21C0D8FF100099EF6D
:1000B8000FF000018C6F000E00010001966F000127
:1000C8008C5100018C6F000E00010001916F00013E
:1000D8008C5100018C6F000E00010001956F00012A
:1000E8008C5100018C6F000E00010001946F00011B
:1000F8008C5100018C6F000E00010001926F00010D
:100108008C51C6AC29D0C69C000120EE19F0000124
:10011800C951D9260001CA51DA22050EDF6E000145
:100128008C6F010E00010001926F00018C510001DB
:1001380020EE1BF00001C951D9260001CA51DA226C
:10014800DF2A000120EE1AF00001C951D92600016A
:10015800CA51DA22040EDF6EC7A00AD0C9CF93F0C5
:1001680000018C6F010E00010001966F00018C5197
:10017800000100019267CED1B7D1C7A6CBD100014B
:1001880000019651AAEC0CF0000120EE19F00001D4
:10019800C951D9260001CA51DA22080EDF62BAD144
:1001A80000018C6F000E00010001966F00018C5158
:1001B80000018C6F010E00010001946F87D1C7A860
:1001C80030D0000120EE18F00001C951D9260001F5
:1001D800CA51DA22DF2A000100019651D8B479D138
:1001E800C7BA09D000018C6F010E00010001956F9C
:1001F80000018C516ED1000120EE1BF00001C951A5
:10020800D9260001CA51DA22DF2A000120EE1AF0AD
:100218000001C951D9260001CA51DA22060EDF6E43
:1002280058D1000100019651D8B474D1000120EED4
:1002380018F00001C951D9260001CA51DA22DF2A73
:10024800C7BA19D0C7B40BD0000120EE19F00001CD
:10025800C951D9260001CA51DA22070E76D0000109
:1002680020EE19F00001C951D9260001CA51DA223D
:10027800080EDF6E1DD1000120EE1BF00001C951F0
:10028800D9260001CA51DA22DF2A000120EE19F02E
:100298000001C951D9260001CA51DA22050EDF6EC4
:1002A800000120EE1AF00001C951D9260001CA51F7
:1002B800DA22060E4AD0000120EE33F00001C951BF
:1002C800D9260001CA51DA22DF5000018C6F0001E3
:1002D80020EE32F00001C951D9260001CA51DA22B4
:1002E800DF5000018C5DD8B0F4D0000120EE33F06F
:1002F8000001C951D9260001CA51DA22DF50000194
:100308008C6F00018C51010D1C0EF326000EF42297
:10031800F35000010001C925D96EF4500001000115
:10032800CA21DA6EDF50C96E000120EE33F00001F9
:10033800C951D9260001CA51DA22DF2A00018C6F7F
:10034800010E00010001916FC1D0DF6EE3D0C7A894
:1003580062D0000120EE18F00001C951D926000131
:10036800CA51DA22DF2A000100019651D8B44AD0D6
:10037800C7AA27D0000120EE16F00001C951D926DE
:100388000001CA51DA22DF5000018C6F00018C5144
:10039800010DF35000010001C925D96EF450000188
:1003A8000001CA21DA6E000193C0DFFF000120EED0
:1003B80016F00001C951D9260001CA51DA22DF2AF4
:1003C80088D0000120EE1BF00001C951D926000198
:1003D800CA51DA22DF2A000120EE1AF00001C951C1
:1003E800D9260001CA51DA22060EDF6E000120EE7E
:1003F80019F00001C951D9260001CA51DA22050EA7
:10040800DF6E67D000018C6F010E00010001956F4F
:1004180000018C515ED0000100019651D8B47AD009
:10042800000120EE18F00001C951D9260001CA5177
:10043800DA22DF2AC7AA27D0000120EE16F0000131
:10044800C951D9260001CA51DA22DF5000018C6F48
:1004580000018C51010DF35000010001C925D96E2E
:10046800F45000010001CA21DA6E000193C0DFFFD9
:10047800000120EE16F00001C951D9260001CA5129
:10048800DA22DF2A47D0C7A4B6D6000120EE19F039
:100498000001C951D9260001CA51DA22080EDF6EBF
:1004A80000018C6F010E00010001956F00018C5155
:1004B80000018C6F010E00010001946F00018C5146
:1004C80000018C6F000E00010001966F00018C5135
:1004D80021D0000120EE19F00001C951D9260001F0
:1004E800CA51DA22050E31D7000120EE19F00001B9
:1004F800C951D9260001CA51DA22DF50050AD8B4F9
:100508003CD6030AD8B45BD6010AD8B420D70F0A60
:10051800D8B4D1D600010001966705D000010001CA
:100528009151D8B402D0C6A8C688000120EE16F0B2
:100538000001C951D9260001CA51DA22140EDF641C
:1005480024D000010001956720D0000120EE19F0A9
:100558000001C951D9260001CA51DA22050EDF6E01
:10056800000120EE1BF00001C951D9260001CA5133
:10057800DA22DF2A000120EE1AF00001C951D9263B
:100588000001CA51DA22070EDF6E00010001955101
:10059800D8B444D0000120EE18F00001C951D92682
:1005A8000001CA51DA22000110EE16F00001C9510B
:1005B800E1260001CA51E222E75000018C6F0001D8
:1005C8008C51010DF35000010001C925E16EF45072
:1005D80000010001CA21E26EDFCFE7FF00018C6F46
:1005E800300E3D6E00018C510001CAC03FF0000181
:1005F800C9C03EF0000120EE16F00001C951D9260D
:100608000001CA51DA22DF5000018D6F00018D29E7
:1006180022EC11F0000120EE16F045D0000120EE8A
:100628001BF00001C951D9260001CA51DA22DF5056
:10063800D8B441D0000120EE1BF00001C951D926E1
:100648000001CA51DA22DF50000100018E6F00015B
:1006580020EE1AF00001C951D9260001CA51DA2248
:10066800DF50000100018F6F000120EE18F000013B
:10067800C951D9260001CA51DA22DF500001000110
:10068800906F00018C6F290E3D6E00018C510001A6
:10069800000E3F6E00018E0E3E6E030E22EC11F02E
:1006A800000120EE1BF00001C951D9260001CA51F2
:1006B800DA22000EDF6E000100019451D8B4120056
:1006C800000E336E000E326E160E43EC08F0000179
:1006D8008C6F000E00010001946F00018C51120014
:1006E80068D2000120EE19F00001C951D926000195
:1006F800CA51DA22110EDF6E000120EE34F000013B
:10070800C951D9260001CA51DA22DF5000018C6F85
:100718000001D8908C35FE0BC96E1200C5BC74D090
:10072800000120EE33F00001C951D9260001CA5159
:10073800DA22DF5000018C6F000120EE32F0000158
:10074800C951D9260001CA51DA22DF5000018C5D57
:10075800D8B035D0000120EE33F00001C951D926B8
:100768000001CA51DA22DF5000018C6F00018C5160
:10077800010D1C0EF326000EF422F35000010001B7
:10078800C925D96EF45000010001CA21DA6EDF5084
:10079800C96E000120EE33F00001C951D9260001CD
:1007A800CA51DA22DF2A000120EE19F00001C951EE
:1007B800D9260001CA51DA22120EDF6E120000019A
:1007C8008C6F2B0E3D6E00018C51000E3F6E000E9B
:1007D8003E6E000E22EC11F0000120EE32F0000116
:1007E800C951D9260001CA51DA22000EDF6E000174
:1007F80020EE19F00001C951D9260001CA51DA22A8
:10080800050EDF6EC584120000018C6F2C0E3D6E44
:1008180000018C51000E3F6E000E3E6E000E22EC61
:1008280011F0000120EE19F00001C951D92600018C
:10083800CA51DA22050EDF6EC5841200C5AC0DD090
:10084800000120EE19F00001C951D9260001CA5152
:10085800DA22130EDF6EC584120000018C6F2C0E95
:100868003D6E00018C51000E3F6E000E3E6E000E74
:1008780022EC11F0000120EE19F00001C951D9262F
:100888000001CA51DA22050EDF6EC584120000018C
:100898008C6F2B0E3D6E00018C51000E3F6E000ECA
:1008A8003E6E000E22EC11F0000120EE19F000015E
:1008B800C951D9260001CA51DA22050EDF6E12008D
:1008C800C5BC17D0000120EE19F00001C951D92686
:1008D8000001CA51DA22140EDF6E000120EE34F056
:1008E8000001C951D9260001CA51DA22DF50C96E68
:1008F800120000018C6F2E0E3D6E00018C51000E0F
:100908003F6E000E3E6E000E22EC11F0000120EE4C
:1009180019F00001C951D9260001CA51DA22050E81
:10092800DF6EC5841200C5BC22D0000120EE19F08C
:100938000001C951D9260001CA51DA22150EDF6E0D
:10094800000120EE32F00001C951D9260001CA5138
:10095800DA22000EDF6E000120EE1CF00001C95102
:10096800D9260001CA51DA22DF50C96E12000001EF
:100978008C6F2E0E3D6E00018C51000E3F6E000EE6
:100988003E6E000E22EC11F0000120EE19F000017D
:10099800C951D9260001CA51DA22050EDF6EC58475
:1009A8001200C5BC0DD0000120EE19F00001C9519C
:1009B800D9260001CA51DA22200EDF6EC582120044
:1009C80000018C6F2E0E3D6E00018C51000E3F6EA3
:1009D800000E3E6E000E22EC11F0000120EE19F020
:1009E8000001C951D9260001CA51DA22050EDF6E6D
:1009F800C5841200000120EE19F00001C951D92662
:100A08000001CA51DA22210EDF6E000120EE34F017
:100A18000001C951D9260001CA51DA22DF50010963
:100A2800C96E1200C5BC0DD0000120EE19F00001FE
:100A3800C951D9260001CA51DA22220EDF6EC586B5
:100A4800120000018C6F2E0E3D6E00018C51000EBD
:100A58003F6E000E3E6E000E22EC11F0000120EEFB
:100A680019F00001C951D9260001CA51DA22050E30
:100A7800DF6EC5841200C7A01200000120EE19F035
:100A88000001C951D9260001CA51DA22230EDF6EAE
:100A9800000120EE17F00001C951D9260001CA5102
:100AA800DA22DF5000018C6F00018C51010DF350E8
:100AB80000010001C925D96EF45000010001CA21C6
:100AC800DA6EC9CFDFFF000120EE17F00001C9512F
:100AD800D9260001CA51DA22DF2A000120EE17F0D8
:100AE8000001C951D9260001CA51DA22DF5000019C
:100AF8008C6F000120EE16F00001C951D9260001C3
:100B0800CA51DA22DF5000018C5DD8B003D0C59AF3
:100B1800C5881200C58AC5881200000120EE17F0AA
:100B28000001C951D9260001CA51DA22DF5000015B
:100B38008C6F000120EE16F00001C951D926000182
:100B4800CA51DA22DF5000018C5DD8B00DD0000107
:100B580020EE19F00001C951D9260001CA51DA2244
:100B6800220EDF6EC586120000018C6F2D0E3D6EC1
:100B780000018C510001CAC03FF00001C9C03EF01D
:100B8800000120EE16F00001C951D9260001CA5112
:100B9800DA22DF5022EC11F0000120EE19F00001FA
:100BA800C951D9260001CA51DA22050EDF6EC58463
:100BB8001200000120EE19F00001C951D9260001E8
:100BC800CA51DA22DF50090AD8B48BD5190AD8B429
:100BD80077D6010AD8B4A2D5030AD8B42FD6010A09
:100BE800D8B455D6070AD8B49ED6010AD8B4D9D6EF
:100BF800350AD8B4FFD6010AD8B414D7030AD8B432
:100C08003AD7010AD8A4120088D7820ED36E9B8CDB
:100C18000101010E00010001A66F01011E0E000175
:100C28000001A56F6AEC11F00101010E000100013D
:100C3800A66F0101370E00010001A56F43EC0CF00F
:100C48000101010E00010001A66F01011A0E000149
:100C58000001A56FE2EC11F005EC0FF0000E936EA9
:100C6800000E8A6E9F909F9A9F869E0ED0EC10F081
:100C78009D86000E00010001A66F260E0001A56FDB
:100C88006C0EC3EC0DF015EC12F04DEC0EF00101FA
:100C9800010E00010001BE6F0101360E00010001C6
:100CA800BD6F0101010E00010001C06F0101000EBE
:100CB80000010001BF6F160E4EEC10F0010101019A
:100CC800356F0101010135BF9AD084D00101010EB1
:100CD80000010001A66F0101180E00010001A56FB7
:100CE8000101000136C1A7F000010001A86B010154
:100CF8000101355100010001A96F0001AA6B000133
:100D0800A9BFAA070101010E00010001AC6F010192
:100D1800000E00010001AB6FD9EC11F070D000C1DA
:100D280017F16DD00101010E00010001A66F01014C
:100D3800000E00010001A56F01010101355156ECBB
:100D480007F05DD00101000136C1BFF000010001CC
:100D5800C06B01010101355100010001C16F0001A3
:100D6800C26B0001C1BFC2070101010E00010001F1
:100D7800C46F0101000E00010001C36F4BEC0AF0C3
:100D88003ED00101010E00010001A76F01011C0EF8
:100D980000010001A66F0101000136C1A8F00001A1
:100DA8000001A96B01010101355100010001AA6F81
:100DB8000001AB6B0001AABFAB070101010E0001E6
:100DC8000001AD6F0101000E00010001AC6F0EECD7
:100DD8000DF015D00101010136510A0AD8B476D7B1
:100DE800220AD8B40CD0010AD8B499D7030AD8B4C7
:100DF80099D7050AD8B4C5D71F0AD8B4A3D7010113
:100E0800010E00010001BE6F0101360E0001000154
:100E1800BD6F0101010E00010001C06F0101000E4C
:100E280000010001BF6F160E2DEC10F00101010149
:100E3800356F0101010135BF28D729D00101010E05
:100E480000010001A76F01011C0E00010001A66F3F
:100E58000101000136C1A8F000010001A96B0101E0
:100E68000101355100010001AA6F0001AB6B0001BF
:100E7800AABFAB070101010E00010001AD6F01011E
:100E8800000E00010001AC6F0EEC0DF0FED6010162
:100E9800010136511E0AD8B4D1D7010AD8B4CED729
:100EA8002D0AF3D6E8CFAAF0000120EE32F00001B7
:100EB800C951D9260001CA51DA22000EDF6E9DD031
:100EC800000120EE32F00001C951D9260001CA51B3
:100ED800DA22DF500001A76F000120EE4BF000017D
:100EE800C951D9260001CA51DA22DF500001A75D95
:100EF800D8B02CD0000120EE32F00001C951D9261B
:100F08000001CA51DA22DF500001A76F0001A75182
:100F1800010D350EF326000EF422F35000010001F6
:100F2800C925D96EF45000010001CA21DA6E00010A
:100F380010EE32F00001C951E1260001CA51E22247
:100F4800E7500001A86F0001A8513CD0000120EE35
:100F58004BF00001C951D9260001CA51DA22DF50ED
:100F6800D8B40BD0000120EE4BF00001C951D926AE
:100F78000001CA51DA22DF5003D000010001AA5152
:100F88000001A76FA86B340E0001A727000EA82345
:100F98000001A75100010001C925D96E0001A8511F
:100FA80000010001CA21DA6E000110EE32F00001E2
:100FB800C951E1260001CA51E222E7500001A96F98
:100FC8000001A951010D1C0EF326000EF422F35066
:100FD80000010001C925E16EF45000010001CA2199
:100FE800E26EDFCFE7FF000120EE32F00001C951C9
:100FF800D9260001CA51DA22DF2A000120EE32F098
:101008000001C951D9260001CA51DA22DF50000176
:10101800A76F00010001AA510001A75DD8A050D711
:10102800000120EE4BF00001C951D9260001CA5138
:10103800DA22000EDF6E000120EE32F00001C95105
:10104800D9260001CA51DA220001AAC0DFFF000137
:1010580020EE33F00001C951D9260001CA51DA2225
:10106800010EDF6E000120EE1CF00001C951D926E7
:101078000001CA51DA22DF50C96EC6881200E8CFD3
:1010880037F0000120EE32F00001C951D9260001E5
:10109800CA51DA22000EDF6E8FD0000120EE32F046
:1010A8000001C951D9260001CA51DA22DF50346E35
:1010B800000120EE4BF00001C951D9260001CA51A8
:1010C800DA22DF50345CD8B028D0000120EE32F0AC
:1010D8000001C951D9260001CA51DA22DF50346E05
:1010E8003450010D350EF326000EF422F3500001A2
:1010F8000001C925D96EF45000010001CA21DA6E39
:10110800000110EE32F00001C951E1260001CA5178
:10111800E222E750356E355034D0000120EE4BF016
:101128000001C951D9260001CA51DA22DF50D8B4CA
:101138000BD0000120EE4BF00001C951D926000167
:10114800CA51DA22DF5001D03750346E356A340E76
:101158003426000E3522345000010001C925D96E0D
:10116800355000010001CA21DA6E000110EE32F09C
:101178000001C951E1260001CA51E222E750366E4A
:101188003650010D1C0EF326000EF422F350000118
:101198000001C925E16EF45000010001CA21E26E88
:1011A800DFCFE7FF000120EE32F00001C951D92658
:1011B8000001CA51DA22DF2A000120EE32F00001D4
:1011C800C951D9260001CA51DA22DF50346E37508E
:1011D800345CD8A062D7000120EE4BF00001C95161
:1011E800D9260001CA51DA22000EDF6E000120EE76
:1011F80032F00001C951D9260001CA51DA2237C09C
:10120800DFFF000120EE33F00001C951D9260001AB
:10121800CA51DA22010EDF6E000120EE1CF0000137
:10122800C951D9260001CA51DA22DF50C96EC688D1
:101238001200000120EE65F00001AF51D92600012F
:10124800B051DA22DF5000010001B86F000100013F
:10125800B851190DF35000010001AF25000100013C
:10126800BB6FF45000010001B0210001BC6F010EFA
:10127800BBC0D9FFBCC0DAFFDF6274D0000120EE2A
:1012880001F00001BB51D9260001BC51DA22DF5020
:1012980000010001B15DD8B002D0FD0E12000001BE
:1012A80020EE01F00001BB51D9260001BC51DA2221
:1012B800DF500001B66F0001B65100010001B96F9F
:1012C8000001BA6B00010001B5C0A6F000010001E1
:1012D800B4C0A5F0030E00010001BB250001B66FE4
:1012E800000E00010001BC210001B76FB6C0A7F0D5
:1012F800B7C0A8F0B9C0A9F0BAC0AAF03CEC0FF08A
:10130800000120EE65F00001AF51D9260001B0516F
:10131800DA22000110EE65F00001AF51E12600016C
:10132800B051E222E7500001B66F0001B629030B65
:10133800DF6E000120EE02F00001BB51D92600014A
:10134800BC51DA22B2C0E1FFB3C0E2FFDFCFE7FF52
:10135800BBC0D9FFBCC0DAFF000EDF6E0001000180
:10136800B9511200FC0E1200000120EE65F00001D8
:101378008051D92600018151DA22DF500001000195
:10138800876F000100018751190DF350000100011A
:101398008025000100018A6FF450000100018121BD
:1013A80000018B6F010E8AC0D9FF8BC0DAFFDF62A4
:1013B8006CD0000120EE01F000018A51D92600010D
:1013C8008B51DA22DF5000010001825DD8B002D0D3
:1013D800FD0E1200000120EE01F000018A51D9260D
:1013E80000018B51DA22DF503C6E3C5000010001B5
:1013F800886F0001896B000186C033F0000185C049
:1014080032F0030E000100018A253C6E000E000137
:1014180000018B213D6E3CC034F03DC035F088C0E2
:1014280036F089C037F0B0EC10F0000120EE65F01E
:1014380000018051D92600018151DA22000110EE05
:1014480065F000018051E12600018151E222E75058
:101458003C6E3C28030BDF6E000120EE02F0000119
:101468008A51D92600018B51DA2283C0E1FF84C05A
:10147800E2FFDFCFE7FF8AC0D9FF8BC0DAFF000E9B
:10148800DF6E0001000188511200FC0E120075D0B9
:10149800C3C0D9FFC4C0DAFFDF5000010001CC6F20
:1014A8003ED00001C56FDF0E03D00001C56FAF0E3F
:1014B80000010001C76F0001C5510001C56F1F0E73
:1014C8001CD00001C56F000E00010001C76F0001AC
:1014D800C5510001C56F000E10D00001C56FC60EC2
:1014E80000010001C76F0001C5510001C56F360E2C
:1014F80004D00001C56F460E09D000010001C86F75
:101508000001C55124D00001C56F360E000100014D
:10151800C76F0001C5510001C56FB60EEED7C3C035
:10152800D9FFC4C0DAFFDF50010AD8B4BAD7030A1A
:10153800D8B4B7D7010AD8B4B8D7070AD8B4C1D72E
:10154800010AD8B4CAD7030AD8B4D3D7DCD7000164
:10155800C56F2F0E00010001BB6F0001C5510001CE
:10156800000E00010001BD6F0001C70E000100015F
:10157800BC6F020EECEC10F012000001BFC0C5F009
:101588000001C0C0C6F00001C651000AD8A412006C
:101598000001C551300AD8A412007AD70001000111
:1015A800B1C0B6F000010001B76B000120EE64F095
:1015B8000001AF51D9260001B051DA22DF500001F5
:1015C8000001B86F00010001B851190DF350000176
:1015D8000001AF2500010001B96FF45000010001BE
:1015E800B0210001BA6FB9C0D9FFBAC0DAFFDF5025
:1015F800D8B402D0FF0E1200000120EE01F0000165
:10160800B951D9260001BA51DA220001B1C0DFFF71
:10161800000120EE02F00001B951D9260001BA51AB
:10162800DA220001B2C0DFFF030E00010001B92574
:1016380000010001A56F000E00010001BA210001A0
:10164800A66F00010001B4C0A8F000010001B3C0FA
:10165800A7F0B6C0A9F0B7C0AAF03CEC0FF00001A3
:1016680020EE64F00001AF51D9260001B051DA2212
:10167800000110EE64F00001AF51E1260001B05105
:10168800E222E7500001B56F0001B529030BDF6EB8
:10169800B9C0D9FFBAC0DAFF010EDF6E010E120021
:1016A8000001000182C086F000010001876B000183
:1016B80020EE64F000018051D92600018151DA2220
:1016C800DF5000010001886F000100018851190DE9
:1016D800F35000010001802500010001896FF450DA
:1016E80000010001812100018A6F89C0D9FF8AC0E9
:1016F800DAFFDF50D8B402D0FF0E1200000120EE4E
:1017080001F000018951D92600018A51DA2200012D
:1017180082C0DFFF000120EE02F000018951D926C6
:1017280000018A51DA22000183C0DFFF030E0001A5
:1017380000018925326E000E000100018A21336EF6
:10174800000185C035F0000184C034F086C036F051
:1017580087C037F0B0EC10F0000120EE64F0000113
:101768008051D92600018151DA22000110EE64F07F
:1017780000018051E12600018151E222E7503C6ED0
:101788003C28030BDF6E89C0D9FF8AC0DAFF010E3F
:10179800DF6E010E120065D01B6E010E4B6E1B50E2
:1017A800000E436E000E426E000E456E000E446E33
:1017B800000E476E000E466E1200FF0E1B6EFF0EE7
:1017C8001C6E20EE16F04D50D9264E50DA22DF500E
:1017D8001D6E1E6A1B501D261C501E221D504D24B6
:1017E800D96E1E504E20DA6EDF501F6E0F0E1F1678
:1017F8001F50446E456A1B6E020E4B6E1B50120042
:10180800010E42241B6E000E43201C6E1C50800AE1
:101818001D6E44501B5C4550800A1D58D8B003D03B
:10182800424A432A12001B6E030E4B6E1B501200D5
:101838001B6E320E176E1B504EC019F04DC018F0BB
:101848004450030F7FEC11F020EE16F04D50D926CE
:101858004E50DA22000EDF6E1B6E000E4B6E1B50D0
:1018680012004B50000AD8B497D7010AD8B4A5D7AC
:10187800030AD8B4C5D7010AD8A41200D9D70001E1
:101888000001A6C0CAF000010001A5C0C9F0C9C086
:10189800D9FFCAC0DAFF000EDF6E000120EE01F0AA
:1018A8000001C951D9260001CA51DA22000EDF6EA3
:1018B800000120EE02F00001C951D9260001CA51E9
:1018C800DA22000EDF6E000120EE16F00001C95189
:1018D800D9260001CA51DA22000EDF6E000120EE7F
:1018E80018F00001C951D9260001CA51DA22000EA8
:1018F800DF6E000120EE19F00001C951D926000160
:10190800CA51DA22050EDF6E000120EE1BF000013D
:10191800C951D9260001CA51DA22000EDF6E000132
:1019280020EE4CF00001C951D9260001CA51DA2233
:10193800000EDF6E000120EE4BF00001C951D926E0
:101948000001CA51DA22000EDF6E1200E8CF32F031
:10195800000120EE18F00001C951D9260001CA5132
:10196800DA22010EDF6E000120EE16F00001C951E7
:10197800D9260001CA51DA22000EDF6E3250D8B4DF
:101988003DD0C7AA21D0000120EE19F00001C951AD
:10199800D9260001CA51DA22050EDF6E000120EEB9
:1019A8001BF00001C951D9260001CA51DA22DF2AE9
:1019B800000120EE1AF00001C951D9260001CA51D0
:1019C800DA22050EDF6E1200C7A40CD0000120EE4B
:1019D80019F00001C951D9260001CA51DA22080EAE
:1019E800DF6E1200000120EE19F00001C951D9265E
:1019F8000001CA51DA22070EDF6E1200000120EE44
:101A080019F00001C951D9260001CA51DA22060E7F
:101A1800DF6E120000010001A8511E0AA911D8B4F6
:101A2800120000010001A8511F0AA911D8A411D061
:101A380000010001AA5100010001AC25D96E000186
:101A48000001AB5100010001AD21DA6E000EDF6E1E
:101A5800120000010001A8512F0AA911D8A41200F0
:101A6800000E00010001B06F000E0001AF6F000E04
:101A780000010001B06F000E0001AF6F17D0ACA2DB
:101A8800FED700010001AF5100010001AC25D96E5D
:101A980000010001B05100010001AD21DA6EDF50F4
:101AA800CFEC11F000010001AF4BB02B0001000199
:101AB800B051800A0001AE6F0001AA510001000177
:101AC800AF5D00010001AB51800A0001AE59D8B0EA
:101AD8001200D5D70DC012F0136A20EE64F00B5037
:101AE800D9260C50DA22DF50146E1450190DF35019
:101AF8000B24156EF4500C20166E15C0D9FF16C0B5
:101B0800DAFFDF50D8B402D0FF0E120020EE01F049
:101B18001550D9261650DA220DC0DFFF20EE02F04C
:101B28001550D9261650DA220EC0DFFF030E1524F1
:101B3800016E000E1620026E10C004F00FC003F0F4
:101B480012C005F013C006F090EC10F020EE64F01F
:101B58000B50D9260C50DA2210EE64F00B50E12617
:101B68000C50E222E750116E1128030BDF6E15C0EE
:101B7800D9FF16C0DAFF010EDF6E010E1200E8CFA2
:101B8800AAF0000EAC6E000EAB6E00010001AAB107
:101B9800AC8800010001AAA302D0AC8CAB8C000178
:101BA8000001AAB5AC8E00010001AAA702D0AB883B
:101BB80001D0AB8A00010001AAB9AC849E9800014B
:101BC8000001AABBAB8600010001AAAD02D09D8A24
:101BD80001D09D9A9E9A00010001AAAF02D09D886B
:101BE80001D09D98A5C0AFFF0001A6C0A7F0A7C06F
:101BF800A8F00001A96B0001A851B06EAC8AAB8EA9
:101C0800949C948EACA81200ACBE1200948C120066
:101C1800E9CF99F0EACF9AF0E1CF9BF0E2CF9CF0C0
:101C2800D9CF9DF0DACF9EF0F3CF9FF0F4CFA0F09C
:101C3800F6CFA1F0F7CFA2F0F8CFA3F0F5CFA4F03C
:101C48009EA603D09E96A4EC11F0F2A403D0F294C1
:101C5800C9EC0EF0C1EC0FF0A4C0F5FFA3C0F8FF6B
:101C6800A2C0F7FFA1C0F6FFA0C0F4FF9FC0F3FF1A
:101C78009EC0DAFF9DC0D9FF9CC0E2FF9BC0E1FF78
:101C88009AC0EAFF99C0E9FF98C0FBFF97C0FAFF26
:101C980011000BEC10F000010001AA510001A9117C
:101CA800D8B412000001AB6F010E4A6E0001AB51AF
:101CB8000101010E00010001A66F0101840E00015F
:101CC8000001A56F07EC11F00009D8B407D0000196
:101CD800AB6F000E4A6E0001AB5112000201020EFA
:101CE80000010001A66F0201660E00010001A56F48
:101CF80007EC11F00009D8B407D00001AB6F000E53
:101D08004A6E0001AB5112000A0EC4EC11F0D0D794
:101D1800000120EE64F00001A551D9260001A6516A
:101D2800DA22000EDF6E000120EE65F00001A551F9
:101D3800D9260001A651DA22000EDF6E0001A76F36
:101D4800000E00010001A86F0001A751030E000159
:101D58000001A86501D0120000010001A851190D69
:101D6800F35000010001A525D96EF45000010001CF
:101D7800A621DA6E000EDF6E00010001A82B030E0B
:101D880000010001A865E8D71200000E336E000EAE
:101D9800326E06EC12F00001000E000100018D6F9A
:101DA8000001930E000100018C6F0001000E00017C
:101DB80000018F6F0001950E000100018E6F020E69
:101DC8006FEC10F000010001916F0001926B0001AF
:101DD80091BF9207000100019151020A9211D8A403
:101DE80012000001906F0A0E3D6E00019051000133
:101DF800000E3F6E0001950E3E6E020E22EC11F0B1
:101E080012000001A96F000E4A6E0001A9510201DB
:101E1800020E00010001A66F0201660E000100011A
:101E2800A56F8CEC0EF00101010E00010001A66FF8
:101E38000101840E00010001A56F8CEC0EF0020177
:101E4800020E00010001A66F0201000E0001000150
:101E5800A56F8CEC0EF00301030E00010001A66FC4
:101E68000301000E00010001A56F8CEC0EF01200BA
:101E780000010001A8C0AEF000010001A7C0ADF04C
:101E880000010001A6C0ACF000010001A5C0ABF044
:101E980012D0ADC0D9FFAEC0DAFFABC0E1FFACC015
:101EA800E2FFDFCFE7FF00010001AD4BAE2B0001E1
:101EB8000001AB4BAC2B00010001A907D8A0AA0771
:101EC8000001A929D8B4AA29D8B41200E2D79EAA39
:101ED8001CD020EE16F04D50D9264E50DA22DF5095
:101EE800206E2050010DF3504D24D96EF4504E2031
:101EF800DA6EB5EC11F0DF6E20EE16F04D50D926F3
:101F08004E50DA22DF2ACFEC0BF04CA61200AB9829
:101F1800AB88206E1E0E176E2050000E196E000E34
:101F2800186E000E7FEC11F0120003EE00F0660E42
:101F3800EE6AE806FDE102EE00F0CC0EEE6AE80675
:101F4800FDE101EE84F0660EEE6AE806FDE10001AF
:101F5800CB6B00EE40F00D0EEE6AE806FDE1380EA0
:101F6800F66E240EF76E000EF86E0900F5CFCCF071
:101F7800000EF86E000109EF06F04A6601D0120063
:101F880053EC11F035503410D8A412000FEC12F0B5
:101F980033503210D8B412000101010E336E010122
:101FA800840E326E92EC11F00009D8A412000201DE
:101FB800020E336E0201660E326E92EC11F00009C9
:101FC800D8B419EC12F01200F2AC08D0000E0001DF
:101FD8000001A86F000E0001A76F1200EBEC11F0D2
:101FE80000010001A6510001A511D8B408D0000EC7
:101FF80000010001A86F000E0001A76F1200000E7B
:1020080000010001A86F010E0001A76F1200E8ECA3
:102018000FF000010001A8510001A711D8A411D0A8
:10202800EBEC11F000010001A6510001A511D8A4A4
:1020380008D0000E00010001AA6F010E0001A96F6F
:102048001200000E00010001AA6F000E0001A96F26
:102058001200E8CFC1F00201020E00010001B06FCA
:102068000201660E00010001AF6FC1C0B1F00001AE
:102078000001BEC0B3F000010001BDC0B2F0000114
:102088000001C0C0B5F000010001BFC0B4F01DECF4
:1020980009F01200E8CFC1F00101010E00010001B2
:1020A800B06F0101840E00010001AF6FC1C0B1F033
:1020B80000010001BEC0B3F000010001BDC0B2F0D4
:1020C80000010001C0C0B5F000010001BFC0B4F0BC
:1020D8001DEC09F01200E8CF3EF00301030E0001E9
:1020E8000001816F0301000E00010001806F3EC0F6
:1020F80082F0000100018DC084F0000100018CC055
:1021080083F0000100018FC086F0000100018EC03D
:1021180085F0B8EC09F0120004C00AF003C009F019
:1021280002C008F001C007F00ED009C0D9FF0AC0EC
:10213800DAFF07C0E1FF08C0E2FFDFCFE7FF094A87
:102148000A2A074A082A0506D8A006060528D8B488
:102158000628D8B41200E9D735C03BF034C03AF0AD
:1021680033C039F032C038F00ED03AC0D9FF3BC086
:10217800DAFF38C0E1FF39C0E2FFDFCFE7FF3A4AB4
:102188003B2A384A392A3606D8A037063628D8B422
:102198003728D8B41200E9D7E8CFA6F094869488F7
:1021A800A6C0C8FF000EC76E000EC66E000EC56E34
:1021B8000E0EC612C78E948694880001A56F020E73
:1021C80000010001CB6F0001A551C580C68A12002D
:1021D800E8CFBEF00101010E00010001B06F01015E
:1021E800840E00010001AF6FBEC0B1F0BBC0B2F0F9
:1021F80000010001BDC0B4F000010001BCC0B3F093
:10220800D2EC0AF01200000120EE65F00001A551A1
:10221800D9260001A651DA22DF500001A76F00017C
:10222800A751190DF35000010001A525D96EF450EE
:1022380000010001A621DA6EDF501200E8CF8BF012
:102248000101010E00010001816F0101840E0001EE
:102258000001806F8BC082F03DC083F000013FC059
:1022680085F000013EC084F054EC0BF01200FDEC48
:1022780011F001C01CF002C01DF01B6E0B0E176E92
:102288001B50000E196E000E186E000E7FEC11F038
:10229800000E026E000E016EF4EC11F01200F2ACAA
:1022A80005D0000E356E000E346E12000FEC12F0E1
:1022B80033503210D8B405D0000E356E000E346E8F
:1022C8001200000E356E010E346E12000001A6C019
:1022D8004EF00001A5C04DF020EE16F04D50D92665
:1022E8004E50DA22000EDF6E0001A76F000E4B6E13
:1022F8000001A7511200E8CF1AF00201020E0C6E7D
:102308000201660E0B6E1AC00DF017C00EF019C050
:1023180010F018C00FF06EEC0DF0120020EE65F012
:102328003250D9263350DA22DF50346E3450190D2A
:10233800F3503224D96EF4503320DA6EDF50120095
:1023480006D074EC03F012005DEC00F012000001FE
:102358000001CB51010AD8B4F4D7030AD8A412005B
:10236800F3D7F20E4C16ABAC03D04C90ABB04C800C
:10237800ABB44C84ABB24C86AECF01F00150120026
:10238800E8CFA5F0FA0E00F0E82EFDD70001000115
:10239800A52FF8D71200E8CFA5F0ACAC03D0AC90CD
:1023A8004CB2AC80A5C0ADFF120000010001ACC06A
:1023B800AEF000010001ABC0ADF01200A5C0D9FF1E
:1023C800A6C0DAFF000EDE6E000EDD6E1200000EF3
:1023D800F2AE010E00010001A56F0001A66B12000C
:1023E80001C003F002C004F004C0CFFF03C0CEFF59
:1023F8001200CECF03F0CFCF04F003C001F004C029
:1024080002F0120032C034F033C035F035C0D7FFC7
:1024180034C0D6FF1200000EF2AE010E326E336ADF
:102428001200D08EF28EF28C1200D38E03001200AE
:02243800FF00A3
:067FF80080F4C5FFFFF15B
:00000001FF
