:040000005BEF00F0C2
:0C000800FACFA5F0FBCFA6F0BBEF0EF086
:10001800D8CF22F0E8CF23F0E0CF24F0FACF25F0B4
:10002800FBCF26F0E9CF27F0EACF28F0E1CF29F07F
:10003800E2CF2AF0D9CF2BF0DACF2CF0F3CF2DF086
:10004800F4CF2EF0F6CF2FF0F7CF30F0F8CF31F015
:10005800F5CF32F09EA003D09E902CEC13F09EAA10
:1000680003D09E9A22EC11F032C0F5FF31C0F8FFA0
:1000780030C0F7FF2FC0F6FF2EC0F4FF2DC0F3FFEE
:100088002CC0DAFF2BC0D9FF2AC0E2FF29C0E1FF4C
:1000980028C0EAFF27C0E9FF26C0FBFF25C0FAFFFA
:1000A80024C0E0FF23C0E8FF22C0D8FF1000AFEF54
:1000B8000FF000019A6F000E00010001A46F00010B
:1000C8009A5100019A6F000E000100019F6F000114
:1000D8009A5100019A6F000E00010001A36F000100
:1000E8009A5100019A6F000E00010001A26F0001F1
:1000F8009A5100019A6F000E00010001A06F0001E3
:100108009A51C6AC29D0C69C000120EE0DF0000122
:10011800C851D9260001C951DA22050EDF6E000147
:100128009A6F010E00010001A06F00019A510001B1
:1001380020EE0FF00001C851D9260001C951DA227A
:10014800DF2A000120EE0EF00001C851D926000177
:10015800C951DA22040EDF6EC7A00AD0C9CFA1F0B8
:1001680000019A6F010E00010001A46F00019A516D
:1001780000010001A067CED1B7D1C7A6CBD100013D
:100188000001A451B7EC0DF0000120EE0DF00001C4
:10019800C851D9260001C951DA22080EDF62BAD146
:1001A80000019A6F000E00010001A46F00019A512E
:1001B80000019A6F010E00010001A26F87D1C7A844
:1001C80030D0000120EE0CF00001C851D926000102
:1001D800C951DA22DF2A00010001A451D8B479D12B
:1001E800C7BA09D000019A6F010E00010001A36F80
:1001F80000019A516ED1000120EE0FF00001C851A4
:10020800D9260001C951DA22DF2A000120EE0EF0BA
:100218000001C851D9260001C951DA22060EDF6E45
:1002280058D100010001A451D8B474D1000120EEC6
:100238000CF00001C851D9260001C951DA22DF2A81
:10024800C7BA19D0C7B40BD0000120EE0DF00001D9
:10025800C851D9260001C951DA22070E76D000010B
:1002680020EE0DF00001C851D9260001C951DA224B
:10027800080EDF6E1DD1000120EE0FF00001C851FD
:10028800D9260001C951DA22DF2A000120EE0DF03B
:100298000001C851D9260001C951DA22050EDF6EC6
:1002A800000120EE0EF00001C851D9260001C95105
:1002B800DA22060E4AD0000120EE1BF00001C851D8
:1002C800D9260001C951DA22DF5000019A6F0001D6
:1002D80020EE1AF00001C851D9260001C951DA22CE
:1002E800DF5000019A5DD8B0F4D0000120EE1BF079
:1002F8000001C851D9260001C951DA22DF50000196
:100308009A6F00019A51010D100EF326000EF42287
:10031800F35000010001C825D96EF4500001000116
:10032800C921DA6EDF50C96E000120EE1BF0000112
:10033800C851D9260001C951DA22DF2A00019A6F73
:10034800010E000100019F6FC1D0DF6EE3D0C7A886
:1003580062D0000120EE0CF00001C851D92600013E
:10036800C951DA22DF2A00010001A451D8B44AD0C9
:10037800C7AA27D0000120EE0AF00001C851D926EB
:100388000001C951DA22DF5000019A6F00019A5129
:10039800010DF35000010001C825D96EF450000189
:1003A8000001C921DA6E0001A1C0DFFF000120EEC3
:1003B8000AF00001C851D9260001C951DA22DF2A02
:1003C80021D0000120EE0FF00001C851D92600010C
:1003D800C951DA22DF2A000120EE0EF00001C851CF
:1003E800D9260001C951DA22060EDF6E000120EE7F
:1003F8000DF00001C851D9260001C951DA22050EB5
:10040800DF6E67D000019A6F010E00010001A36F33
:1004180000019A515ED000010001A451D8B47AD0ED
:10042800000120EE0CF00001C851D9260001C95185
:10043800DA22DF2AC7AA27D0000120EE0AF000013D
:10044800C851D9260001C951DA22DF5000019A6F3C
:1004580000019A51010DF35000010001C825D96E21
:10046800F45000010001C921DA6E0001A1C0DFFFCC
:10047800000120EE0AF00001C851D9260001C95137
:10048800DA22DF2A47D0C7A4B6D6000120EE0DF045
:100498000001C851D9260001C951DA22080EDF6EC1
:1004A80000019A6F010E00010001A36F00019A512B
:1004B80000019A6F010E00010001A26F00019A511C
:1004C80000019A6F000E00010001A46F00019A510B
:1004D80021D0000120EE0DF00001C851D9260001FD
:1004E800C951DA22050E31D7000120EE0DF00001C6
:1004F800C851D9260001C951DA22DF50050AD8B4FB
:100508003CD6030AD8B45BD6010AD8B420D70F0A60
:10051800D8B4D1D600010001A46705D000010001BC
:100528009F51D8B402D0C6A8C688000120EE0AF0B0
:100538000001C851D9260001C951DA22080EDF642A
:1005480024D000010001A36720D0000120EE0DF0A7
:100558000001C851D9260001C951DA22050EDF6E03
:10056800000120EE0FF00001C851D9260001C95141
:10057800DA22DF2A000120EE0EF00001C851D92648
:100588000001C951DA22070EDF6E00010001A351F4
:10059800D8B448D0000120EE0CF00001C851D9268B
:1005A8000001C951DA22000110EE0AF00001C85119
:1005B800E1260001C951E222E75000019A6F0001CB
:1005C8009A51010DF35000010001C825E16EF45065
:1005D80000010001C921E26EDFCFE7FF00019A6F39
:1005E800280E00010001966F00019A5100010001D8
:1005F800C9C098F000010001C8C097F0000120EEC2
:100608000AF00001C851D9260001C951DA22DF5089
:1006180000019B6F00019B2981EC12F0000120EE84
:100628000AF04BD0000120EE0FF00001C851D92686
:100638000001C951DA22DF50D8B447D0000120EEBA
:100648000FF00001C851D9260001C951DA22DF5044
:10065800000100019C6F000120EE0EF00001C8515E
:10066800D9260001C951DA22DF50000100019D6F2F
:10067800000120EE0CF00001C851D9260001C95133
:10068800DA22DF50000100019E6F00019A6F290EE7
:1006980000010001966F00019A510001000E00014F
:1006A8000001986F00019C0E00010001976F030E76
:1006B80081EC12F0000120EE0FF00001C851D9269C
:1006C8000001C951DA22000EDF6E00010001A251BB
:1006D800D8B41200000E00010001816F000E000165
:1006E8000001806F00010001CA5122EC09F00001ED
:1006F8009A6F000E00010001A26F00019A511200CA
:1007080001010101A251310AA311D8A476D1010136
:100718000001A7C1B4F001010001A6C1B3F0A4C152
:10072800B5F00FEC0AF00009D8B412004DD14D0E07
:10073800A9EC10F0070ED3EC10F05FD10001C36FE5
:10074800000E01010101CD6F0001C3510001C36F0B
:10075800000E01010101CE6F0001C3510001C36FFA
:10076800000E01010101D16F0001C3513DD000010C
:10077800C36F010E03D00001C36F020E0101010116
:10078800D06F0001C351010120EE02F00101A65112
:10079800D9260101A751DA22DF5001010101D16FE9
:1007A80041D00001C36F030E01010101D06F0001A8
:1007B800C351010120EE03F00101A651D926010120
:1007C800A751DA22DF5001010101CD6F010120EEAE
:1007D80004F00101A651D9260101A751DA22DF5000
:1007E80001010101CE6F1ED0010120EE01F00101CF
:1007F800A651D9260101A751DA22DF500F0B0001BB
:10080800C36FC46B0001C451000AD8A40BD0000107
:10081800C351000AD8B4C5D7010AD8B4A8D7030A67
:10082800D8B4A9D7D0C1A8F1D1C1A9F1CDC1AAF135
:10083800CEC1ABF10001C36F300E01010101AD6FF4
:100848000001C3510001C36F000E01010101AE6F29
:100858000001C3510001C36F000E01010101AF6F18
:100868000001C3510001C36F000E01010101B06F07
:100878000001C3510001C36F000E01010101B16FF6
:100888000001C3510001C36F300E01010101B26FB5
:100898000001C3510101010E00010001B56F010102
:1008A800AD0E00010001B46F060E19EC10F04F0EEA
:1008B800A9EC10F00101010E00010001B46F010163
:1008C800A80E00010001B36F050EE1EC0CF095D005
:1008D8000001C36F300E01010101B36F0001C35164
:1008E8000001C36F000E01010101B46F0001C35183
:1008F8000001C36F000E01010101B56F0001C35172
:100908000001C36F000E01010101B66F0001C35160
:100918000001C36F000E01010101B76F0001C3514F
:100928000001C36F300E01010101B86F0001C3510E
:100938000101010E00010001B56F0101B30E0001B4
:100948000001B46F060E19EC10F057D00001C36F08
:10095800300E01010101B96F0001C3510001C36FDD
:10096800000E01010101BA6F0001C3510001C36FFC
:10097800000E01010101BB6F0001C3510001C36FEB
:10098800000E01010101BC6F0001C3510001C36FDA
:10099800000E01010101BD6F0001C3510001C36FC9
:1009A800300E01010101BE6F0001C3510101010EAA
:1009B80000010001B56F0101B90E00010001B46F1B
:1009C800060E19EC10F019D001010001A7C1B4F00E
:1009D80001010001A6C1B3F0A4C1B5F0E6EC12F024
:1009E800000AD8B4A4D6020AD8B4A8D6010AD8B442
:1009F800ADD7070AD8B46CD7FB0A01010101A2518F
:100A0800320AA311D8A41200000E01010101CC6F13
:100A1800000E0101CB6F0001C36F000E010101013F
:100A2800CF6F0001C351010120EE06F00101A6516C
:100A3800D9260101A751DA22010EDF6208D0000190
:100A4800C36F200E01010101CF6F0001C3510101E5
:100A58000101CF51060901010101BF6FA6C1D9FFEC
:100A6800A7C1DAFFDF5001010101C06F010120EECB
:100A780001F00101A651D9260101A751DA22DF5060
:100A880001010101C16F010120EE02F00101A6512F
:100A9800D9260101A751DA22DF5001010101C26FF5
:100AA800010120EE03F00101A651D9260101A75149
:100AB800DA22DF5001010101C36F010120EE04F0C9
:100AC8000101A651D9260101A751DA22DF500101FF
:100AD8000101C46F010120EE05F00101A651D926DC
:100AE8000101A751DA22DF5001010101C56F0001A0
:100AF800C36F000E01010101C66F0001C35100015F
:100B0800C36F000E01010101C76F0001C35100014D
:100B1800C36F000E01010101C86F0001C35100013C
:100B2800C36F000E01010101C96F0001C351000E1E
:100B380001010101D36F000E0101D26F000E010106
:100B48000101D36F000E0101D26F01010101D351E0
:100B5800800A800F0B0ED8B4D25DD8B01CD001012A
:100B6800BF0E01010101D225D96E0101010E01015B
:100B78000101D321DA6EDF500001C36F0001C351B8
:100B880001010101CB27000E0101CC230101010164
:100B9800D24BD32BDAD7CBC1CAF10101010E000128
:100BA8000001B56F0101BF0E00010001B46F0C0E0A
:100BB80019EC10F01200C5D1000120EE0DF0000173
:100BC800C851D9260001C951DA22240EDF6E00016E
:100BD80020EE1CF00001C851D9260001C951DA22C3
:100BE800DF5000019A6F0001D8909A35FE0BC96E4C
:100BF8001200C5BC7AD0000120EE1BF00001C851DC
:100C0800D9260001C951DA22DF5000019A6F00018C
:100C180020EE1AF00001C851D9260001C951DA2284
:100C2800DF5000019A5DD8B035D0000120EE1BF0EE
:100C38000001C851D9260001C951DA22DF5000014C
:100C48009A6F00019A51010D100EF326000EF4223E
:100C5800F35000010001C825D96EF45000010001CD
:100C6800C921DA6EDF50C96E000120EE1BF00001C9
:100C7800C851D9260001C951DA22DF2A000120EE25
:100C88000DF00001C851D9260001C951DA22240EFD
:100C9800DF6E120000019A6F2B0E00010001966FA3
:100CA80000019A51000E00010001986F000E00012A
:100CB8000001976F000E81EC12F0000120EE1AF08F
:100CC8000001C851D9260001C951DA22000EDF6E91
:100CD800000120EE0DF00001C851D9260001C951CC
:100CE800DA22050EDF6EC584120000019A6F2C0E01
:100CF80000010001966F00019A51000E00010001E9
:100D0800986F000E00010001976F000E81EC12F041
:100D1800000120EE0DF00001C851D9260001C9518B
:100D2800DA22050EDF6EC584120000019A6F2B0EC1
:100D380000010001966F00019A51000E00010001A8
:100D4800986F000E00010001976F000E81EC12F001
:100D5800000120EE0DF00001C851D9260001C9514B
:100D6800DA22050EDF6E1200000120EE0DF0000100
:100D7800C851D9260001C951DA22270EDF6E0001B9
:100D880020EE1CF00001C851D9260001C951DA2211
:100D9800DF5000019A6F0001D8809A35C96E1200A1
:100DA800C5BC0DD0000120EE0DF00001C851D926B8
:100DB8000001C951DA22150EDF6EC5861200000146
:100DC8009A6F2E0E00010001966F00019A51000ED5
:100DD80000010001986F000E00010001976F000EDE
:100DE80081EC12F0000120EE0DF00001C851D92667
:100DF8000001C951DA22050EDF6EC5841200000118
:100E080020EE0BF00001C851D9260001C951DA22A1
:100E1800DF5000019A6F00019A51010DF350000153
:100E28000001C825D96EF45000010001C921DA6E0D
:100E3800C9CFDFFF000120EE0BF00001C851D92611
:100E48000001C951DA22DF2A000120EE0DF000016D
:100E5800C851D9260001C951DA22140EDF6E0001EB
:100E680020EE0BF00001C851D9260001C951DA2241
:100E7800DF5000019A6F000120EE0AF00001C8510E
:100E8800D9260001C951DA22DF5000019A5DD8B095
:100E980003D0C59AC5881200C58AC588120000010A
:100EA80020EE0BF00001C851D9260001C951DA2201
:100EB800DF5000019A6F000120EE0AF00001C851CE
:100EC800D9260001C951DA22DF5000019A5DD8B055
:100ED8000DD0000120EE0DF00001C851D926000107
:100EE800C951DA22150EDF6EC586120000019A6F0D
:100EF8002D0E00010001966F00019A5100010001BA
:100F0800C9C098F000010001C8C097F0000120EEA8
:100F18000AF00001C851D9260001C951DA22DF5070
:100F280081EC12F0000120EE0DF00001C851D92625
:100F38000001C951DA22050EDF6EC584C59AC5883D
:100F48001200000120EE0DF00001C851D926000161
:100F5800C951DA22DF50090AD8B42ED6190AD8B4F2
:100F680003D7030AD8B4E1D6070AD8B498D7010A38
:100F7800D8B445D7310AD8B43CD6030AD8A412004D
:100F88000FD7820ED36E9B8C0201020E0001000166
:100F9800B46F02010F0E00010001B36FFBEC10F0FB
:100FA8000201020E00010001B46F0201160E0001D9
:100FB8000001B36F50EC0DF00201020E00010001B8
:100FC800B46F02010D0E00010001B36F4EEC13F077
:100FD80078EC0FF0000E936E000E8A6E970ED1EC2F
:100FE80012F0F50E2FEC12F09F909F9A9F869E0E9E
:100FF80013EC12F09D86000E00010001B46F260E5E
:101008000001B36F6C0E72EC0EF088EC13F0FCEC80
:101018000EF00201020E01010101A86F0201140E77
:1010280001010101A76F0201020E01010101AA6F6E
:101038000201020E01010101A96F0A0ED2EC11F0A2
:1010480002010201156F0201020115BF5ED051D0E5
:101058000201020E00010001B46F0201000E00013E
:101068000001B36F0201000114C2B5F000010001D4
:10107800B66B02010201155100010001B76F0001B2
:10108800B86B0001B7BFB8070201020E00010001EA
:10109800BA6F0201020E00010001B96F91EC13F062
:1010A80034D00101D46F320E00010001C46F010178
:1010B800D4510201020E00010001C66F0201020EA6
:1010C80000010001C56F02010201155166EC12F022
:1010D8001CD00201020E00010001B56F0201020ED0
:1010E80000010001B46F02010201155119EC10F062
:1010F8000CD00201020114510A0AD8B4A9D7270A50
:10110800D8B4CFD7020AD8B4E4D70201020E01013D
:101118000101A86F0201140E01010101A76F02016C
:10112800020E01010101AA6F0201020E0101010173
:10113800A96F0A0EB1EC11F002010201156F02014C
:10114800020115BF64D767D00201020E0001000139
:10115800B46F02010D0E00010001B36F020100011E
:1011680014C2B5F000010001B66B0201020115516D
:1011780000010001B76F0001B86B0001B7BFB807E5
:101188000201020E00010001BA6F0201020E000105
:101198000001B96F90EC13F03AD70201010114C2B3
:1011A800A2F101010101A36B020102011551010124
:1011B8000101A46F0101A56B0101A4BFA5070201EC
:1011C800020E01010101A76F0201020E01010101D6
:1011D800A66F84EC03F01BD70201010114C2A2F12F
:1011E80001010101A36B0201020115510101010175
:1011F800A46F0101A56B0101A4BFA5070201020E9E
:1012080001010101A76F0201020E01010101A66F90
:1012180084EC03F0FCD60201020114510B0AD8B485
:1012280093D7150AD8B4F3D6010AD8B4F0D62E0A43
:10123800D8B4B3D7030AD8B4CFD7E9D6E8CF85F066
:10124800000120EE1AF00001C851D9260001C95149
:10125800DA22000EDF6E9DD0000120EE1AF00001A8
:10126800C851D9260001C951DA22DF500001826F26
:10127800000120EE27F00001C851D9260001C9510C
:10128800DA22DF500001825DD8B02CD0000120EEB8
:101298001AF00001C851D9260001C951DA22DF50DD
:1012A8000001826F00018251010D1D0EF326000E10
:1012B800F422F35000010001C825D96EF450000152
:1012C8000001C921DA6E000110EE1AF00001C851C0
:1012D800E1260001C951E222E7500001836F0001B5
:1012E80083513CD0000120EE27F00001C851D926D7
:1012F8000001C951DA22DF50D8B40BD0000120EE2A
:1013080027F00001C851D9260001C951DA22DF505F
:1013180003D00001000185510001826F836B1C0E10
:1013280000018227000E8323000182510001000181
:10133800C825D96E0001835100010001C921DA6E68
:10134800000110EE1AF00001C851E1260001C95150
:10135800E222E7500001846F00018451010D100E54
:10136800F326000EF422F35000010001C825E16EB7
:10137800F45000010001C921E26EDFCFE7FF000150
:1013880020EE1AF00001C851D9260001C951DA220D
:10139800DF2A000120EE1AF00001C851D926000109
:1013A800C951DA22DF500001826F00010001855126
:1013B8000001825DD8A050D7000120EE27F000017F
:1013C800C851D9260001C951DA22000EDF6E00018A
:1013D80020EE1AF00001C851D9260001C951DA22BD
:1013E800000185C0DFFF000120EE1BF00001C8519D
:1013F800D9260001C951DA22010EDF6E000120EE64
:1014080010F00001C851D9260001C951DA22DF5075
:10141800C96EC6881200020E00010001B55DD8B081
:1014280002D0000E1200B3C0D9FFB4C0DAFFDF50FB
:101438000F0B00010001C26F000120EE05F0000152
:10144800B351D9260001B451DA22DF50000100015E
:10145800BB6F000120EE04F00001B351D926000152
:10146800B451DA22DF5000010001BC6F000120EE08
:1014780003F00001B351D9260001B451DA22DF503C
:1014880000010001BD6F00010001C251020F0001FF
:101498000001C26F000E00010001C16F000E0001C3
:1014A800C06FFF0E0001B66FFF0EB76F000100019D
:1014B800C2510001B86FB96B0001B6510001B827DD
:1014C8000001B7510001B9230001B8510001000122
:1014D800B325D96E0001B95100010001B421DA6EBB
:1014E800DF5000010001BE6F0001B66F000E000161
:1014F8000001BF6F0001B651000E00010001C16F6D
:10150800000E0001C06F16D000010001C05100019B
:101518000001B325D96E00010001C151000100018D
:10152800B421DA6EDF5000010001BF27000100017D
:10153800C04BC12BFF0E0001B66FFF0EB76F000145
:101548000001C2510001B86FB96B0001B65100012A
:10155800B8270001B7510001B92300010001C151AA
:10156800800A0001BA6FB85100010001C05D000196
:10157800B951800A0001BA59D8A0C6D700010001A4
:10158800BF5100010001BE19D8A402D0010E1200FB
:10159800000E1200000120EE35F00001BD51D926E1
:1015A8000001BE51DA22DF5001010101A26F0101E1
:1015B8000101A2510D0DF35000010001BD250101EB
:1015C8000101A56FF45000010001BE210101A66FC1
:1015D800010EA5C1D9FFA6C1DAFFDF6274D00101EF
:1015E80020EE01F00101A551D9260101A651DA2208
:1015F800DF5000010001BF5DD8B002D0FD0E12001F
:10160800010120EE01F00101A551D9260101A651E1
:10161800DA22DF500001C46F0001C4510101010149
:10162800A36F0101A46B00010001C3C0B4F0000165
:101638000001C2C0B3F0030E01010101A52500019C
:10164800C46F000E01010101A6210001C56FC4C0CD
:10165800B5F0C5C0B6F0A3C1B7F0A4C1B8F04BEC63
:1016680010F0000120EE35F00001BD51D92600012F
:10167800BE51DA22000110EE35F00001BD51E1261D
:101688000001BE51E222E7500001C46F0001C429E5
:10169800030BDF6E010120EE02F00101A551D926EE
:1016A8000101A651DA22C0C0E1FFC1C0E2FFDFCFCD
:1016B800E7FFA5C1D9FFA6C1DAFF000EDF6E010161
:1016C8000101A3511200FC0E120000010101BFC06C
:1016D800A2F101010101A36B000120EE34F0000129
:1016E800BD51D9260001BE51DA22DF5001010101A6
:1016F800A46F01010101A4510D0DF3500001000177
:10170800BD2501010101A56FF45000010001BE21B2
:101718000101A66FA5C1D9FFA6C1DAFFDF50D8B471
:1017280002D0FF0E1200010120EE01F00101A551C7
:10173800D9260101A651DA220001BFC0DFFF01014D
:1017480020EE02F00101A551D9260101A651DA22A5
:101758000001C0C0DFFF030E01010101A525000142
:101768000001B36F000E01010101A6210001B46F51
:1017780000010001C2C0B6F000010001C1C0B5F00F
:10178800A2C1B7F0A3C1B8F04BEC10F0000120EEF5
:1017980034F00001BD51D9260001BE51DA22000102
:1017A80010EE34F00001BD51E1260001BE51E222E5
:1017B800E7500001C36F0001C329030BDF6EA5C109
:1017C800D9FFA6C1DAFF010EDF6E010E120000017B
:1017D80000018CC091F000010001926B000120EE25
:1017E80034F000018A51D92600018B51DA22DF50EA
:1017F80000010001936F0001000193510D0DF3509A
:10180800000100018A2500010001946FF4500001D5
:1018180000018B210001956F94C0D9FF95C0DAFFB4
:10182800DF50D8B402D0FF0E1200000120EE01F004
:1018380000019451D92600019551DA2200018CC08B
:10184800DFFF000120EE02F000019451D9260001CB
:101858009551DA2200018DC0DFFF030E000100015F
:10186800942500010001806F000E00010001952100
:101878000001816F000100018FC083F000010001A9
:101888008EC082F091C084F092C085F07AEC10F09E
:10189800000120EE34F000018A51D92600018B5155
:1018A800DA22000110EE34F000018A51E12600012D
:1018B8008B51E222E7500001906F00019029030B41
:1018C800DF6E94C0D9FF95C0DAFF010EDF6E010EFE
:1018D800120020EE04F05150D9265250DA22DF507F
:1018E800206E60D0FF0E1B6EFF0E1C6E42501D6EE8
:1018F8001E6A1B501D261C501E22450E1D24D96E23
:10190800000E1E20DA6EDF500F0B446E4450D8B420
:1019180005D01B6E010E406E1B5012001B6E020E8E
:10192800406E1B50120044501B6E1C6A43501D6EC3
:101938001E6A010E1D26000E1E221E50800A1F6EF2
:101948001B501D5C1C50800A1F58D8B002D0432A77
:1019580012001B6E020E406E1B5012001B6E310EE1
:10196800176E1B50000E196E450E186E4250F9EC9A
:1019780012F020EE04F05150D9265250DA22000E0F
:10198800DF6E1B6E000E426E1B501B6E000E406E0B
:101998001B501B6E000E436E1B501B6E000E446ED8
:1019A8001B5012004050000AD8B49CD7010AD8B482
:1019B800BAD7030AD8A41200D1D7E8CFB7F0C7B472
:1019C8001200000E00010001B96F000E0001B86F8F
:1019D8002CD000010001B85100010001B325D96ED7
:1019E80000010001B95100010001B421DA6E100EA6
:1019F80000010001B8250001B56F000E00010001CB
:101A0800B9210001B66F0001B55100010001C825D8
:101A1800E16E0001B65100010001C921E26EDFCF7D
:101A2800E7FF00010001B84BB92B00010001B751D5
:101A38000001B56FB66B0001B55100010001B85D3A
:101A48000001B65100010001B959D8A0C2D7000160
:101A580020EE1AF00001C851D9260001C951DA2236
:101A68000001B7C0DFFF000120EE1BF00001C851E4
:101A7800D9260001C951DA22000EDF6EC596C5804D
:101A8800000120EE0DF00001C851D9260001C9510E
:101A9800DA22090EDF6E120000010001B4C0C9F09D
:101AA80000010001B3C0C8F0C8C0D9FFC9C0DAFF3F
:101AB800000EDF6E000120EE01F00001C851D926AA
:101AC8000001C951DA22000EDF6E000120EE02F09B
:101AD8000001C851D9260001C951DA22000EDF6E73
:101AE800000120EE0AF00001C851D9260001C951B1
:101AF800DA22000EDF6E000120EE0CF00001C85162
:101B0800D9260001C951DA22000EDF6E000120EE4D
:101B18000DF00001C851D9260001C951DA22050E7D
:101B2800DF6E000120EE0FF00001C851D926000138
:101B3800C951DA22000EDF6E000120EE28F0000104
:101B4800C851D9260001C951DA22000EDF6E000102
:101B580020EE27F00001C851D9260001C951DA2228
:101B6800000EDF6E1200E8CF80F0000120EE0CF0CE
:101B78000001C851D9260001C951DA22010EDF6ED1
:101B8800000120EE0AF00001C851D9260001C95110
:101B9800DA22000EDF6E000100018051D8B43DD07A
:101BA800C7AA21D0000120EE0DF00001C851D926A6
:101BB8000001C951DA22050EDF6E000120EE0FF098
:101BC8000001C851D9260001C951DA22DF2A0001D3
:101BD80020EE0EF00001C851D9260001C951DA22C1
:101BE800050EDF6E1200C7A40CD0000120EE0DF028
:101BF8000001C851D9260001C951DA22080EDF6E4A
:101C08001200000120EE0DF00001C851D926000194
:101C1800C951DA22070EDF6E1200000120EE0DF026
:101C28000001C851D9260001C951DA22060EDF6E1B
:101C380012000DC012F0136A20EE34F00B50D926B2
:101C48000C50DA22DF50146E14500D0DF3500B2493
:101C5800156EF4500C20166E15C0D9FF16C0DAFFA9
:101C6800DF50D8B402D0FF0E120020EE01F015505C
:101C7800D9261650DA220DC0DFFF20EE02F01550EB
:101C8800D9261650DA220EC0DFFF030E1524016E86
:101C9800000E1620026E10C004F00FC003F012C030
:101CA80005F013C006F0F3EC11F020EE34F00B5001
:101CB800D9260C50DA2210EE34F00B50E1260C50E5
:101CC800E222E750116E1128030BDF6E15C0D9FF11
:101CD80016C0DAFF010EDF6E010E1200E8CFB8F071
:101CE800000EAC6E000EAB6E00010001B8B1AC88FE
:101CF80000010001B8A302D0AC8CAB8C000100013C
:101D0800B8B5AC8E00010001B8A702D0AB8801D0ED
:101D1800AB8A00010001B8B9AC849E9800010001AB
:101D2800B8BBAB8600010001B8AD02D09D8A01D0D6
:101D38009D9A9E9A00010001B8AF02D09D8801D0FB
:101D48009D98B3C0AFFF0001B4C0B5F0B5C0B6F000
:101D58000001B76B0001B651B06EAC8AAB8E949C93
:101D6800948EACA81200ACBE1200948C1200E9CF7D
:101D7800A7F0EACFA8F0E1CFA9F0E2CFAAF0D9CF37
:101D8800ABF0DACFACF0F3CFADF0F4CFAEF0F6CFE6
:101D9800AFF0F7CFB0F0F8CFB1F0F5CFB2F09EA624
:101DA80003D09E960CEC13F0F2A403D0F294B7EC97
:101DB80012F0E4EC0FF0B2C0F5FFB1C0F8FFB0C00C
:101DC800F7FFAFC0F6FFAEC0F4FFADC0F3FFACC085
:101DD800DAFFABC0D9FFAAC0E2FFA9C0E1FFA8C0E3
:101DE800EAFFA7C0E9FFA6C0FBFFA5C0FAFF1100E4
:101DF8008FEC11F000010001B8510001B711D8B4FF
:101E080012000001B96F010E3F6E0001B9510101C6
:101E1800010E00010001B46F0101360E000100013E
:101E2800B36F4BEC12F00009D8B407D00001B96FBA
:101E3800000E3F6E0001B95112000101010E0001B0
:101E48000001B46F01016C0E00010001B36F4BEC8F
:101E580012F00009D8B407D00001B96F000E3F6E28
:101E68000001B95112000A0E39EC13F0D0D7000165
:101E780020EE34F00001B351D9260001B451DA2222
:101E8800000EDF6E000120EE35F00001B351D926B7
:101E98000001B451DA22000EDF6E0001B56F000EAA
:101EA80000010001B66F0001B551030E00010001E9
:101EB800B66501D0120000010001B6510D0DF350B6
:101EC80000010001B325D96EF45000010001B421CE
:101ED800DA6E000EDF6E00010001B62B030E000162
:101EE8000001B665E8D712000001B76F000E3F6E1B
:101EF8000001B7510101010E00010001B46F010199
:101F08006C0E00010001B36F3BEC0FF00101010EF4
:101F180000010001B46F0101360E00010001B36F2A
:101F28003BEC0FF00101010E00010001B46F01014B
:101F3800000E00010001B36F3BEC0FF00201020E2E
:101F480000010001B46F02014B0E00010001B36FE4
:101F58003BEC0FF0120002EE4BF0360EEE6AE8068C
:101F6800FDE101EE00F0A20EEE6AE806FDE10001D7
:101F7800CC6B00EE33F0160EEE6AE806FDE11E0E9D
:101F8800F66E270EF76E000EF86E0900F5CFCAF050
:101F98000900F5CFCBF0080EF66E270EF76E000E8F
:101FA800F86E00EE49F010EE08F00900F5CFEEFFEC
:101FB800E550E150FAE1000EF86E0001C5EF07F0B8
:101FC8003F6601D012006CEC11F000010001835152
:101FD80000018211D8A412007BEC13F0000100016B
:101FE800815100018011D8B412000101010E0001D5
:101FF8000001816F0101360E00010001806F9CEC29
:1020080012F00009D8A412000101010E000100011C
:10201800816F01016C0E00010001806F9CEC12F0D1
:102028000009D8B48CEC13F01200E8CFB7F0000127
:10203800B66F000E00010001B86F0001B651000133
:10204800B66F000E00010001B86F0001B65116D03E
:10205800ACA2FED700010001B851010DF3500001F8
:102068000001B425D96EF45000010001B521DA6EE3
:10207800DF5044EC13F000010001B82B000100010F
:10208800B75100010001B85DD8B01200E1D70001D6
:102098000001B6C0BCF000010001B5C0BBF00001F2
:1020A8000001B4C0BAF000010001B3C0B9F012D009
:1020B800BBC0D9FFBCC0DAFFB9C0E1FFBAC0E2FFBC
:1020C800DFCFE7FF00010001BB4BBC2B0001000183
:1020D800B94BBA2B00010001B707D8A0B807000117
:1020E800B729D8B4B829D8B41200E2D70001000142
:1020F80083C089F00001000182C088F0000100015E
:1021080081C087F00001000180C086F012D088C02D
:10211800D9FF89C0DAFF86C0E1FF87C0E2FFDFCFC1
:10212800E7FF00010001884B892B00010001864B65
:10213800872B000100018407D8A0850700018429A6
:10214800D8B48529D8B41200E2D7E8CFB4F000019A
:10215800B36F010E00010001CC6F0001B351000103
:1021680020EE1CF00001C851D9260001C951DA221D
:102178000001B4C0DFFF000EC66E000EC56E000E73
:10218800C76E630EC86EC650F00B0809C66EC68AC5
:10219800800EC76E8B868B88948694881200E8CF51
:1021A800B3F0C7B41200000120EE0AF00001C851D4
:1021B800D9260001C951DA220001B3C0DFFF0001AE
:1021C80020EE0BF00001C851D9260001C951DA22CE
:1021D800000EDF6EC580000120EE0DF00001C85131
:1021E800D9260001C951DA22100EDF6E1200000153
:1021F800B4C052F00001B3C051F020EE04F05150C9
:10220800D9265250DA22000EDF6E0001B56F000E9B
:10221800426E0001B5510001B56F000E446E000119
:10222800B5510001B56F000E436E0001B5510001B4
:10223800B56F000E406E0001B55112009EAA15D070
:102248004250010D450EF324D96E000EF420DA6ECB
:102258001DEC13F0DF6E20EE04F05150D9265250D9
:10226800DA22DF2A422A6DEC0CF041A61200AB9864
:10227800AB88216E1E0E176E2150000E196E000ECF
:10228800186E000EF9EC12F01200F2AC08D0000E35
:1022980000010001B66F000E0001B56F120057EC87
:1022A80013F000010001B4510001B311D8B408D0F3
:1022B800000E00010001B66F000E0001B56F12009C
:1022C800000E00010001B66F010E0001B56F12008B
:1022D800F2AC08D0000E00010001836F000E00016F
:1022E800826F12007BEC13F00001000181510001A4
:1022F8008011D8B408D0000E00010001836F000ED1
:102308000001826F1200000E00010001836F010EB0
:102318000001826F120049EC11F000010001B65172
:102328000001B511D8A411D057EC13F00001000139
:10233800B4510001B311D8A408D0000E0001000167
:10234800B86F010E0001B76F1200000E0001000106
:10235800B86F000E0001B76F1200E8CFC6F0010198
:10236800010E00010001BE6F01016C0E00010001A9
:10237800BD6FC6C0BFF001010001A8C1C1F00101D5
:102388000001A7C1C0F001010001AAC1C3F0010109
:102398000001A9C1C2F0CEEC0AF01200E8CFC6F0E5
:1023A8000101010E00010001BE6F0101360E00019E
:1023B8000001BD6FC6C0BFF001010001A8C1C1F096
:1023C80001010001A7C1C0F001010001AAC1C3F0C9
:1023D80001010001A9C1C2F0CEEC0AF0120004C04C
:1023E8000AF003C009F002C008F001C007F00ED0DF
:1023F80009C0D9FF0AC0DAFF07C0E1FF08C0E2FF41
:10240800DFCFE7FF094A0A2A074A082A0506D8A0A3
:1024180006060528D8B40628D8B41200E9D7E8CFAC
:10242800B4F094869488B4C0C8FF000EC76E000E3E
:10243800C66E000EC56E0E0EC612C78E94869488A0
:102448000001B36F020E00010001CC6F0001B3510F
:10245800C580C68A1200E8CFB3F000010001B3516D
:102468007E0BCD6E00010001B3AD02D0CD8E01D040
:10247800CD9E000ECF6E000ECE6E9E900001000124
:10248800B3AF02D09D8001D09D90CD801200000195
:1024980020EE35F00001B351D9260001B451DA22FB
:1024A800DF500001B56F0001B5510D0DF35000016B
:1024B8000001B325D96EF45000010001B421DA6E91
:1024C800DF501200E8CFC7F00101010E0001000142
:1024D800BE6F01016C0E00010001BD6FC7C0BFF0E7
:1024E800C4C0C0F000010001C6C0C2F00001000174
:1024F800C5C0C1F069EC0BF01200E8CF99F00101FA
:10250800010E000100018B6F0101360E0001000170
:102518008A6F99C08CF096C08DF00001000198C0B8
:102528008FF00001000197C08EF0EBEC0BF0120069
:10253800000120EE35F000018051D92600018151BB
:10254800DA22DF500001826F000182510D0DF35035
:10255800000100018025D96EF4500001000181219D
:10256800DA6EDF5012000001846F320E00010001A4
:10257800856F00018451000E00010001816F000E7B
:102588000001806F72EC13F03E503D10D8A4120089
:10259800000E3E6E010E3D6E1200E8CFB3F0000152
:1025A8000001B3517F0BD56E000ED76E000ED66EAC
:1025B800F29400010001B3AF02D0F28A01D0F29A7E
:1025C800D58E120000010001B551D8B40CD0B3C0AB
:1025D800D9FFB4C0DAFFDF500001B66F0001B63989
:1025E8000F0B0F0B1200FF0E1200E8CF1AF00101BB
:1025F800010E0C6E01016C0E0B6E1AC00DF017C0A7
:102608000EF019C010F018C00FF01DEC0EF01200FB
:1026180006D0DFEC05F012005DEC00F012000001BE
:102628000001CC51010AD8B4F4D7030AD8A4120087
:10263800F3D7F20E4116ABAC03D04190ABB041805A
:10264800ABB44184ABB24186AECF01F00150120069
:1026580069EC13F001C005F002C006F0000E026E2E
:10266800000E016E60EC13F01200E8CFB3F0FA0E22
:1026780000F0E82EFDD700010001B32FF8D71200B3
:10268800E8CFB3F0ACAC03D0AC9041B2AC80B3C0EF
:10269800ADFF1200B3C0D9FFB4C0DAFF000EDE6E82
:1026A800000EDD6E1200000EF2AE010E00010001F8
:1026B800B36F0001B46B120001C003F002C004F054
:1026C80004C0CFFF03C0CEFF1200CECF03F0CFCFA0
:1026D80004F003C001F004C002F0120080C082F0D0
:1026E80081C083F083C0D7FF82C0D6FF1200000EDE
:1026F800F2AE010E00010001806F0001816B120033
:102708005800030060000A00D08EF28EF28C12008E
:0C271800D38E0300120017001200120004
:067FF80080F4C5FFFFF15B
:00000001FF
