:040000005BEF00F0C2
:0C000800FACFA5F0FBCFA6F03EEF0EF003
:10001800D8CF22F0E8CF23F0E0CF24F0FACF25F0B4
:10002800FBCF26F0E9CF27F0EACF28F0E1CF29F07F
:10003800E2CF2AF0D9CF2BF0DACF2CF0F3CF2DF086
:10004800F4CF2EF0F6CF2FF0F7CF30F0F8CF31F015
:10005800F5CF32F09EA003D09E9090EC12F09EAAAD
:1000680003D09E9AA9EC10F032C0F5FF31C0F8FF1A
:1000780030C0F7FF2FC0F6FF2EC0F4FF2DC0F3FFEE
:100088002CC0DAFF2BC0D9FF2AC0E2FF29C0E1FF4C
:1000980028C0EAFF27C0E9FF26C0FBFF25C0FAFFFA
:1000A80024C0E0FF23C0E8FF22C0D8FF1000FBEF08
:1000B8000EF000019A6F000E00010001A46F00010C
:1000C8009A5100019A6F000E000100019F6F000114
:1000D8009A5100019A6F000E00010001A36F000100
:1000E8009A5100019A6F000E00010001A26F0001F1
:1000F8009A5100019A6F000E00010001A06F0001E3
:100108009A51C6AC29D0C69C000120EE0DF0000122
:10011800C951D9260001CA51DA22050EDF6E000145
:100128009A6F010E00010001A06F00019A510001B1
:1001380020EE0FF00001C951D9260001CA51DA2278
:10014800DF2A000120EE0EF00001C951D926000176
:10015800CA51DA22040EDF6EC7A00AD0C9CFA1F0B7
:1001680000019A6F010E00010001A46F00019A516D
:1001780000010001A067CED1B7D1C7A6CBD100013D
:100188000001A4513AEC0DF0000120EE0DF0000141
:10019800C951D9260001CA51DA22080EDF62BAD144
:1001A80000019A6F000E00010001A46F00019A512E
:1001B80000019A6F010E00010001A26F87D1C7A844
:1001C80030D0000120EE0CF00001C951D926000101
:1001D800CA51DA22DF2A00010001A451D8B479D12A
:1001E800C7BA09D000019A6F010E00010001A36F80
:1001F80000019A516ED1000120EE0FF00001C951A3
:10020800D9260001CA51DA22DF2A000120EE0EF0B9
:100218000001C951D9260001CA51DA22060EDF6E43
:1002280058D100010001A451D8B474D1000120EEC6
:100238000CF00001C951D9260001CA51DA22DF2A7F
:10024800C7BA19D0C7B40BD0000120EE0DF00001D9
:10025800C951D9260001CA51DA22070E76D0000109
:1002680020EE0DF00001C951D9260001CA51DA2249
:10027800080EDF6E1DD1000120EE0FF00001C951FC
:10028800D9260001CA51DA22DF2A000120EE0DF03A
:100298000001C951D9260001CA51DA22050EDF6EC4
:1002A800000120EE0EF00001C951D9260001CA5103
:1002B800DA22060E4AD0000120EE1BF00001C951D7
:1002C800D9260001CA51DA22DF5000019A6F0001D5
:1002D80020EE1AF00001C951D9260001CA51DA22CC
:1002E800DF5000019A5DD8B0F4D0000120EE1BF079
:1002F8000001C951D9260001CA51DA22DF50000194
:100308009A6F00019A51010D100EF326000EF42287
:10031800F35000010001C925D96EF4500001000115
:10032800CA21DA6EDF50C96E000120EE1BF0000111
:10033800C951D9260001CA51DA22DF2A00019A6F71
:10034800010E000100019F6FC1D0DF6EE3D0C7A886
:1003580062D0000120EE0CF00001C951D92600013D
:10036800CA51DA22DF2A00010001A451D8B44AD0C8
:10037800C7AA27D0000120EE0AF00001C951D926EA
:100388000001CA51DA22DF5000019A6F00019A5128
:10039800010DF35000010001C925D96EF450000188
:1003A8000001CA21DA6E0001A1C0DFFF000120EEC2
:1003B8000AF00001C951D9260001CA51DA22DF2A00
:1003C80021D0000120EE0FF00001C951D92600010B
:1003D800CA51DA22DF2A000120EE0EF00001C951CD
:1003E800D9260001CA51DA22060EDF6E000120EE7E
:1003F8000DF00001C951D9260001CA51DA22050EB3
:10040800DF6E67D000019A6F010E00010001A36F33
:1004180000019A515ED000010001A451D8B47AD0ED
:10042800000120EE0CF00001C951D9260001CA5183
:10043800DA22DF2AC7AA27D0000120EE0AF000013D
:10044800C951D9260001CA51DA22DF5000019A6F3A
:1004580000019A51010DF35000010001C925D96E20
:10046800F45000010001CA21DA6E0001A1C0DFFFCB
:10047800000120EE0AF00001C951D9260001CA5135
:10048800DA22DF2A47D0C7A4B6D6000120EE0DF045
:100498000001C951D9260001CA51DA22080EDF6EBF
:1004A80000019A6F010E00010001A36F00019A512B
:1004B80000019A6F010E00010001A26F00019A511C
:1004C80000019A6F000E00010001A46F00019A510B
:1004D80021D0000120EE0DF00001C951D9260001FC
:1004E800CA51DA22050E31D7000120EE0DF00001C5
:1004F800C951D9260001CA51DA22DF50050AD8B4F9
:100508003CD6030AD8B45BD6010AD8B420D70F0A60
:10051800D8B4D1D600010001A46705D000010001BC
:100528009F51D8B402D0C6A8C688000120EE0AF0B0
:100538000001C951D9260001CA51DA22080EDF6428
:1005480024D000010001A36720D0000120EE0DF0A7
:100558000001C951D9260001CA51DA22050EDF6E01
:10056800000120EE0FF00001C951D9260001CA513F
:10057800DA22DF2A000120EE0EF00001C951D92647
:100588000001CA51DA22070EDF6E00010001A351F3
:10059800D8B448D0000120EE0CF00001C951D9268A
:1005A8000001CA51DA22000110EE0AF00001C95117
:1005B800E1260001CA51E222E75000019A6F0001CA
:1005C8009A51010DF35000010001C925E16EF45064
:1005D80000010001CA21E26EDFCFE7FF00019A6F38
:1005E800280E00010001966F00019A5100010001D8
:1005F800CAC098F000010001C9C097F0000120EEC0
:100608000AF00001C951D9260001CA51DA22DF5087
:1006180000019B6F00019B29ECEC11F0000120EE1A
:100628000AF04BD0000120EE0FF00001C951D92685
:100638000001CA51DA22DF50D8B447D0000120EEB9
:100648000FF00001C951D9260001CA51DA22DF5042
:10065800000100019C6F000120EE0EF00001C9515D
:10066800D9260001CA51DA22DF50000100019D6F2E
:10067800000120EE0CF00001C951D9260001CA5131
:10068800DA22DF50000100019E6F00019A6F290EE7
:1006980000010001966F00019A510001000E00014F
:1006A8000001986F00019C0E00010001976F030E76
:1006B800ECEC11F0000120EE0FF00001C951D92631
:1006C8000001CA51DA22000EDF6E00010001A251BA
:1006D800D8B41200000E00010001816F000E000165
:1006E8000001806F00010001CB5127EC09F00001E7
:1006F8009A6F000E00010001A26F00019A511200CA
:1007080001010101A251310AA311D8A476D1010136
:100718000001A7C1B4F001010001A6C1B3F0A4C152
:10072800B5F014EC0AF00009D8B412004DD14D0E02
:1007380030EC10F0070E5AEC10F05FD10101A86FF1
:10074800000E01010101CF6F0101A8510101A86F3D
:10075800000E01010101D06F0101A8510101A86F2C
:10076800000E01010101D36F0101A8513DD0010123
:10077800A86F010E03D00101A86F020E010101014B
:10078800D26F0101A851010120EE02F00101A6512A
:10079800D9260101A751DA22DF5001010101D36FE7
:1007A80041D00101A86F030E01010101D26F0101BF
:1007B800A851010120EE03F00101A651D92601013B
:1007C800A751DA22DF5001010101CF6F010120EEAC
:1007D80004F00101A651D9260101A751DA22DF5000
:1007E80001010101D06F1ED0010120EE01F00101CD
:1007F800A651D9260101A751DA22DF500F0B0101BA
:10080800A86FA96B0101A951000AD8A40BD0010156
:10081800A851000AD8B4C5D7010AD8B4A8D7030A82
:10082800D8B4A9D7D2C1AAF1D3C1ABF1CFC1ACF129
:10083800D0C1ADF10101A86F300E01010101AF6F08
:100848000101A8510101A86F000E01010101B06F5B
:100858000101A8510101A86F000E01010101B16F4A
:100868000101A8510101A86F000E01010101B26F39
:100878000101A8510101A86F000E01010101B36F28
:100888000101A8510101A86F300E01010101B46FE7
:100898000101A8510101010E00010001B56F01011C
:1008A800AF0E00010001B46F060EA0EC0FF04F0E62
:1008B80030EC10F00101010E00010001B46F0101DC
:1008C800AA0E00010001B36F050E64EC0CF095D080
:1008D8000101A86F300E01010101B56F0101A85196
:1008E8000101A86F000E01010101B66F0101A851B5
:1008F8000101A86F000E01010101B76F0101A851A4
:100908000101A86F000E01010101B86F0101A85192
:100918000101A86F000E01010101B96F0101A85181
:100928000101A86F300E01010101BA6F0101A85140
:100938000101010E00010001B56F0101B50E0001B2
:100948000001B46F060EA0EC0FF057D00101A86F9C
:10095800300E01010101BB6F0101A8510101A86F0F
:10096800000E01010101BC6F0101A8510101A86F2E
:10097800000E01010101BD6F0101A8510101A86F1D
:10098800000E01010101BE6F0101A8510101A86F0C
:10099800000E01010101BF6F0101A8510101A86FFB
:1009A800300E01010101C06F0101A8510101010EC2
:1009B80000010001B56F0101BB0E00010001B46F19
:1009C800060EA0EC0FF019D001010001A7C1B4F088
:1009D80001010001A6C1B3F0A4C1B5F037EC12F0D3
:1009E800000AD8B4A4D6020AD8B4A8D6010AD8B442
:1009F800ADD7070AD8B46CD7FB0A01010101A2518F
:100A0800320AA311D8A4BED0000E01010101CE6F95
:100A1800000E0101CD6F0101A86F000E0101010157
:100A2800D16F0101A851010120EE06F00101A65184
:100A3800D9260101A751DA22010EDF6208D001018F
:100A4800A86F200E01010101D16F0101A851010118
:100A58000101D151060901010101C16FA6C1D9FFE8
:100A6800A7C1DAFFDF5001010101C26F010120EEC9
:100A780001F00101A651D9260101A751DA22DF5060
:100A880001010101C36F010120EE02F00101A6512D
:100A9800D9260101A751DA22DF5001010101C46FF3
:100AA800010120EE03F00101A651D9260101A75149
:100AB800DA22DF5001010101C56F010120EE04F0C7
:100AC8000101A651D9260101A751DA22DF500101FF
:100AD8000101C66F010120EE05F00101A651D926DA
:100AE8000101A751DA22DF5001010101C76FC4C01B
:100AF800C8F1C6C0C9F1C4C0CAF1C6C0CBF1000E66
:100B080001010101D56F000E0101D46F000E010132
:100B18000101D56F000E0101D46F01010101D5510A
:100B2800800A800F0B0ED8B4D45DD8B01CD0010158
:100B3800C10E01010101D425D96E0101010E010187
:100B48000101D521DA6EDF500101A86F0101A8511A
:100B580001010101CD27000E0101CE230101010190
:100B6800D44BD52BDAD7CDC1CCF10101010E000150
:100B78000001B56F0101C10E00010001B46F0C0E38
:100B8800A0EC0FF001010101A251330AA311D8A46E
:100B98001200010120EE01F00101A651D926010140
:100BA800A751DA22DF500101A86F0101A851000105
:100BB8000001C46F0001C56B010120EE02F00101C4
:100BC800A651D9260101A751DA22DF500101A86FE9
:100BD8000101A85100010001C66F0001C76B120096
:100BE800EED1000120EE0DF00001C951D926000117
:100BF800CA51DA22240EDF6E000120EE1CF000013B
:100C0800C951D9260001CA51DA22DF5000019A6F72
:100C18000001D8909A35FE0BC96E1200C5BC7AD077
:100C2800000120EE1BF00001C951D9260001CA516C
:100C3800DA22DF5000019A6F000120EE1AF000015D
:100C4800C951D9260001CA51DA22DF5000019A5D44
:100C5800D8B035D0000120EE1BF00001C951D926CB
:100C68000001CA51DA22DF5000019A6F00019A513F
:100C7800010D100EF326000EF422F35000010001BE
:100C8800C925D96EF45000010001CA21DA6EDF507F
:100C9800C96E000120EE1BF00001C951D9260001E0
:100CA800CA51DA22DF2A000120EE0DF00001C951F5
:100CB800D9260001CA51DA22240EDF6E1200000183
:100CC8009A6F2B0E00010001966F00019A51000ED9
:100CD80000010001986F000E00010001976F000EDF
:100CE800ECEC11F0000120EE1AF00001C951D926F0
:100CF8000001CA51DA22000EDF6E000120EE0DF06D
:100D08000001C951D9260001CA51DA22050EDF6E49
:100D1800C584120000019A6F2C0E00010001966F25
:100D280000019A51000E00010001986F000E0001A9
:100D38000001976F000EECEC11F0000120EE0DF0B1
:100D48000001C951D9260001CA51DA22050EDF6E09
:100D5800C584120000019A6F2B0E00010001966FE6
:100D680000019A51000E00010001986F000E000169
:100D78000001976F000EECEC11F0000120EE0DF071
:100D88000001C951D9260001CA51DA22050EDF6EC9
:100D98001200000120EE0DF00001C951D926000112
:100DA800CA51DA22270EDF6E000120EE1CF0000186
:100DB800C951D9260001CA51DA22DF5000019A6FC1
:100DC8000001D8809A35C96E1200C5BC0DD000014B
:100DD80020EE0DF00001C951D9260001CA51DA22CE
:100DE800150EDF6EC586120000019A6F2E0E0001E7
:100DF8000001966F00019A51000E00010001986FE2
:100E0800000E00010001976F000EECEC11F00001DC
:100E180020EE0DF00001C951D9260001CA51DA228D
:100E2800050EDF6EC5841200000120EE0BF00001F4
:100E3800C951D9260001CA51DA22DF5000019A6F40
:100E480000019A51010DF35000010001C925D96E26
:100E5800F45000010001CA21DA6EC9CFDFFF00019A
:100E680020EE0BF00001C951D9260001CA51DA223F
:100E7800DF2A000120EE0DF00001C951D92600013A
:100E8800CA51DA22140EDF6E000120EE0BF00001C9
:100E9800C951D9260001CA51DA22DF5000019A6FE0
:100EA800000120EE0AF00001C951D9260001CA51FB
:100EB800DA22DF5000019A5DD8B003D0C59AC58800
:100EC8001200C58AC5881200000120EE0BF000014F
:100ED800C951D9260001CA51DA22DF5000019A6FA0
:100EE800000120EE0AF00001C951D9260001CA51BB
:100EF800DA22DF5000019A5DD8B00DD0000120EE53
:100F08000DF00001C951D9260001CA51DA22150E87
:100F1800DF6EC5861200000120EE1CF00001C951E9
:100F2800D9260001CA51DA224F0EDF621DD0000116
:100F38009A6F330E00010001966F00019A5100016B
:100F48000001CAC098F000010001C9C097F0000173
:100F580020EE0AF00001C951D9260001CA51DA224F
:100F6800DF50D1EC11F01CD000019A6F320E000155
:100F78000001966F00019A5100010001CAC098F063
:100F880000010001C9C097F0000120EE0AF000013D
:100F9800C951D9260001CA51DA22DF50D1EC11F02B
:100FA800000120EE0DF00001C951D9260001CA51F7
:100FB800DA22050EDF6EC584C59AC58812000001C5
:100FC80020EE0DF00001C951D9260001CA51DA22DC
:100FD800DF50090AD8B405D6190AD8B4DAD6030AF4
:100FE800D8B4B8D6070AD8B46FD7010AD8B41CD772
:100FF800310AD8B413D6030AD8A41200E6D6820E52
:10100800D36E9B8C0201020E00010001B46F020135
:101018000D0E00010001B36F82EC10F00201020E08
:1010280000010001B46F0201140E00010001B36F4A
:10103800D3EC0CF00201020E00010001B46F0201B2
:101048000B0E00010001B36FBCEC12F034EC0FF092
:10105800000E936E000E8A6E950E22EC12F09F9091
:101068009F9A9F869E0E9AEC11F09D86000E0001B5
:101078000001B46F260E0001B36F6C0EF5EC0DF095
:10108800F6EC12F07FEC0EF00201020E01010101F4
:10109800AA6F0201120E01010101A96F0201020EDD
:1010A80001010101AC6F0201000E01010101AB6FEA
:1010B8000A0E59EC11F002010201136F020102013C
:1010C80013AF44D0020102011351FC0AD8B44AD02C
:1010D800FF0048D0020102012151050AD8A442D0DC
:1010E8004F0E30EC10F0050E5AEC10F03BD0020118
:1010F800010112C2A2F101010101A36B0201020167
:10110800135101010101A46F0101A56B0101A4BFE5
:10111800A5070201020E01010101A76F0201000EDD
:1011280001010101A66F84EC03F01CD00201020E3C
:1011380000010001B56F0201000E00010001B46F4B
:10114800020102011351A0EC0FF00CD002010201C0
:1011580012510A0AD8B4BED7250AD8B4E7D71E0A4E
:10116800D8B4C5D70201020E01010101AA6F02011C
:10117800120E01010101A96F0201020E0101010114
:10118800AC6F0201000E01010101AB6F0A0E38ECD1
:1011980011F002010201136F0201020113AF46D0E0
:1011A800020102011351FC0AD8B46CD7FF006AD7B8
:1011B8000201010112C2A2F101010101A36B0201A6
:1011C8000201135101010101A46F0101A56B010185
:1011D800A4BFA5070201020E01010101A76F0201C8
:1011E800000E01010101A66F84EC03F04BD7020148
:1011F800010112C2A2F101010101A36B0201020166
:10120800135101010101A46F0101A56B0101A4BFE4
:10121800A5070201020E01010101A76F0201000EDC
:1012280001010101A66F84EC03F02CD70201020131
:1012380012511E0AD8B426D72C0AD8B4B9D7010A35
:10124800D8B4D5D71FD7E8CF85F0000120EE1AF023
:101258000001C951D9260001CA51DA22000EDF6EF9
:101268009DD0000120EE1AF00001C951D9260001D5
:10127800CA51DA22DF500001826F000120EE27F008
:101288000001C951D9260001CA51DA22DF500001F4
:10129800825DD8B02CD0000120EE1AF00001C951AF
:1012A800D9260001CA51DA22DF500001826F0001FD
:1012B8008251010D1D0EF326000EF422F350000199
:1012C8000001C925D96EF45000010001CA21DA6E67
:1012D800000110EE1AF00001C951E1260001CA51BF
:1012E800E222E7500001836F000183513CD00001E6
:1012F80020EE27F00001C951D9260001CA51DA228F
:10130800DF50D8B40BD0000120EE27F00001C951FE
:10131800D9260001CA51DA22DF5003D000010001AA
:1013280085510001826F836B1C0E00018227000E1D
:1013380083230001825100010001C925D96E0001F3
:10134800835100010001CA21DA6E000110EE1AF083
:101358000001C951E1260001CA51E222E75000010B
:10136800846F00018451010D100EF326000EF42243
:10137800F35000010001C925E16EF450000100019D
:10138800CA21E26EDFCFE7FF000120EE1AF000016C
:10139800C951D9260001CA51DA22DF2A000120EEFC
:1013A8001AF00001C951D9260001CA51DA22DF50CA
:1013B8000001826F0001000185510001825DD8A003
:1013C80050D7000120EE27F00001C951D9260001AD
:1013D800CA51DA22000EDF6E000120EE1AF0000179
:1013E800C951D9260001CA51DA22000185C0DFFFA0
:1013F800000120EE1BF00001C951D9260001CA5195
:10140800DA22010EDF6E000120EE10F00001C95152
:10141800D9260001CA51DA22DF50C96EC6881200E7
:10142800020E00010001B55DD8B002D0000E120016
:10143800B3C0D9FFB4C0DAFFDF500F0B00010001C1
:10144800C26F000120EE05F00001B351D92600015A
:10145800B451DA22DF5000010001BB6F000120EE19
:1014680004F00001B351D9260001B451DA22DF504B
:1014780000010001BC6F000120EE03F00001B35130
:10148800D9260001B451DA22DF5000010001BD6FF6
:1014980000010001C251020F00010001C26F000EDD
:1014A80000010001C16F000E0001C06FFF0E0001B6
:1014B800B66FFF0EB76F00010001C2510001B86F8F
:1014C800B96B0001B6510001B8270001B7510001FE
:1014D800B9230001B85100010001B325D96E0001FC
:1014E800B95100010001B421DA6EDF50000100019A
:1014F800BE6F0001B66F000E00010001BF6F000152
:10150800B651000E00010001C16F000E0001C06F4E
:1015180016D000010001C05100010001B325D96EA9
:1015280000010001C15100010001B421DA6EDF5051
:1015380000010001BF2700010001C04BC12BFF0EB5
:101548000001B66FFF0EB76F00010001C251000124
:10155800B86FB96B0001B6510001B8270001B75147
:101568000001B92300010001C151800A0001BA6FCE
:10157800B85100010001C05D0001B951800A0001A5
:10158800BA59D8A0C6D700010001BF510001000117
:10159800BE19D8A402D0010E1200000E12000001DC
:1015A80020EE35F00001BD51D9260001BE51DA22E6
:1015B800DF5001010101A46F01010101A4510D0DCA
:1015C800F35000010001BD2501010101A76FF4508E
:1015D80000010001BE210101A86F010EA7C1D9FFBA
:1015E800A8C1DAFFDF6274D0010120EE01F0010129
:1015F800A751D9260101A851DA22DF5000010001C4
:10160800BF5DD8B002D0FD0E1200010120EE01F03E
:101618000101A751D9260101A851DA22DF500101A1
:10162800A26F0101A25101010101A56F0101A66B81
:1016380000010001C3C0B4F000010001C2C0B3F052
:10164800030E01010101A7250101A26F000E01018E
:101658000101A8210101A36FA2C1B5F0A3C1B6F091
:10166800A5C1B7F0A6C1B8F0D2EC0FF0000120EE8A
:1016780035F00001BD51D9260001BE51DA22000122
:1016880010EE35F00001BD51E1260001BE51E22205
:10169800E7500101A26F0101A229030BDF6E0101CE
:1016A80020EE02F00101A751D9260101A851DA2242
:1016B800C0C0E1FFC1C0E2FFDFCFE7FFA7C1D9FF8C
:1016C800A8C1DAFF000EDF6E01010101A551120069
:1016D800FC0E1200000100018CC091F00001000115
:1016E800926B000120EE34F000018A51D9260001E6
:1016F8008B51DA22DF5000010001936F00010001D5
:1017080093510D0DF350000100018A2500010001DD
:10171800946FF450000100018B210001956F94C073
:10172800D9FF95C0DAFFDF50D8B402D0FF0E1200FF
:10173800000120EE01F000019451D92600019551D5
:10174800DA2200018CC0DFFF000120EE02F0000168
:101758009451D92600019551DA2200018DC0DFFF8E
:10176800030E00010001942500010001806F000EA6
:101778000001000195210001816F000100018FC067
:1017880083F0000100018EC082F091C084F092C005
:1017980085F001EC10F0000120EE34F000018A51D0
:1017A800D92600018B51DA22000110EE34F0000135
:1017B8008A51E12600018B51E222E7500001906F27
:1017C80000019029030BDF6E94C0D9FF95C0DAFFA2
:1017D800010EDF6E010E120020EE04F05150D926E2
:1017E8005250DA22DF50206E60D0FF0E1B6EFF0EC3
:1017F8001C6E42501D6E1E6A1B501D261C501E2258
:10180800450E1D24D96E000E1E20DA6EDF500F0B18
:10181800446E4450D8B405D01B6E010E406E1B5068
:1018280012001B6E020E406E1B50120044501B6EBD
:101838001C6A43501D6E1E6A010E1D26000E1E22D4
:101848001E50800A1F6E1B501D5C1C50800A1F58BA
:10185800D8B002D0432A12001B6E020E406E1B50F5
:1018680012001B6E310E176E1B50000E196E450EBE
:10187800186E42504AEC12F020EE04F05150D9266E
:101888005250DA22000EDF6E1B6E000E426E1B50A5
:101898001B6E000E406E1B501B6E000E436E1B50DD
:1018A8001B6E000E446E1B5012004050000AD8B444
:1018B8009CD7010AD8B4BAD7030AD8A41200D1D742
:1018C800E8CFB7F0C7B41200000E00010001B96FED
:1018D800000E0001B86F2CD000010001B8510001C2
:1018E8000001B325D96E00010001B95100010001C2
:1018F800B421DA6E100E00010001B8250001B56FA1
:10190800000E00010001B9210001B66F0001B551B8
:1019180000010001C925E16E0001B6510001000176
:10192800CA21E26EDFCFE7FF00010001B84BB92BF7
:1019380000010001B7510001B56FB66B0001B55148
:1019480000010001B85D0001B65100010001B9595C
:10195800D8A0C2D7000120EE1AF00001C951D9263B
:101968000001CA51DA220001B7C0DFFF000120EEF2
:101978001BF00001C951D9260001CA51DA22000E14
:10198800DF6EC596C580000120EE0DF00001C9513B
:10199800D9260001CA51DA22090EDF6E12000001B1
:1019A8000001B4C0CAF000010001B3C0C9F0C9C049
:1019B800D9FFCAC0DAFF000EDF6E000120EE01F089
:1019C8000001C951D9260001CA51DA22000EDF6E82
:1019D800000120EE02F00001C951D9260001CA51C8
:1019E800DA22000EDF6E000120EE0AF00001C95174
:1019F800D9260001CA51DA22000EDF6E000120EE5E
:101A08000CF00001C951D9260001CA51DA22000E92
:101A1800DF6E000120EE0DF00001C951D92600014A
:101A2800CA51DA22050EDF6E000120EE0FF0000128
:101A3800C951D9260001CA51DA22000EDF6E000111
:101A480020EE28F00001C951D9260001CA51DA2236
:101A5800000EDF6E000120EE27F00001C951D926E3
:101A68000001CA51DA22000EDF6E1200E8CF80F0C2
:101A7800000120EE0CF00001C951D9260001CA511D
:101A8800DA22010EDF6E000120EE0AF00001C951D2
:101A9800D9260001CA51DA22000EDF6E00010001CA
:101AA8008051D8B43DD0C7AA21D0000120EE0DF056
:101AB8000001C951D9260001CA51DA22050EDF6E8C
:101AC800000120EE0FF00001C951D9260001CA51CA
:101AD800DA22DF2A000120EE0EF00001C951D926D2
:101AE8000001CA51DA22050EDF6E1200C7A40CD01D
:101AF800000120EE0DF00001C951D9260001CA519C
:101B0800DA22080EDF6E1200000120EE0DF000014F
:101B1800C951D9260001CA51DA22070EDF6E120018
:101B2800000120EE0DF00001C951D9260001CA516B
:101B3800DA22060EDF6E12000DC012F0136A20EED4
:101B480034F00B50D9260C50DA22DF50146E1450A2
:101B58000D0DF3500B24156EF4500C20166E15C0A5
:101B6800D9FF16C0DAFFDF50D8B402D0FF0E12003A
:101B780020EE01F01550D9261650DA220DC0DFFFED
:101B880020EE02F01550D9261650DA220EC0DFFFDB
:101B9800030E1524016E000E1620026E10C004F00C
:101BA8000FC003F012C005F013C006F07AEC11F074
:101BB80020EE34F00B50D9260C50DA2210EE34F017
:101BC8000B50E1260C50E222E750116E1128030B4E
:101BD800DF6E15C0D9FF16C0DAFF010EDF6E010EE9
:101BE8001200E8CFB8F0000EAC6E000EAB6E00012C
:101BF8000001B8B1AC8800010001B8A302D0AC8CD8
:101C0800AB8C00010001B8B5AC8E00010001B8A78B
:101C180002D0AB8801D0AB8A00010001B8B9AC840E
:101C28009E9800010001B8BBAB8600010001B8AD69
:101C380002D09D8A01D09D9A9E9A00010001B8AFFA
:101C480002D09D8801D09D98B3C0AFFF0001B4C0F9
:101C5800B5F0B5C0B6F00001B76B0001B651B06E73
:101C6800AC8AAB8E949C948EACA81200ACBE1200C9
:101C7800948C1200E9CFA7F0EACFA8F0E1CFA9F041
:101C8800E2CFAAF0D9CFABF0DACFACF0F3CFADF01A
:101C9800F4CFAEF0F6CFAFF0F7CFB0F0F8CFB1F0A9
:101CA800F5CFB2F09EA603D09E9670EC12F0F2A487
:101CB80003D0F294B2EC12F06BEC0FF0B2C0F5FF67
:101CC800B1C0F8FFB0C0F7FFAFC0F6FFAEC0F4FF79
:101CD800ADC0F3FFACC0DAFFABC0D9FFAAC0E2FFCA
:101CE800A9C0E1FFA8C0EAFFA7C0E9FFA6C0FBFFA3
:101CF800A5C0FAFF110016EC11F000010001B8515F
:101D08000001B711D8B412000001B96F010E3F6E7F
:101D18000001B9510101010E00010001B46F010178
:101D2800360E00010001B36FB6EC11F00009D8B40B
:101D380007D00001B96F000E3F6E0001B9511200C3
:101D48000101010E00010001B46F01016C0E0001D8
:101D58000001B36FB6EC11F00009D8B407D0000148
:101D6800B96F000E3F6E0001B95112000A0E9DECCA
:101D780012F0D0D7000120EE34F00001B351D9267B
:101D88000001B451DA22000EDF6E000120EE35F0BA
:101D98000001B351D9260001B451DA22000EDF6EDA
:101DA8000001B56F000E00010001B66F0001B551CA
:101DB800030E00010001B66501D012000001000108
:101DC800B6510D0DF35000010001B325D96EF45042
:101DD80000010001B421DA6E000EDF6E000100017F
:101DE800B62B030E00010001B665E8D7120002EE1B
:101DF80049F0360EEE6AE806FDE101EE00F0A20EAB
:101E0800EE6AE806FDE10001C86BC76BC66BC56BDF
:101E1800C46B00EE33F0160EEE6AE806FDE1FA0E2A
:101E2800F66E250EF76E000EF86E0900F5CFCBF0B2
:101E38000900F5CFCCF0E40EF66E250EF76E000E15
:101E4800F86E00EE49F010EE08F00900F5CFEEFF4D
:101E5800E550E150FAE1000EF86E000103EF08F0DA
:101E68000001B76F000E3F6E0001B7510101010E6E
:101E780000010001B46F01016C0E00010001B36F95
:101E8800BEEC0EF00101010E00010001B46F01016A
:101E9800360E00010001B36FBEEC0EF00101010E19
:101EA80000010001B46F0101000E00010001B36FD1
:101EB800BEEC0EF00201020E00010001B46F020137
:101EC800490E00010001B36FBEEC0EF012003F6630
:101ED80001D01200F3EC10F0000100018351000161
:101EE8008211D8A41200E9EC12F00001000181511E
:101EF80000018011D8B412000101010E0001000197
:101F0800816F0101360E00010001806F07EC12F0AD
:101F18000009D8A412000101010E00010001816F1F
:101F280001016C0E00010001806F07EC12F000093E
:101F3800D8B4FAEC12F01200E8CFB7F00001B66F8F
:101F4800000E00010001B86F0001B6510001B66F24
:101F5800000E00010001B86F0001B65116D0ACA206
:101F6800FED700010001B851010DF3500001000136
:101F7800B425D96EF45000010001B521DA6EDF50A6
:101F8800A8EC12F000010001B82B00010001B751C4
:101F980000010001B85DD8B01200E1D700010001CE
:101FA800B6C0BCF000010001B5C0BBF000010001E3
:101FB800B4C0BAF000010001B3C0B9F012D0BBC080
:101FC800D9FFBCC0DAFFB9C0E1FFBAC0E2FFDFCF7A
:101FD800E7FF00010001BB4BBC2B00010001B94B1E
:101FE800BA2B00010001B707D8A0B8070001B7292C
:101FF800D8B4B829D8B41200E2D70001000183C0D0
:1020080089F00001000182C088F00001000181C050
:1020180087F00001000180C086F012D088C0D9FF87
:1020280089C0DAFF86C0E1FF87C0E2FFDFCFE7FFA4
:1020380000010001884B892B00010001864B872B8A
:10204800000100018407D8A0850700018429D8B4BD
:102058008529D8B41200E2D7E8CFB4F00001B36FF5
:10206800010E00010001C86F0001B351000120EE0C
:102078001CF00001C951D9260001CA51DA22000119
:10208800B4C0DFFF000EC66E000EC56E000EC76E30
:10209800630EC86EC650F00B0809C66EC68A800E5D
:1020A800C76E8B868B88948694881200E8CFB3F02D
:1020B800C7B41200000120EE0AF00001C951D92668
:1020C8000001CA51DA220001B3C0DFFF000120EE8F
:1020D8000BF00001C951D9260001CA51DA22000EBD
:1020E800DF6EC580000120EE0DF00001C951D92630
:1020F8000001CA51DA22100EDF6E12000001B4C0CE
:1021080052F00001B3C051F020EE04F05150D9262E
:102118005250DA22000EDF6E0001B56F000E426EDB
:102128000001B5510001B56F000E446E0001B551B4
:102138000001B56F000E436E0001B5510001B56F87
:10214800000E406E0001B55112009EAA15D04250F3
:10215800010D450EF324D96E000EF420DA6E81ECE1
:1021680012F0DF6E20EE04F05150D9265250DA22D8
:10217800DF2A422AF0EC0BF041A61200AB98AB889C
:10218800216E1E0E176E2150000E196E000E186E6D
:10219800000E5DEC12F01200F2AC08D0000E000147
:1021A8000001B66F000E0001B56F1200C5EC12F009
:1021B80000010001B4510001B311D8B408D0000ED9
:1021C80000010001B66F000E0001B56F1200000E8D
:1021D80000010001B66F010E0001B56F1200F2ACEC
:1021E80008D0000E00010001836F000E0001826F0D
:1021F8001200E9EC12F00001000181510001801188
:10220800D8B408D0000E00010001836F000E000151
:10221800826F1200000E00010001836F010E0001A1
:10222800826F1200D0EC10F000010001B6510001DD
:10223800B511D8A411D0C5EC12F000010001B451B9
:102248000001B311D8A408D0000E00010001B86F36
:10225800010E0001B76F1200000E00010001B86FF7
:10226800000E0001B76F1200E8CFADF10101010EB9
:1022780000010001BE6F01016C0E00010001BD6F7D
:10228800ADC1BFF001010001AAC1C1F00101000107
:10229800A9C1C0F001010001ACC1C3F001010001F6
:1022A800ABC1C2F0D3EC0AF01200E8CFADF10101E6
:1022B800010E00010001BE6F0101360E0001000190
:1022C800BD6FADC1BFF001010001AAC1C1F001019C
:1022D8000001A9C1C0F001010001ACC1C3F00101B6
:1022E8000001ABC1C2F0D3EC0AF0120004C00AF03E
:1022F80003C009F002C008F001C007F00ED009C001
:10230800D9FF0AC0DAFF07C0E1FF08C0E2FFDFCF4C
:10231800E7FF094A0A2A074A082A0506D8A0060636
:102328000528D8B40628D8B41200E9D7E8CFB4F005
:1023380094869488B4C0C8FF000EC76E000EC66E9F
:10234800000EC56E0E0EC612C78E948694880001C4
:10235800B36F020E00010001C86F0001B351C580C0
:10236800C68A1200000120EE35F00001B351D926CB
:102378000001B451DA22DF500001B56F0001B551F8
:102388000D0DF35000010001B325D96EF450000182
:102398000001B421DA6EDF501200E8CF99F0010194
:1023A800010E000100018B6F01016C0E000100019C
:1023B8008A6F99C08CF096C08DF00001000198C01A
:1023C8008FF00001000197C08EF06EEC0BF0120048
:1023D800E8CF99F00101010E000100018B6F0101A6
:1023E800360E000100018A6F99C08CF096C08DF0FE
:1023F8000001000198C08FF00001000197C08EF025
:102408006EEC0BF01200000120EE35F00001805157
:10241800D92600018151DA22DF500001826F0001C4
:1024280082510D0DF350000100018025D96EF45042
:10243800000100018121DA6EDF501200E8CFB3F00D
:1024480000010001B3517F0BD56E000ED76E000E50
:10245800D66EF29400010001B3AF02D0F28A01D027
:10246800F29AD58E120000010001B551D8B40CD0F3
:10247800B3C0D9FFB4C0DAFFDF500001B66F000166
:10248800B6390F0B0F0B1200FF0E1200E8CF1AF02F
:102498000101010E0C6E01016C0E0B6E1AC00DF0DD
:1024A80017C00EF019C010F018C00FF0A0EC0DF016
:1024B8001200E8CF1AF00101010E0C6E0101360E70
:1024C8000B6E1AC00DF017C00EF019C010F018C02E
:1024D8000FF0A0EC0DF0120006D0F4EC05F012009D
:1024E8005DEC00F0120000010001C851010AD8B4E7
:1024F800F4D7030AD8A41200F3D7F20E4116ABACF6
:1025080003D04190ABB04180ABB44184ABB24186BB
:10251800AECF01F001501200D7EC12F001C005F067
:1025280002C006F0000E026E000E016ECEEC12F034
:102538001200E8CFB3F0FA0E00F0E82EFDD7000144
:102548000001B32FF8D71200E8CFB3F0ACAC03D03A
:10255800AC9041B2AC80B3C0ADFF1200000E0001D8
:102568000001816F000E0001806FE0EC12F0120094
:10257800B3C0D9FFB4C0DAFF000EDE6E000EDD6E08
:102588001200000EF2AE010E00010001B36F00014F
:10259800B46B120001C003F002C004F004C0CFFF06
:1025A80003C0CEFF1200CECF03F0CFCF04F003C09C
:1025B80001F004C002F0120080C082F081C083F0F4
:1025C80083C0D7FF82C0D6FF1200000EF2AE010E04
:1025D80000010001806F0001816B120058000300A8
:1025E80060000A00D08EF28EF28C1200D38E0300A7
:0425F80012001700B6
:067FF80080F4C5FFFFF15B
:00000001FF
