:040000005BEF00F0C2
:0C000800FACFC9F0FBCFCAF06DEF08F092
:10001800D8CF1EF0E8CF1FF0E0CF20F0FACF21F0C4
:10002800FBCF22F0E9CF23F0EACF24F0E1CF25F08F
:10003800E2CF26F0D9CF27F0DACF28F0F3CF29F096
:10004800F4CF2AF0F6CF2BF0F7CF2CF0F8CF2DF025
:10005800F5CF2EF09EA003D09E901FEC0BF09EAA29
:1000680003D09E9A1FEC08F02EC0F5FF2DC0F8FFB4
:100078002CC0F7FF2BC0F6FF2AC0F4FF29C0F3FFFE
:1000880028C0DAFF27C0D9FF26C0E2FF25C0E1FF5C
:1000980024C0EAFF23C0E9FF22C0FBFF21C0FAFF0A
:1000A80020C0E0FF1FC0E8FF1EC0D8FF100002EF0D
:1000B8000AF00001BD6F000E00010001C76F0001CA
:1000C800BD510001BD6F000E00010001C26F0001AB
:1000D800BD510001BD6F000E00010001C66F000197
:1000E800BD510001BD6F000E00010001C56F000188
:1000F800BD510001BD6F000E00010001C36F00017A
:10010800BD51C6AC29D0C69C000120EE0CF0000100
:10011800E151D9260001E251DA22050EDF6E000115
:10012800BD6F010E00010001C36F0001BD51000148
:1001380020EE0EF00001E151D9260001E251DA2249
:10014800DF2A000120EE0DF00001E151D92600015F
:10015800E251DA22040EDF6EC7A00AD0C9CFC4F07C
:100168000001BD6F010E00010001C76F0001BD5104
:1001780000010001C367CED1B7D1C7A6CBD100011A
:100188000001C751B3EC06F0000120EE0CF00001AD
:10019800E151D9260001E251DA22080EDF62BAD114
:1001A8000001BD6F000E00010001C76F0001BD51C5
:1001B8000001BD6F010E00010001C56F87D1C7A8FE
:1001C80030D0000120EE0BF00001E151D9260001EA
:1001D800E251DA22DF2A00010001C751D8B479D1EF
:1001E800C7BA09D00001BD6F010E00010001C66F3A
:1001F8000001BD516ED1000120EE0EF00001E15169
:10020800D9260001E251DA22DF2A000120EE0DF0A2
:100218000001E151D9260001E251DA22060EDF6E13
:1002280058D100010001C751D8B474D1000120EEA3
:100238000BF00001E151D9260001E251DA22DF2A50
:10024800C7BA19D0C7B40BD0000120EE0CF00001DA
:10025800E151D9260001E251DA22070E76D00001D9
:1002680020EE0CF00001E151D9260001E251DA221A
:10027800080EDF6E1DD1000120EE0EF00001E151E5
:10028800D9260001E251DA22DF2A000120EE0CF023
:100298000001E151D9260001E251DA22050EDF6E94
:1002A800000120EE0DF00001E151D9260001E251D4
:1002B800DA22060E4AD0000120EE1AF00001E151C0
:1002C800D9260001E251DA22DF500001BD6F00019A
:1002D80020EE19F00001E151D9260001E251DA229D
:1002E800DF500001BD5DD8B0F4D0000120EE1AF057
:1002F8000001E151D9260001E251DA22DF50000164
:10030800BD6F0001BD51010D0F0EF326000EF42242
:10031800F35000010001E125D96EF45000010001FD
:10032800E221DA6EDF50C96E000120EE1AF00001FA
:10033800E151D9260001E251DA22DF2A0001BD6F1E
:10034800010E00010001C26FC1D0DF6EE3D0C7A863
:1003580062D0000120EE0BF00001E151D926000126
:10036800E251DA22DF2A00010001C751D8B44AD08D
:10037800C7AA27D0000120EE0AF00001E151D926D2
:100388000001E251DA22DF500001BD6F0001BD51CA
:10039800010DF35000010001E125D96EF450000170
:1003A8000001E221DA6E0001C4C0DFFF000120EE87
:1003B8000AF00001E151D9260001E251DA22DF2AD0
:1003C80021D0000120EE0EF00001E151D9260001F4
:1003D800E251DA22DF2A000120EE0DF00001E1519E
:1003E800D9260001E251DA22060EDF6E000120EE66
:1003F8000CF00001E151D9260001E251DA22050E84
:10040800DF6E67D00001BD6F010E00010001C66FED
:100418000001BD515ED000010001C751D8B47AD0A7
:10042800000120EE0BF00001E151D9260001E25154
:10043800DA22DF2AC7AA27D0000120EE0AF000013D
:10044800E151D9260001E251DA22DF500001BD6FE7
:100458000001BD51010DF35000010001E125D96EE5
:10046800F45000010001E221DA6E0001C4C0DFFF90
:10047800000120EE0AF00001E151D9260001E25105
:10048800DA22DF2A47D0C7A4B6D6000120EE0CF046
:100498000001E151D9260001E251DA22080EDF6E8F
:1004A8000001BD6F010E00010001C66F0001BD51C2
:1004B8000001BD6F010E00010001C56F0001BD51B3
:1004C8000001BD6F000E00010001C76F0001BD51A2
:1004D80021D0000120EE0CF00001E151D9260001E5
:1004E800E251DA22050E31D7000120EE0CF00001AE
:1004F800E151D9260001E251DA22DF50050AD8B4C9
:100508003CD6030AD8B45BD6010AD8B420D70F0A60
:10051800D8B4D1D600010001C76705D00001000199
:10052800C251D8B402D0C6A8C688000120EE0AF08D
:100538000001E151D9260001E251DA22080EDF64F8
:1005480024D000010001C66720D0000120EE0CF085
:100558000001E151D9260001E251DA22050EDF6ED1
:10056800000120EE0EF00001E151D9260001E25110
:10057800DA22DF2A000120EE0DF00001E151D92630
:100588000001E251DA22070EDF6E00010001C651B8
:10059800D8B448D0000120EE0BF00001E151D92673
:1005A8000001E251DA22000110EE0AF00001E151E7
:1005B800E1260001E251E222E7500001BD6F00018F
:1005C800BD51010DF35000010001E125E16EF45029
:1005D80000010001E221E26EDFCFE7FF0001BD6FFD
:1005E800280E00010001BA6F0001BD510001000191
:1005F800E2C0BCF000010001E1C0BBF0000120EE48
:100608000AF00001E151D9260001E251DA22DF5057
:100618000001BE6F0001BE2963EC0BF0000120EE63
:100628000AF04BD0000120EE0EF00001E151D9266E
:100638000001E251DA22DF50D8B447D0000120EEA1
:100648000EF00001E151D9260001E251DA22DF5013
:1006580000010001BF6F000120EE0DF00001E15123
:10066800D9260001E251DA22DF5000010001C06FF3
:10067800000120EE0BF00001E151D9260001E25102
:10068800DA22DF5000010001C16F0001BD6F290EA1
:1006980000010001BA6F0001BD510001000E000108
:1006A8000001BC6F0001BF0E00010001BB6F030E0B
:1006B80063EC0BF0000120EE0EF00001E151D926A9
:1006C8000001E251DA22000EDF6E00010001C5517F
:1006D800D8B412000001BD6F2A0E00010001BA6FE4
:1006E8000001BD5100010001E2C0BCF000010001A1
:1006F800E1C0BBF0000E63EC0BF00001BD6F000E13
:1007080000010001C56F0001BD511200E8CFDCF007
:10071800000E00010001816F010E0001806F0001D1
:1007280020EE19F00001E151D9260001E251DA2248
:10073800000EDF6E9DD0000120EE19F00001E1519E
:10074800D9260001E251DA22DF500001D96F0001F9
:1007580020EE26F00001E151D9260001E251DA220B
:10076800DF500001D95DD8B004D0000120EE19F0A7
:100778003CD0000120EE26F00001E151D92600010D
:10078800E251DA22DF50D8B42DD0000120EE26F055
:100798000001E151D9260001E251DA22DF500001BF
:1007A800D96FDA6B1B0E0001D927000EDA2300017E
:1007B800D95100010001E125D96E0001DA5100018B
:1007C8000001E221DA6E000110EE19F00001E1519A
:1007D800E1260001E251E222E7500001DB6F00014F
:1007E800DB512BD0000120EE26F00001E151D92683
:1007F8000001E251DA22DF500001D96F0001D9511E
:10080800010D1C0EF326000EF422F3500001000126
:10081800E125D96EF45000010001E221DA6E0001F1
:1008280010EE19F00001E151E1260001E251E22247
:10083800E7500001DA6F0001DA51010D0F0EF326BF
:10084800000EF422F35000010001E125E16EF4509E
:1008580000010001E221E26EDFCFE7FF000120EE98
:1008680019F00001E151D9260001E251DA22DF2A0C
:10087800000120EE19F00001E151D9260001E251F2
:10088800DA22DF500001D96F00010001DC510001BC
:10089800D95DD8A050D7000E00010001816F000E6D
:1008A8000001806F000120EE19F00001E151D92606
:1008B8000001E251DA220001DCC0DFFF000120EE76
:1008C8001AF00001E151D9260001E251DA22010EA5
:1008D800DF6E000120EE0FF00001E151D926000182
:1008E800E251DA22DF50C96EC6881200820ED36E3A
:1008F8009B9C0101010E00010001D86F0101D10E7E
:1009080000010001D76FB1EC0BF00101010E0001ED
:100918000001D86F0101D60E00010001D76F4CEC21
:1009280006F00101010E00010001D86F0101CD0E92
:1009380000010001D76FDAEC0BF075EC09F0000E3E
:10094800936E000E8A6E9F0E4EEC0BF09F909F9A4E
:100958009F869E0E78EC0BF09D860DEC0CF0BBECA0
:1009680008F00101010E01010101B16F0101D00E72
:1009780001010101B06F0101010E01010101B36F15
:100988000101BF0E01010101B26F0A0E6AEC0AF003
:1009980001010101CF6F01010101CFBFE0D748D0AC
:1009A8000101010E01010101B36F0101CB0E01012B
:1009B8000101B26F01010101D0C1B4F101010101CE
:1009C800B56B01010101CF5101010101B66F0101B0
:1009D800B76B0101B6BFB7070101010E01010101A3
:1009E800B96F0101BF0E01010101B86FFAEC08F0FF
:1009F800B6D7BFC1CAF1B3D70101010E000100018A
:100A0800D86F0101BF0E00010001D76F060E8AECF6
:100A180003F0A5D70101010E00010001D86F010103
:100A2800BF0E00010001D76F010E17EC07F097D732
:100A380001010101D0510A0AD8B4B2D7220AD8B4A8
:100A4800D8D7010AD8B4D5D7030AD8B4D5D7050A58
:100A5800D8B4E0D784D7010120EE35F00101A251C6
:100A6800D9260101A351DA22DF5001010101AB6F40
:100A780001010101AB510D0DF35001010101A22546
:100A880001010101AE6FF45001010101A32101012F
:100A9800AF6F010EAEC1D9FFAFC1DAFFDF6274D00C
:100AA800010120EE01F00101AE51D9260101AF513B
:100AB800DA22DF5001010101A45DD8B002D0FD0E99
:100AC8001200010120EE01F00101AE51D926010109
:100AD800AF51DA22DF500101A96F0101A9510101CB
:100AE8000101AC6F0101AD6B01010001A8C1D8F093
:100AF80001010001A7C1D7F0030E01010101AE25D4
:100B08000101A96F000E01010101AF210101AA6FC6
:100B1800A9C1D9F0AAC1DAF0ACC1DBF0ADC1DCF0F3
:100B2800ACEC09F0010120EE35F00101A251D92603
:100B38000101A351DA22010110EE35F00101A251A1
:100B4800E1260101A351E222E7500101A96F010149
:100B5800A929030BDF6E010120EE02F00101AE515D
:100B6800D9260101AF51DA22A5C1E1FFA6C1E2FFF2
:100B7800DFCFE7FFAEC1D9FFAFC1DAFF000EDF6EEE
:100B880001010101AC511200FC0E1200010101012A
:100B9800A4C1A9F101010101AA6B010120EE34F001
:100BA8000101A251D9260101A351DA22DF50010126
:100BB8000101AB6F01010101AB510D0DF3500101B2
:100BC8000101A22501010101AC6FF45001010101ED
:100BD800A3210101AD6FACC1D9FFADC1DAFFDF5070
:100BE800D8B402D0FF0E1200010120EE01F001017D
:100BF800AC51D9260101AD51DA220101A4C1DFFFB0
:100C0800010120EE02F00101AC51D9260101AD51DC
:100C1800DA220101A5C1DFFF030E01010101AC25A4
:100C280000010001D76F000E01010101AD21000193
:100C3800D86F01010001A7C1DAF001010001A6C1C6
:100C4800D9F0A9C1DBF0AAC1DCF0ACEC09F00101D4
:100C580020EE34F00101A251D9260101A351DA2274
:100C6800010110EE34F00101A251E1260101A35166
:100C7800E222E7500101A86F0101A829030BDF6EEA
:100C8800ACC1D9FFADC1DAFF010EDF6E010E120053
:100C980000010001D8C0E2F000010001D7C0E1F076
:100CA800E1C0D9FFE2C0DAFF000EDF6E000120EEDE
:100CB80001F00001E151D9260001E251DA22000ECB
:100CC800DF6E000120EE02F00001E151D92600019B
:100CD800E251DA22000EDF6E000120EE0AF0000178
:100CE800E151D9260001E251DA22000EDF6E00013F
:100CF80020EE0BF00001E151D9260001E251DA2281
:100D0800000EDF6E000120EE0CF00001E151D92643
:100D18000001E251DA22050EDF6E000120EE0EF02E
:100D28000001E151D9260001E251DA22000EDF6EFE
:100D3800000120EE27F00001E151D9260001E2511F
:100D4800DA22000EDF6E000120EE26F00001E151EC
:100D5800D9260001E251DA22000EDF6E1200E8CF38
:100D68002FF0000120EE0BF00001E151D92600011F
:100D7800E251DA22010EDF6E000120EE0AF00001D6
:100D8800E151D9260001E251DA22000EDF6E2F5020
:100D9800D8B43DD0C7AA21D0000120EE0CF0000144
:100DA800E151D9260001E251DA22050EDF6E000179
:100DB80020EE0EF00001E151D9260001E251DA22BD
:100DC800DF2A000120EE0DF00001E151D9260001D3
:100DD800E251DA22050EDF6E1200C7A40CD0000122
:100DE80020EE0CF00001E151D9260001E251DA228F
:100DF800080EDF6E1200000120EE0CF00001E15138
:100E0800D9260001E251DA22070EDF6E1200000136
:100E180020EE0CF00001E151D9260001E251DA225E
:100E2800060EDF6E1200000120EE0CF00001E15109
:100E3800D9260001E251DA22DF50080AD8B412009C
:100E48000001000181518011D8A41200000120EE98
:100E580026F00001E151D9260001E251DA22DF50E3
:100E68000001D96F070E0001D95DD8B02ED0D7C0C8
:100E7800D9FFD8C0DAFF000110EE26F00001E151D9
:100E8800E1260001E251E222E7500001D96F00019A
:100E9800D951010D1C0EF326000EF422F350000167
:100EA8000001E125E16EF45000010001E221E26E4B
:100EB800DFCFE7FF000120EE26F00001E151D9263F
:100EC8000001E251DA22DF2A1200000120EE26F0AA
:100ED8000001E151D9260001E251DA22000EDF6E4D
:100EE80012000DC012F0136A20EE34F00B50D92610
:100EF8000C50DA22DF50146E14500D0DF3500B24F1
:100F0800156EF4500C20166E15C0D9FF16C0DAFF06
:100F1800DF50D8B402D0FF0E120020EE01F01550B9
:100F2800D9261650DA220DC0DFFF20EE02F0155048
:100F3800D9261650DA220EC0DFFF030E1524016EE3
:100F4800000E1620026E10C004F00FC003F012C08D
:100F580005F013C006F08BEC0AF020EE34F00B50CD
:100F6800D9260C50DA2210EE34F00B50E1260C5042
:100F7800E222E750116E1128030BDF6E15C0D9FF6E
:100F880016C0DAFF010EDF6E010E12003BC040F002
:100F9800416A20EE34F03950D9263A50DA22DF502F
:100FA800426E42500D0DF3503924436EF4503A20EE
:100FB800446E43C0D9FF44C0DAFFDF50D8B402D032
:100FC800FF0E120020EE01F04350D9264450DA22D9
:100FD8003BC0DFFF20EE02F04350D9264450DA220E
:100FE8003CC0DFFF030E43242F6E000E4420306EFA
:100FF8003EC032F03DC031F040C033F041C034F063
:10100800ABEC0AF020EE34F03950D9263A50DA2207
:1010180010EE34F03950E1263A50E222E7503F6EA4
:101028003F28030BDF6E43C0D9FF44C0DAFF010E2F
:10103800DF6E010E12009EAA3CD020EE04F04E5046
:10104800D9264F50DA22DF501B6E1B50010DF3508A
:101058004E24D96EF4504F20DA6EC0EC0BF0DF6EE0
:1010680020EE04F04E50D9264F50DA22DF2A20EE27
:1010780004F04E50D9264F50DA22040EDF6219D000
:101088001B6E1F0E176E1B504FC019F04EC018F084
:1010980020EE04F04E50D9264F50DA22DF508CEC67
:1010A8000BF020EE04F04E50D9264F50DA22000EF5
:1010B800DF6E4DA61200AB98AB881B6E1E0E176E26
:1010C8001B50000E196E000E186E000E8CEC0BF003
:1010D8001200E9CFCBF0EACFCCF0E1CFCDF0E2CFF0
:1010E800CEF0D9CFCFF0DACFD0F0F3CFD1F0F4CF24
:1010F800D2F0F6CFD3F0F7CFD4F0F8CFD5F0F5CFC4
:10110800D6F09EA603D09E965DEC00F0F2A410D017
:101118008AB002D0010E01D0000E0001C86F8A50BB
:101128000001C819FE0BC8198A6EF294CBEC0AF0BC
:10113800DBEC09F0D6C0F5FFD5C0F8FFD4C0F7FF47
:10114800D3C0F6FFD2C0F4FFD1C0F3FFD0C0DAFF9E
:10115800CFC0D9FFCEC0E2FFCDC0E1FFCCC0EAFFCF
:10116800CBC0E9FFCAC0FBFFC9C0FAFF110048ECB9
:101178000AF000010001DC510001DB11D8B41200B3
:101188000001DD6F010E4C6E0001DD510001000E03
:1011980000010001D86F0001840E00010001D76F23
:1011A80004EC0BF00009D8B407D00001DD6F000E85
:1011B8004C6E0001DD5112000101010E0001000119
:1011C800D86F01016C0E00010001D76F04EC0BF021
:1011D8000009D8B407D00001DD6F000E4C6E000185
:1011E800DD5112000A0ECFEC0BF0D0D7000E010132
:1011F8000101BE6F000E0101BD6F82C0BDF183C049
:10120800BEF100010001824B832B000100018351D4
:10121800800A7F0F000ED8B4825DD8A007D0000ED8
:1012280000010001836F000E0001826F01010101BE
:10123800B9C1BCF101010101B8C1BBF10101BA6F2B
:101248002F0E01010101AE6F0101BA510101010E1A
:1012580001010101B06F0101BD0E01010101AF6F74
:10126800020EE9EC0AF01200000120EE34F0000151
:10127800D751D9260001D851DA22000EDF6E0001BD
:1012880020EE35F00001D751D9260001D851DA22D5
:10129800000EDF6E0001D96F000E00010001DA6F49
:1012A8000001D951030E00010001DA6501D01200D6
:1012B80000010001DA510D0DF35000010001D7259E
:1012C800D96EF45000010001D821DA6E000EDF6EED
:1012D80000010001DA2B030E00010001DA65E8D7EE
:1012E80012000001DB6F000E4C6E0001DB510101A2
:1012F800010E00010001D86F01016C0E0001000110
:10130800D76F38EC09F00001000E00010001D86F1A
:101318000001840E00010001D76F38EC09F00101CB
:10132800010E00010001D86F0101360E0001000115
:10133800D76F38EC09F00101010E00010001D86FE8
:101348000101000E00010001D76F38EC09F012000E
:1013580000010001DAC0E0F000010001D9C0DFF0AF
:1013680000010001D8C0DEF000010001D7C0DDF0A7
:1013780012D0DFC0D9FFE0C0DAFFDDC0E1FFDEC078
:10138800E2FFDFCFE7FF00010001DF4BE02B0001A8
:101398000001DD4BDE2B00010001DB07D8A0DC07D4
:1013A8000001DB29D8B4DC29D8B41200E2D74C6696
:1013B80001D0120037EC0BF032503110D8A41200D3
:1013C80007EC0CF030502F10D8B412000001000EBA
:1013D800306E0001840E2F6E9FEC0BF00009D8A42C
:1013E80012000101010E306E01016C0E2F6E9FEC90
:1013F8000BF00009D8B411EC0CF0120001EE00F06B
:10140800A20EEE6AE806FDE100EE80F03A0EEE6A02
:10141800E806FDE100EE46F0080EEE6AE806FDE19A
:10142800280EF66E180EF76E000EF86E0900F5CF4E
:1014380050F00900F5CF51F0000EF86E00017AEF78
:1014480004F0F2AC08D0000E00010001DA6F000EC3
:101458000001D96F1200E3EC0BF000010001D85134
:101468000001D711D8B408D0000E00010001DA6FCE
:10147800000E0001D96F1200000E00010001DA6FA2
:10148800010E0001D96F120025EC0AF000010001DD
:10149800DA510001D911D8A411D0E3EC0BF0000106
:1014A8000001D8510001D711D8A408D0000E0001BE
:1014B8000001DC6F010E0001DB6F1200000E00015D
:1014C8000001DC6F000E0001DB6F1200E8CFB4F101
:1014D8000001000E01010101A36F0001840E01014A
:1014E8000101A26FB4C1A4F101010101B1C1A6F1CA
:1014F80001010101B0C1A5F101010101B3C1A8F1C8
:1015080001010101B2C1A7F12FEC05F0120004C0DE
:101518000AF003C009F002C008F001C007F00ED0BD
:1015280009C0D9FF0AC0DAFF07C0E1FF08C0E2FF1F
:10153800DFCFE7FF094A0A2A074A082A0506D8A082
:1015480006060528D8B40628D8B41200E9D732C050
:1015580038F031C037F030C036F02FC035F00ED03B
:1015680037C0D9FF38C0DAFF35C0E1FF36C0E2FF27
:10157800DFCFE7FF374A382A354A362A3306D8A05C
:1015880034063328D8B43428D8B41200E9D78A806E
:101598008A90000E306E000E2F6EFEEC0BF00001EC
:1015A800BD6F0A0E00010001BA6F0001BD510001B4
:1015B800000E00010001BC6F0001BE0E0001000119
:1015C800BB6F020E63EC0BF01200E8CFB1F1000123
:1015D800000E01010101A36F0001840E0101010148
:1015E800A26FB1C1A4F1AEC1A5F101010101B0C161
:1015F800A7F101010101AFC1A6F1CAEC05F0120083
:10160800000120EE35F00001D751D9260001D8514C
:10161800DA22DF500001D96F0001D9510D0DF350C6
:1016280000010001D725D96EF45000010001D8212E
:10163800DA6EDF501200F5EC0BF001C01CF002C0AE
:101648001DF01B6E0B0E176E1B50000E196E000E50
:10165800186E000E8CEC0BF0000E026E000E016E80
:10166800ECEC0BF01200F2AC05D0000E326E000E5E
:10167800316E120007EC0CF030502F10D8B405D0A2
:10168800000E326E000E316E1200000E326E010E28
:10169800316E1200E8CFD7F000010001D7517F0B5F
:1016A800D56E000ED76E000ED66EF29400010001C2
:1016B800D7AF02D0F28A01D0F29AD58E1200E8CFC5
:1016C80045F00001000E3A6E0001840E396E45C0E7
:1016D8003BF0BAC03CF00001BCC03EF00001BBC00A
:1016E8003DF0CAEC07F01200E8CFD7F09486948852
:1016F800D7C0C8FF000EC76E000EC66E000EC56EBE
:101708000E0EC612C78E94869488C580C68A1200AB
:10171800E8CF1AF00101010E0C6E01016C0E0B6E80
:101728001AC00DF017C00EF019C010F018C00FF055
:1017380075EC07F0120020EE35F02F50D926305006
:10174800DA22DF50316E31500D0DF3502F24D96E4F
:10175800F4503020DA6EDF5012000001D8C04FF08C
:101768000001D7C04EF020EE04F04E50D9264F505D
:10177800DA22000EDF6E1200F20E4D16ABAC03D06B
:101788004D90ABB04D80ABB44D84ABB24D86AECF6F
:1017980001F001501200E8CFD7F0FA0E00F0E82E61
:1017A800FDD700010001D72FF8D71200D7C0D9FF05
:1017B800D8C0DAFF000EDE6E000EDD6E1200000EDD
:1017C800F2AE010E00010001D76F0001D86B1200C4
:1017D80001C003F002C004F004C0CFFF03C0CEFF75
:1017E8001200CECF03F0CFCF04F003C001F004C045
:1017F80002F012002FC031F030C032F032C0D7FFF3
:1018080031C0D6FF1200000EF2AE010E2F6E306A04
:101818001200D08EF28EF28C1200D38E03001200CA
:0218280064005A
:067FF80080F4C5FFFFF15B
:00000001FF
