:040000005BEF00F0C2
:0C000800FACFCBF0FBCFCCF00AEF05F0F4
:10001800D8CF1EF0E8CF1FF0E0CF20F0FACF21F0C4
:10002800FBCF22F0E9CF23F0EACF24F0E1CF25F08F
:10003800E2CF26F0D9CF27F0DACF28F0F3CF29F096
:10004800F4CF2AF0F6CF2BF0F7CF2CF0F8CF2DF025
:10005800F5CF2EF09EA003D09E9021EC09F09EAA29
:1000680003D09E9AC1EC05F02EC0F5FF2DC0F8FF15
:100078002CC0F7FF2BC0F6FF2AC0F4FF29C0F3FFFE
:1000880028C0DAFF27C0D9FF26C0E2FF25C0E1FF5C
:1000980024C0EAFF23C0E9FF22C0FBFF21C0FAFF0A
:1000A80020C0E0FF1FC0E8FF1EC0D8FF100021EFEE
:1000B80008F00001BF6F000E00010001C96F0001C8
:1000C800BF510001BF6F000E00010001C46F0001A5
:1000D800BF510001BF6F000E00010001C86F000191
:1000E800BF510001BF6F000E00010001C76F000182
:1000F800BF510001BF6F000E00010001C56F000174
:10010800BF51C6AC20D0C69C20EE0CF04C50D9266E
:100118004D50DA22050EDF6E0001BF6F010E00019F
:100128000001C56F0001BF5120EE0EF04C50D926DA
:100138004D50DA22DF2A20EE0DF04C50D9264D50D2
:10014800DA22040EDF6EC7A00AD0C9CFC6F00001BC
:10015800BF6F010E00010001C96F0001BF5100010E
:100168000001C56774D160D1C7A671D10001000133
:10017800C9515CEC06F020EE0CF04C50D9264D50DD
:10018800DA22080EDF6263D10001BF6F000E0001A2
:100198000001C96F0001BF510001BF6F010E0001CE
:1001A8000001C76F36D1C7A827D020EE0BF04C50FE
:1001B800D9264D50DA22DF2A00010001C951D8B4EE
:1001C8002BD1C7BA09D00001BF6F010E0001000191
:1001D800C86F0001BF5120D120EE0EF04C50D92637
:1001E8004D50DA22DF2A20EE0DF04C50D9264D5022
:1001F800DA22060EDF6E10D100010001C951D8B411
:1002080026D120EE0BF04C50D9264D50DA22DF2AA9
:10021800C7BA13D0C7B408D020EE0CF04C50D9267A
:100228004D50DA22070E5AD020EE0CF04C50D92649
:100238004D50DA22080EDF6EDED020EE0EF04C5064
:10024800D9264D50DA22DF2A20EE0CF04C50D92660
:100258004D50DA22050EDF6E20EE0DF04C50D926F7
:100268004D50DA22060E3AD020EE1AF04C50D9261C
:100278004D50DA22DF500001BF6F20EE19F04C50CC
:10028800D9264D50DA22DF500001BF5DD8B0C4D066
:1002980020EE1AF04C50D9264D50DA22DF500001DA
:1002A800BF6F0001BF51010D0F0EF326000EF4229F
:1002B800F3504C24D96EF4504D20DA6EDF50C96EDD
:1002C80020EE1AF04C50D9264D50DA22DF2A0001D0
:1002D800BF6F010E00010001C46F9BD0DF6EB7D065
:1002E800C7A84CD020EE0BF04C50D9264D50DA223E
:1002F800DF2A00010001C951D8B437D0C7AA1DD0E0
:1003080020EE0AF04C50D9264D50DA22DF50000179
:10031800BF6F0001BF51010DF3504C24D96EF4504A
:100328004D20DA6E0001C6C0DFFF20EE0AF04C5007
:10033800D9264D50DA22DF2A18D020EE0EF04C5084
:10034800D9264D50DA22DF2A20EE0DF04C50D9265E
:100358004D50DA22060EDF6E20EE0CF04C50D926F6
:100368004D50DA22050EDF6E57D00001BF6F010E27
:1003780000010001C86F0001BF514ED0000100010B
:10038800C951D8B464D020EE0BF04C50D9264D504A
:10039800DA22DF2AC7AA1DD020EE0AF04C50D9264F
:1003A8004D50DA22DF500001BF6F0001BF51010D2F
:1003B800F3504C24D96EF4504D20DA6E0001C6C0BB
:1003C800DFFF20EE0AF04C50D9264D50DA22DF2A02
:1003D8003ED0C7A401D720EE0CF04C50D9264D5082
:1003E800DA22080EDF6E0001BF6F010E0001000166
:1003F800C86F0001BF510001BF6F010E000100016D
:10040800C76F0001BF510001BF6F000E000100015E
:10041800C96F0001BF511BD020EE0CF04C50D926FB
:100428004D50DA22050E5AD720EE0CF04C50D92642
:100438004D50DA22DF50050AD8B496D6030AD8B44C
:10044800B2D6010AD8B44CD70F0AD8B40DD70001D8
:100458000001C96705D000010001C451D8B402D019
:10046800C6A8C68820EE0AF04C50D9264D50DA228C
:10047800080EDF641BD000010001C86717D020EE0A
:100488000CF04C50D9264D50DA22050EDF6E20EEC6
:100498000EF04C50D9264D50DA22DF2A20EE0DF00E
:1004A8004C50D9264D50DA22070EDF6E00010001AC
:1004B800C851D8B438D020EE0BF04C50D9264D5046
:1004C800DA2210EE0AF04C50E1264D50E222E750B5
:1004D8000001BF6F0001BF51010DF3504C24E16EC4
:1004E800F4504D20E26EDFCFE7FF0001BF6F280E0A
:1004F80000010001BB6F0001BF5100014DC0BDF0FC
:1005080000014CC0BCF020EE0AF04C50D9264D50EA
:10051800DA22DF500001C06F0001C02965EC09F044
:1005280020EE0AF03ED020EE0EF04C50D9264D5069
:10053800DA22DF50D8B43BD020EE0EF04C50D9264A
:100548004D50DA22DF5000010001C16F20EE0DF09E
:100558004C50D9264D50DA22DF5000010001C26FFD
:1005680020EE0BF04C50D9264D50DA22DF50000116
:100578000001C36F0001BF6F290E00010001BB6FAE
:100588000001BF510001000E00010001BD6F000114
:10059800C10E00010001BC6F030E65EC09F020EEEE
:1005A8000EF04C50D9264D50DA22000EDF6E0001B5
:1005B8000001C751D8B41200000E306E000E2F6E25
:1005C8000D0EF0EC02F00001BF6F000E00010001FB
:1005D800C76F0001BF511200E8CF34F020EE19F0C8
:1005E8004C50D9264D50DA22000EDF6E6BD020EE2B
:1005F80019F04C50D9264D50DA22DF50316E20EEDA
:1006080026F04C50D9264D50DA22DF50315CD8B054
:100618001ED020EE19F04C50D9264D50DA22DF506A
:10062800316E3150010D1C0EF326000EF422F350EA
:100638004C24D96EF4504D20DA6E10EE19F04C505F
:10064800E1264D50E222E750326E325027D020EE9C
:1006580026F04C50D9264D50DA22DF50D8B408D0B5
:1006680020EE26F04C50D9264D50DA22DF5001D02A
:100678003450316E326A1B0E3126000E3222315050
:100688004C24D96E32504D20DA6E10EE19F04C50D1
:10069800E1264D50E222E750336E3350010D0F0E24
:1006A800F326000EF422F3504C24E16EF4504D2052
:1006B800E26EDFCFE7FF20EE19F04C50D9264D50FF
:1006C800DA22DF2A20EE19F04C50D9264D50DA22D2
:1006D800DF50316E3450315CD8A089D720EE26F037
:1006E8004C50D9264D50DA22000EDF6E20EE19F05C
:1006F8004C50D9264D50DA2234C0DFFF20EE1AF0D4
:100708004C50D9264D50DA22010EDF6E20EE0FF044
:100718004C50D9264D50DA22DF50C96EC6881200D7
:10072800010120EE35F00101A851D9260101A95196
:10073800DA22DF5001010101B16F01010101B1515C
:100748000D0DF35001010101A82501010101B46F4C
:10075800F45001010101A9210101B56F010EB4C1D5
:10076800D9FFB5C1DAFFDF6274D0010120EE01F0D4
:100778000101B451D9260101B551DA22DF50010136
:100788000101AA5DD8B002D0FD0E1200010120EED1
:1007980001F00101B451D9260101B551DA22DF5027
:1007A8000101AF6F0101AF5101010101B26F0101F8
:1007B800B36B01010101AEC1A3F101010101ADC19A
:1007C800A2F1030E01010101B4250101AF6F000E72
:1007D80001010101B5210101B06FAFC1A4F1B0C1A0
:1007E800A5F1B2C1A6F1B3C1A7F19DEC07F00101D3
:1007F80020EE35F00101A851D9260101A951DA22CC
:10080800010110EE35F00101A851E1260101A951BD
:10081800E222E7500101AF6F0101AF29030BDF6E40
:10082800010120EE02F00101B451D9260101B551B0
:10083800DA22ABC1E1FFACC1E2FFDFCFE7FFB4C111
:10084800D9FFB5C1DAFF000EDF6E01010101B25117
:100858001200FC0E1200820ED36E9B9C0101010E49
:1008680000010001DA6F0101CB0E00010001D96F10
:10087800B3EC09F00101010E00010001DA6F01017A
:10088800D00E00010001D96F0FEC06F066EC07F0FE
:10089800000E936E000E8A6ED10E50EC09F0010125
:1008A800BB6F840E00010001D96F0101BB5101012A
:1008B800BC6FFF0E00010001DA6F0101BC51DB0EB5
:1008C800A8EC06F09E9CF28C9D8C9F909F9A9F8628
:1008D8009E0E7AEC09F09D8614EC0AF0EAEC06F01C
:1008E8000101010E01010101B76F0101CA0E0101E9
:1008F8000101B66F0101010E01010101B96F01018A
:10090800BD0E01010101B86F0A0E89EC08F0010162
:100918000101C96F01010101C9BFE0D703D0BDC101
:10092800C8F1DCD701010101CA51280AD8B4F7D7A8
:10093800010AD8B4F4D7030AD1D700013BC0B6F0F6
:1009480000010001B76B20EE34F03950D9263A5037
:10095800DA22DF5000010001B86F00010001B85130
:100968000D0DF350392400010001B96FF4503A20FD
:100978000001BA6FB9C0D9FFBAC0DAFFDF50D8B4E6
:1009880002D0FF0E1200000120EE01F00001B95163
:10099800D9260001BA51DA223BC0DFFF000120EE60
:1009A80002F00001B951D9260001BA51DA223CC03F
:1009B800DFFF030E00010001B9252F6E000E0001B4
:1009C8000001BA21306E3EC032F03DC031F0B6C0F1
:1009D80033F0B7C034F0CAEC08F020EE34F03950E8
:1009E800D9263A50DA2210EE34F03950E1263A503E
:1009F800E222E7503F6E3F28030BDF6EB9C0D9FFF4
:100A0800BAC0DAFF010EDF6E010E1200E9CFCDF099
:100A1800EACFCEF0E1CFCFF0E2CFD0F0D9CFD1F00E
:100A2800DACFD2F0F3CFD3F0F4CFD4F0F6CFD5F0BD
:100A3800F7CFD6F0F8CFD7F0F5CFD8F09EA603D0F1
:100A48009E965DEC00F09EAC12D08AB202D0010EE8
:100A580001D0000E0001CA6F0001CA478A50000188
:100A6800CA19FD0BCA198A6E9E9CEAEC08F0F2A41A
:100A780010D08AB002D0010E01D0000E0001CA6F5A
:100A88008A500001CA19FE0BCA198A6EF294F7EC53
:100A980009F0FAEC07F0D8C0F5FFD7C0F8FFD6C0C8
:100AA800F7FFD5C0F6FFD4C0F4FFD3C0F3FFD2C020
:100AB800DAFFD1C0D9FFD0C0E2FFCFC0E1FFCEC07E
:100AC800EAFFCDC0E9FFCCC0FBFFCBC0FAFF1100A5
:100AD8000DC012F0136A20EE34F00B50D9260C50DA
:100AE800DA22DF50146E14500D0DF3500B24156EDE
:100AF800F4500C20166E15C0D9FF16C0DAFFDF506F
:100B0800D8B402D0FF0E120020EE01F01550D926FD
:100B18001650DA220DC0DFFF20EE02F01550D9265C
:100B28001650DA220EC0DFFF030E1524016E000EE8
:100B38001620026E10C004F00FC003F012C005F0BA
:100B480013C006F0AAEC08F020EE34F00B50D926BA
:100B58000C50DA2210EE34F00B50E1260C50E22251
:100B6800E750116E1128030BDF6E15C0D9FF16C0B0
:100B7800DAFF010EDF6E010E12009EAA3CD020EEB5
:100B880004F04E50D9264F50DA22DF501B6E1B500E
:100B9800010DF3504E24D96EF4504F20DA6EC2EC9A
:100BA80009F0DF6E20EE04F04E50D9264F50DA22BD
:100BB800DF2A20EE04F04E50D9264F50DA22040ED8
:100BC800DF6219D01B6E1F0E176E1B504FC019F035
:100BD8004EC018F020EE04F04E50D9264F50DA22BD
:100BE800DF508EEC09F020EE04F04E50D9264F501D
:100BF800DA22000EDF6E4BA61200AB98AB881B6E94
:100C08001E0E176E1B50000E196E000E186E000E89
:100C18008EEC09F012000001DAC04DF00001D9C0D5
:100C28004CF04CC0D9FF4DC0DAFF000EDF6E20EE4D
:100C380001F04C50D9264D50DA22000EDF6E20EE1E
:100C480002F04C50D9264D50DA22000EDF6E20EE0D
:100C58000AF04C50D9264D50DA22000EDF6E20EEF5
:100C68000BF04C50D9264D50DA22000EDF6E20EEE4
:100C78000CF04C50D9264D50DA22050EDF6E20EECE
:100C88000EF04C50D9264D50DA22000EDF6E20EEC1
:100C980027F04C50D9264D50DA22000EDF6E20EE98
:100CA80026F04C50D9264D50DA22000EDF6E120085
:100CB800E8CF2FF020EE0BF04C50D9264D50DA2219
:100CC800010EDF6E20EE0AF04C50D9264D50DA2284
:100CD800000EDF6E2F50D8B42ED0C7AA18D020EE41
:100CE8000CF04C50D9264D50DA22050EDF6E20EE5E
:100CF8000EF04C50D9264D50DA22DF2A20EE0DF0A6
:100D08004C50D9264D50DA22050EDF6E1200C7A4CA
:100D180009D020EE0CF04C50D9264D50DA22080E9E
:100D2800DF6E120020EE0CF04C50D9264D50DA221E
:100D3800070EDF6E120020EE0CF04C50D9264D50F5
:100D4800DA22060EDF6E1200E8CFA2F1000EC26EA4
:100D5800000EC06E00010001D890D9313C0BC26E64
:100D6800D9C0DBF00001DB3BF00EDB17300E0001D1
:100D7800DB1700010001DA510F0B0001DB11C16E16
:100D8800A2C1DBF00001D890DB370001D890DB3737
:100D9800380E0001DB17A2C1DCF00001DC3B0F0EAE
:100DA800DC17070E0001DC1701010101A251800BBD
:100DB8000001DC110001DB11C06E00010001D9AF98
:100DC80003D09E9C9D8CF28CC280120067EC08F0C8
:100DD80001010101A3510101A211D8B412000101BE
:100DE800A46F010E4A6E0101A4510101010E000118
:100DF8000001DA6F01016C0E00010001D96F06ECE9
:100E080009F00009D8B407D00101A46F000E4A6E9A
:100E18000101A45112000001000E00010001DA6F67
:100E28000001800E00010001D96F06EC09F00009ED
:100E3800D8B407D00101A46F000E4A6E0101A45175
:100E480012000A0ED1EC09F0D0D7000120EE34F0E0
:100E58000001D951D9260001DA51DA22000EDF6EDD
:100E6800000120EE35F00001D951D9260001DA51F0
:100E7800DA22000EDF6E0001DB6F000E00010001B8
:100E8800DC6F0001DB51030E00010001DC6501D0BD
:100E9800120000010001DC510D0DF35000010001AA
:100EA800D925D96EF45000010001DA21DA6E000E5E
:100EB800DF6E00010001DC2B030E00010001DC6580
:100EC800E8D712000101A26F000E4A6E0101A2517B
:100ED8000001000E00010001DA6F0001800E000120
:100EE8000001D96F29EC07F00101010E0001000192
:100EF800DA6F01016C0E00010001D96F29EC07F0CF
:100F08000101010E00010001DA6F0101360E000136
:100F18000001D96F29EC07F00101010E0001000161
:100F2800DA6F0101000E00010001D96F29EC07F00A
:100F3800120001010001A5C1DCF001010001A4C1FA
:100F4800DBF001010001A3C1DAF001010001A2C137
:100F5800D9F012D0DBC0D9FFDCC0DAFFD9C0E1FF7D
:100F6800DAC0E2FFDFCFE7FF00010001DB4BDC2B3B
:100F780000010001D94BDA2B01010101A607D8A015
:100F8800A7070101A629D8B4A729D8B41200E2D727
:100F980020EE26F04C50D9264D50DA22DF50316E23
:100FA8000D0E315CD8B012002FC0D9FF30C0DAFF67
:100FB80010EE26F04C50E1264D50E222E750316EFB
:100FC8003150010D1C0EF326000EF422F3504C2470
:100FD800E16EF4504D20E26EDFCFE7FF20EE26F001
:100FE8004C50D9264D50DA22DF2A12004A6601D029
:100FF800120039EC09F032503110D8A4120009EC73
:101008000AF030502F10D8B412000101010E306ED2
:1010180001016C0E2F6EA1EC09F00009D8A4120092
:101028000001000E306E0001800E2F6EA1EC09F059
:101038000009D8B418EC0AF0120001EE00F0A20E74
:10104800EE6AE806FDE100EE80F0360EEE6AE8068C
:10105800FDE100EE40F00C0EEE6AE806FDE13A0E06
:10106800F66E140EF76E000EF86E0900F5CF50F00C
:101078000900F5CF51F0000EF86E00012FEF04F0D3
:10108800F2AC08D0000E00010001DC6F000E000178
:10109800DB6F1200DCEC09F000010001DA510001FD
:1010A800D911D8B408D0000E00010001DC6F000E81
:1010B8000001DB6F1200000E00010001DC6F010E61
:1010C8000001DB6F120044EC08F000010001DC5164
:1010D8000001DB11D8A411D0DCEC09F000010001FB
:1010E800DA510001D911D8A408D0000E010101017C
:1010F800A36F010E0101A26F1200000E0101010190
:10110800A36F000E0101A26F1200E8CFBAF101012E
:10111800010E01010101A96F01016C0E010101011C
:10112800A86FBAC1AAF101010101B7C1ACF101016F
:101138000101B6C1ABF101010101B9C1AEF1010173
:101148000101B8C1ADF194EC03F0120004C00AF03B
:1011580003C009F002C008F001C007F00ED009C0B2
:10116800D9FF0AC0DAFF07C0E1FF08C0E2FFDFCFFE
:10117800E7FF094A0A2A074A082A0506D8A00606E8
:101188000528D8B40628D8B41200E9D732C038F0F8
:1011980031C037F030C036F02FC035F00ED037C030
:1011A800D9FF38C0DAFF35C0E1FF36C0E2FFDFCF34
:1011B800E7FF374A382A354A362A3306D8A0340694
:1011C8003328D8B43428D8B41200E9D70FEC0AF081
:1011D8002FC034F030C035F034C032F035C033F0B1
:1011E800D89033323232D8903332323232C034F07F
:1011F80033C035F0000E306E340E2F6E010ECCEC7D
:1012080007F01200000120EE35F00001D951D9266F
:101218000001DA51DA22DF500001DB6F0001DB51F7
:101228000D0DF35000010001D925D96EF4500001CD
:101238000001DA21DA6EDF501200EEEC09F001C08D
:101248001CF002C01DF01B6E0B0E176E1B50000E1B
:10125800196E000E186E000E8EEC09F0000E026E6C
:10126800000E016EE5EC09F01200F2AC05D0000E9C
:10127800326E000E316E120009EC0AF030502F1059
:10128800D8B405D0000E326E000E316E1200000E7A
:10129800326E010E316E1200E8CFD9F00001000164
:1012A800D9517F0BD56E000ED76E000ED66EF29414
:1012B80000010001D9AF02D0F28A01D0F29AD58E8E
:1012C8001200E8CFBEF00101010E3A6E01016C0E6A
:1012D800396EBEC03BF0BBC03CF00001BDC03EF063
:1012E8000001BCC03DF0A1EC04F01200E8CFD9F039
:1012F80094869488D9C0C8FF000EC76E000EC66ECB
:10130800000EC56E0E0EC612C78E94869488C580D0
:10131800C68A1200E8CF1AF00001000E0C6E000118
:10132800800E0B6E1AC00DF017C00EF019C010F029
:1013380018C00FF06CEC05F0120020EE35F02F50BD
:10134800D9263050DA22DF50316E31500D0DF3506E
:101358002F24D96EF4503020DA6EDF5012000001CD
:10136800DAC04FF00001D9C04EF020EE04F04E5024
:10137800D9264F50DA22000EDF6E1200F20E4B16FD
:10138800ABAC03D04B90ABB04B80ABB44B84ABB29F
:101398004B86AECF01F001501200E8CFD9F0FA0E1B
:1013A80000F0E82EFDD700010001D92FF8D7120070
:1013B800000EF2AE010E00010001D96F0001DA6BD8
:1013C800120001C003F002C004F004C0CFFF03C044
:1013D800CEFF1200CECF03F0CFCF04F003C001F050
:1013E80004C002F01200000E306E000E2F6E00ECEA
:1013F8000AF01BEC0AF012002FC031F030C032F0B6
:1014080032C0D7FF31C0D6FF1200000EF2AE010E77
:101418002F6E306A1200C450306EC3502F6E120007
:10142800D08EF28EF28C1200D38E03001200C2828C
:04143800120064003A
:067FF80080F4C5FFFFF15B
:00000001FF
