:040000005BEF00F0C2
:0C000800FACF99F0FBCF9AF075EF0FF0E3
:10001800D8CF21F0E8CF22F0E0CF23F0FACF24F0B8
:10002800FBCF25F0E9CF26F0EACF27F0E1CF28F083
:10003800E2CF29F0D9CF2AF0DACF2BF0F3CF2CF08A
:10004800F4CF2DF0F6CF2EF0F7CF2FF0F8CF30F019
:10005800F5CF31F09EA003D09E9076EC12F09EAAC8
:1000680003D09E9A98EC10F031C0F5FF30C0F8FF2D
:100078002FC0F7FF2EC0F6FF2DC0F4FF2CC0F3FFF2
:100088002BC0DAFF2AC0D9FF29C0E2FF28C0E1FF50
:1000980027C0EAFF26C0E9FF25C0FBFF24C0FAFFFE
:1000A80023C0E0FF22C0E8FF21C0D8FF1000C6EF40
:1000B80010F000018E6F000E00010001986F000122
:1000C8008E5100018E6F000E00010001936F000138
:1000D8008E5100018E6F000E00010001976F000124
:1000E8008E5100018E6F000E00010001966F000115
:1000F8008E5100018E6F000E00010001946F000107
:100108008E51C6AC29D0C69C000120EE19F0000122
:10011800CC51D9260001CD51DA22050EDF6E00013F
:100128008E6F010E00010001946F00018E510001D5
:1001380020EE1BF00001CC51D9260001CD51DA2266
:10014800DF2A000120EE1AF00001CC51D926000167
:10015800CD51DA22040EDF6EC7A00AD0C9CF95F0C0
:1001680000018E6F010E00010001986F00018E5191
:10017800000100019467CED1B7D1C7A6CBD1000149
:1001880000019851D1EC0DF0000120EE19F00001AA
:10019800CC51D9260001CD51DA22080EDF62BAD13E
:1001A80000018E6F000E00010001986F00018E5152
:1001B80000018E6F010E00010001966F87D1C7A85C
:1001C80030D0000120EE18F00001CC51D9260001F2
:1001D800CD51DA22DF2A000100019851D8B479D133
:1001E800C7BA09D000018E6F010E00010001976F98
:1001F80000018E516ED1000120EE1BF00001CC51A0
:10020800D9260001CD51DA22DF2A000120EE1AF0AA
:100218000001CC51D9260001CD51DA22060EDF6E3D
:1002280058D1000100019851D8B474D1000120EED2
:1002380018F00001CC51D9260001CD51DA22DF2A6D
:10024800C7BA19D0C7B40BD0000120EE19F00001CD
:10025800CC51D9260001CD51DA22070E76D0000103
:1002680020EE19F00001CC51D9260001CD51DA2237
:10027800080EDF6E1DD1000120EE1BF00001CC51ED
:10028800D9260001CD51DA22DF2A000120EE19F02B
:100298000001CC51D9260001CD51DA22050EDF6EBE
:1002A800000120EE1AF00001CC51D9260001CD51F1
:1002B800DA22060E4AD0000120EE33F00001CC51BC
:1002C800D9260001CD51DA22DF5000018E6F0001DE
:1002D80020EE32F00001CC51D9260001CD51DA22AE
:1002E800DF5000018E5DD8B0F4D0000120EE33F06D
:1002F8000001CC51D9260001CD51DA22DF5000018E
:100308008E6F00018E51010D1C0EF326000EF42293
:10031800F35000010001CC25D96EF4500001000112
:10032800CD21DA6EDF50C96E000120EE33F00001F6
:10033800CC51D9260001CD51DA22DF2A00018E6F77
:10034800010E00010001936FC1D0DF6EE3D0C7A892
:1003580062D0000120EE18F00001CC51D92600012E
:10036800CD51DA22DF2A000100019851D8B44AD0D1
:10037800C7AA27D0000120EE16F00001CC51D926DB
:100388000001CD51DA22DF5000018E6F00018E513D
:10039800010DF35000010001CC25D96EF450000185
:1003A8000001CD21DA6E000195C0DFFF000120EECB
:1003B80016F00001CC51D9260001CD51DA22DF2AEE
:1003C80021D0000120EE1BF00001CC51D9260001FC
:1003D800CD51DA22DF2A000120EE1AF00001CC51BB
:1003E800D9260001CD51DA22060EDF6E000120EE7B
:1003F80019F00001CC51D9260001CD51DA22050EA1
:10040800DF6E67D000018E6F010E00010001976F4B
:1004180000018E515ED0000100019851D8B47AD005
:10042800000120EE18F00001CC51D9260001CD5171
:10043800DA22DF2AC7AA27D0000120EE16F0000131
:10044800CC51D9260001CD51DA22DF5000018E6F40
:1004580000018E51010DF35000010001CC25D96E29
:10046800F45000010001CD21DA6E000195C0DFFFD4
:10047800000120EE16F00001CC51D9260001CD5123
:10048800DA22DF2A47D0C7A4B6D6000120EE19F039
:100498000001CC51D9260001CD51DA22080EDF6EB9
:1004A80000018E6F010E00010001976F00018E514F
:1004B80000018E6F010E00010001966F00018E5140
:1004C80000018E6F000E00010001986F00018E512F
:1004D80021D0000120EE19F00001CC51D9260001ED
:1004E800CD51DA22050E31D7000120EE19F00001B6
:1004F800CC51D9260001CD51DA22DF50050AD8B4F3
:100508003CD6030AD8B45BD6010AD8B420D70F0A60
:10051800D8B4D1D600010001986705D000010001C8
:100528009351D8B402D0C6A8C688000120EE16F0B0
:100538000001CC51D9260001CD51DA22140EDF6416
:1005480024D000010001976720D0000120EE19F0A7
:100558000001CC51D9260001CD51DA22050EDF6EFB
:10056800000120EE1BF00001CC51D9260001CD512D
:10057800DA22DF2A000120EE1AF00001CC51D92638
:100588000001CD51DA22070EDF6E000100019751FC
:10059800D8B448D0000120EE18F00001CC51D9267B
:1005A8000001CD51DA22000110EE16F00001CC5105
:1005B800E1260001CD51E222E75000018E6F0001D3
:1005C8008E51010DF35000010001CC25E16EF4506D
:1005D80000010001CD21E26EDFCFE7FF00018E6F41
:1005E800280E000100018B6F00018E5100010001EF
:1005F800CDC08DF000010001CCC08CF0000120EED0
:1006080016F00001CC51D9260001CD51DA22DF5075
:1006180000018F6F00018F295BEC12F0000120EEC2
:1006280016F04BD0000120EE1BF00001CC51D9266A
:100638000001CD51DA22DF50D8B447D0000120EEB6
:100648001BF00001CC51D9260001CD51DA22DF5030
:1006580000010001906F000120EE1AF00001CC515A
:10066800D9260001CD51DA22DF5000010001916F37
:10067800000120EE18F00001CC51D9260001CD511F
:10068800DA22DF5000010001926F00018E6F290EFF
:10069800000100018B6F00018E510001000E000166
:1006A80000018D6F0001900E000100018C6F030E98
:1006B8005BEC12F0000120EE1BF00001CC51D926B2
:1006C8000001CD51DA22000EDF6E000100019651C3
:1006D800D8B41200000E336E000E326E160E79EC8E
:1006E80009F000018E6F000E00010001966F0001F5
:1006F8008E5112007ED2000120EE19F00001CC517B
:10070800D9260001CD51DA22110EDF6E000120EE4C
:1007180034F00001CC51D9260001CD51DA22DF5046
:100728003E6ED8903E34FE0BC96E1200C5BC74D024
:10073800000120EE33F00001CC51D9260001CD5143
:10074800DA22DF503E6E000120EE32F00001CC517B
:10075800D9260001CD51DA22DF503E5CD8B033D023
:10076800000120EE33F00001CC51D9260001CD5113
:10077800DA22DF503E6E3E50010D1C0EF326000EAD
:10078800F422F35000010001CC25D96EF450000189
:100798000001CD21DA6EDF50C96E000120EE33F082
:1007A8000001CC51D9260001CD51DA22DF2A0001FF
:1007B80020EE19F00001CC51D9260001CD51DA22E2
:1007C800120EDF6E12003E6E2B0E000100018B6FC1
:1007D8003E50000E000100018D6F000E0001000167
:1007E8008C6F000E5BEC12F0000120EE32F000017D
:1007F800CC51D9260001CD51DA22000EDF6E00015E
:1008080020EE19F00001CC51D9260001CD51DA2291
:10081800050EDF6EC58412003E6E2C0E000100012D
:100828008B6F3E50000E000100018D6F000E00011D
:1008380000018C6F000E5BEC12F0000120EE19F045
:100848000001CC51D9260001CD51DA22050EDF6E08
:10085800C5841200C5AC0DD0000120EE19F00001CE
:10086800CC51D9260001CD51DA22130EDF6EC58492
:1008780012003E6E2C0E000100018B6F3E50000EE0
:10088800000100018D6F000E000100018C6F000E49
:100898005BEC12F0000120EE19F00001CC51D926D2
:1008A8000001CD51DA22050EDF6EC58412003E6EBE
:1008B8002B0E000100018B6F3E50000E000100015D
:1008C8008D6F000E000100018C6F000E5BEC12F0C2
:1008D800000120EE19F00001CC51D9260001CD51BC
:1008E800DA22050EDF6E1200C5BC17D0000120EE1B
:1008F80019F00001CC51D9260001CD51DA22140E8D
:10090800DF6E000120EE34F00001CC51D926000141
:10091800CD51DA22DF50C96E12003E6E2E0E000154
:1009280000018B6F3E50000E000100018D6F000E1C
:10093800000100018C6F000E5BEC12F0000120EE4C
:1009480019F00001CC51D9260001CD51DA22050E4B
:10095800DF6EC5841200C5BC22D0000120EE19F05C
:100968000001CC51D9260001CD51DA22150EDF6ED7
:10097800000120EE32F00001CC51D9260001CD5102
:10098800DA22000EDF6E000120EE1CF00001CC51CF
:10099800D9260001CD51DA22DF50C96E12003E6E11
:1009A8002E0E000100018B6F3E50000E0001000169
:1009B8008D6F000E000100018C6F000E5BEC12F0D1
:1009C800000120EE19F00001CC51D9260001CD51CB
:1009D800DA22050EDF6EC5841200C5BC0DD00001F9
:1009E80020EE19F00001CC51D9260001CD51DA22B0
:1009F800200EDF6EC58212003E6E2E0E0001000131
:100A08008B6F3E50000E000100018D6F000E00013B
:100A180000018C6F000E5BEC12F0000120EE19F063
:100A28000001CC51D9260001CD51DA22050EDF6E26
:100A3800C5841200000120EE19F00001CC51D9261E
:100A48000001CD51DA22210EDF6E000120EE34F0D4
:100A58000001CC51D9260001CD51DA22DF5001091D
:100A6800C96E1200C5BC0DD0000120EE19F00001BE
:100A7800CC51D9260001CD51DA22220EDF6EC5866F
:100A880012003E6E2E0E000100018B6F3E50000ECC
:100A9800000100018D6F000E000100018C6F000E37
:100AA8005BEC12F0000120EE19F00001CC51D926C0
:100AB8000001CD51DA22050EDF6EC5841200C7A0F1
:100AC8001200000120EE19F00001CC51D9260001D6
:100AD800CD51DA22230EDF6E000120EE17F000015F
:100AE800CC51D9260001CD51DA22DF503E6E3E505E
:100AF800010DF35000010001CC25D96EF45000011E
:100B08000001CD21DA6EC9CFDFFF000120EE17F01A
:100B18000001CC51D9260001CD51DA22DF2A00018B
:100B280020EE17F00001CC51D9260001CD51DA2270
:100B3800DF503E6E000120EE16F00001CC51D926A0
:100B48000001CD51DA22DF503E5CD8B003D0C59AFF
:100B5800C5881200C58AC5881200000120EE17F06A
:100B68000001CC51D9260001CD51DA22DF503E6E6A
:100B7800000120EE16F00001CC51D9260001CD511C
:100B8800DA22DF503E5CD8B00DD0000120EE19F01B
:100B98000001CC51D9260001CD51DA22220EDF6E98
:100BA800C58612003E6E2D0E000100018B6F3E506F
:100BB80000010001CDC08DF000010001CCC08CF017
:100BC800000120EE16F00001CC51D9260001CD51CC
:100BD800DA22DF505BEC12F0000120EE19F0000180
:100BE800CC51D9260001CD51DA22050EDF6EC5841D
:100BF8001200000120EE19F00001CC51D9260001A5
:100C0800CD51DA22DF50090AD8B475D5190AD8B4FB
:100C18006BD6010AD8B48AD5030AD8B41BD6010A00
:100C2800D8B445D6070AD8B496D6010AD8B4D5D6CA
:100C3800350AD8B4FFD6010AD8B414D7030AD8B4F1
:100C48003ED7010AD8A4120088D7820ED36E9B8C97
:100C58000101010E00010001A86F01012E0E000123
:100C68000001A76FA5EC12F00101010E00010001BF
:100C7800A86F0101470E00010001A76F6AEC0DF093
:100C88000101010E00010001A86F01012A0E0001F7
:100C98000001A76F1DEC13F032EC10F0000E936EFC
:100CA800000E8A6E9F909F9A9F869D86000E000177
:100CB8000001A86F260E0001A76F6C0EEAEC0EF07B
:100CC80050EC13F0B6EC0FF00101010E0001000129
:100CD800C06F0101450E00010001BF6F0101010E47
:100CE80000010001C26F0101100E00010001C16F77
:100CF800160EA3EC11F001010101466F010101017B
:100D080046BF79D065D00101010E00010001A86F2E
:100D18000101280E00010001A76F0101000145C172
:100D2800A9F000010001AA6B01010101465100016F
:100D38000001AB6F0001AC6B0001ABBFAC07010158
:100D4800010E00010001AE6F0101100E000100014B
:100D5800AD6F14EC13F04FD010C127F14CD0010146
:100D6800010E00010001A86F0101100E0001000131
:100D7800A76F0101010146518CEC08F03CD001013C
:100D8800010E00010001A96F01012C0E00010001F4
:100D9800A86F0101000145C1AAF000010001AB6B79
:100DA80001010101465100010001AC6F0001AD6B6A
:100DB8000001ACBFAD070101010E00010001AF6FDA
:100DC8000101100E00010001AE6F35EC0EF013D0DA
:100DD8000101010145510A0AD8B495D7220AD8B4AD
:100DE8000AD0010AD8B4B8D7030AD8B4B8D7050AC4
:100DF800D8B4C5D71F0A0101010E00010001C06F58
:100E08000101450E00010001BF6F0101010E000143
:100E18000001C26F0101100E00010001C16F160E22
:100E280082EC11F001010101466F0101010146BF89
:100E380049D748D00101000145C1C1F000010001B6
:100E4800C26B01010101465100010001C36F00019D
:100E5800C46B0001C3BFC4070101010E00010001FA
:100E6800C66F0101100E00010001C56F73EC07F099
:100E780029D70101010E00010001A96F01012C0E03
:100E880000010001A86F0101000145C1AAF000019D
:100E98000001AB6B01010101465100010001AC6F7B
:100EA8000001AD6B0001ACBFAD070101010E0001EF
:100EB8000001AF6F0101100E00010001AE6F35ECAB
:100EC8000EF000D70101010145511E0AD8B4D1D74F
:100ED800010AD8B4CED72D0AD8B4ACD7F3D6000EB1
:100EE800010101010F6F000E01010E6F0001C76FB4
:100EF800000E010101010C6F0001C751000E010134
:100F080001010F6F000E01010E6F16D001010101E2
:100F18000E5100010001C525D96E010101010F51D3
:100F280000010001C621DA6EDF50010101010C2722
:100F3800010101010E4B0F2BFF0E0001C76FFF0EC1
:100F4800C86F0001C3C0C9F00001C4C0CAF00001E5
:100F5800C7510001C9270001C8510001CA23010176
:100F680001010F51800A0001CB6FC9510101010134
:100F78000E5D0001CA51800A0001CB59D8A0C6D71E
:100F8800FF0E0001C76FFF0EC86F0001C3C0C9F094
:100F98000001C4C0CAF00001C7510001C9270001FF
:100FA800C8510001CA230001C95100010001C5252B
:100FB800D96E0001CA5100010001C621DA6E010193
:100FC80001010C51DF621200000120EE01F0000166
:100FD800C551D9260001C651DA22DF500001C76F7A
:100FE8000001C7390F0B0F0B010101010D6F010142
:100FF80001010D51020AD8A429D00001C76F070EBC
:1010080001010101096F0001C7510001C76F010EFD
:10101800010101010A6F0001C7510001C76F020EEB
:10102800010101010B6F0001C7514F0EEEEC10F0EA
:101038000101010E00010001A86F0101090E000164
:101048000001A76F030EFBEC0CF012000101010177
:101058000D6712000001C76F000E01010101006F4A
:101068000001C7510001C76F020E01010101016FA4
:101078000001C7510001C76F000E01010101026F95
:101088000001C7510001C76F000E01010101036F84
:101098000001C7510001C76F010E01010101046F72
:1010A8000001C7510001C76F020E01010101056F60
:1010B8000001C7510001C76F030E01010101066F4E
:1010C8000001C7510001C76F040E01010101076F3C
:1010D8000001C7510001C76F0C0E01010101086F23
:1010E8000001C7510001C76F2F0E00010001BD6F3D
:1010F8000001C7510101010E00010001BF6F01018C
:10110800000E00010001BE6F090E25EC12F012005E
:10111800E8CFACF0000120EE32F00001CC51D92626
:101128000001CD51DA22000EDF6E9DD0000120EEC5
:1011380032F00001CC51D9260001CD51DA22DF501E
:101148000001A96F000120EE4BF00001CC51D92617
:101158000001CD51DA22DF500001A95DD8B02CD0B2
:10116800000120EE32F00001CC51D9260001CD510A
:10117800DA22DF500001A96F0001A951010D350ED7
:10118800F326000EF422F35000010001CC25D96E9D
:10119800F45000010001CD21DA6E000110EE32F0AA
:1011A8000001CC51E1260001CD51E222E7500001B7
:1011B800AA6F0001AA513CD0000120EE4BF00001BB
:1011C800CC51D9260001CD51DA22DF50D8B40BD04A
:1011D800000120EE4BF00001CC51D9260001CD5181
:1011E800DA22DF5003D000010001AC510001A96FE1
:1011F800AA6B340E0001A927000EAA230001A951E9
:1012080000010001CC25D96E0001AA51000100019E
:10121800CD21DA6E000110EE32F00001CC51E1264A
:101228000001CD51E222E7500001AB6F0001AB5144
:10123800010D1C0EF326000EF422F35000010001EC
:10124800CC25E16EF45000010001CD21E26EDFCF24
:10125800E7FF000120EE32F00001CC51D926000151
:10126800CD51DA22DF2A000120EE32F00001CC5104
:10127800D9260001CD51DA22DF500001A96F000103
:101288000001AC510001A95DD8A050D7000120EEA3
:101298004BF00001CC51D9260001CD51DA22000EC5
:1012A800DF6E000120EE32F00001CC51D92600019A
:1012B800CD51DA220001ACC0DFFF000120EE33F08F
:1012C8000001CC51D9260001CD51DA22010EDF6E82
:1012D800000120EE1CF00001CC51D9260001CD51AF
:1012E800DA22DF50C96EC6881200E8CF37F0000155
:1012F80020EE32F00001CC51D9260001CD51DA227E
:10130800000EDF6E8FD0000120EE32F00001CC51CC
:10131800D9260001CD51DA22DF50346E000120EECB
:101328004BF00001CC51D9260001CD51DA22DF5013
:10133800345CD8B028D0000120EE32F00001CC5146
:10134800D9260001CD51DA22DF50346E3450010D18
:10135800350EF326000EF422F35000010001CC25CF
:10136800D96EF45000010001CD21DA6E000110EEB3
:1013780032F00001CC51E1260001CD51E222E750C4
:10138800356E355034D0000120EE4BF00001CC51C1
:10139800D9260001CD51DA22DF50D8B40BD0000194
:1013A80020EE4BF00001CC51D9260001CD51DA22B4
:1013B800DF5001D03750346E356A340E3426000EB3
:1013C8003522345000010001CC25D96E355000017A
:1013D8000001CD21DA6E000110EE32F00001CC518F
:1013E800E1260001CD51E222E750366E3650010D5C
:1013F8001C0EF326000EF422F35000010001CC2548
:10140800E16EF45000010001CD21E26EDFCFE7FF6D
:10141800000120EE32F00001CC51D9260001CD5157
:10142800DA22DF2A000120EE32F00001CC51D92661
:101438000001CD51DA22DF50346E3750345CD8A029
:1014480062D7000120EE4BF00001CC51D9260001F3
:10145800CD51DA22000EDF6E000120EE32F00001DD
:10146800CC51D9260001CD51DA2237C0DFFF000167
:1014780020EE33F00001CC51D9260001CD51DA22FB
:10148800010EDF6E000120EE1CF00001CC51D926C0
:101498000001CD51DA22DF50C96EC6881200000162
:1014A80020EE65F00001B151D9260001B251DA22CF
:1014B800DF5000010001BA6F00010001BA51190D97
:1014C800F35000010001B12500010001BD6FF45087
:1014D80000010001B2210001BE6F010EBDC0D9FF9D
:1014E800BEC0DAFFDF6274D0000120EE01F0000117
:1014F800BD51D9260001BE51DA22DF50000100019A
:10150800B35DD8B002D0FD0E1200000120EE01F04C
:101518000001BD51D9260001BE51DA22DF50000179
:10152800B86F0001B85100010001BB6F0001BC6B2E
:1015380000010001B7C0A8F000010001B6C0A7F083
:10154800030E00010001BD250001B86F000E000167
:101558000001BE210001B96FB8C0A9F0B9C0AAF056
:10156800BBC0ABF0BCC0ACF069EC10F0000120EEE1
:1015780065F00001B151D9260001B251DA2200010B
:1015880010EE65F00001B151E1260001B251E222EE
:10159800E7500001B86F0001B829030BDF6E0001A6
:1015A80020EE02F00001BD51D9260001BE51DA2219
:1015B800B4C0E1FFB5C0E2FFDFCFE7FFBDC0D9FF90
:1015C800BEC0DAFF000EDF6E00010001BB51120041
:1015D800FC0E1200000120EE65F000018051D926B2
:1015E80000018151DA22DF5000010001876F0001FC
:1015F80000018751190DF3500001000180250001F9
:1016080000018A6FF45000010001812100018B6FF5
:10161800010E8AC0D9FF8BC0DAFFDF626CD00001EF
:1016280020EE01F000018A51D92600018B51DA22FF
:10163800DF5000010001825DD8B002D0FD0E12001B
:10164800000120EE01F000018A51D92600018B51DA
:10165800DA22DF503C6E3C5000010001886F000127
:10166800896B000186C033F0000185C032F0030E9B
:10167800000100018A253C6E000E000100018B214B
:101688003D6E3CC034F03DC035F088C036F089C0AE
:1016980037F005EC12F0000120EE65F000018051F2
:1016A800D92600018151DA22000110EE65F000010F
:1016B8008051E12600018151E222E7503C6E3C282E
:1016C800030BDF6E000120EE02F000018A51D926DB
:1016D80000018B51DA2283C0E1FF84C0E2FFDFCF33
:1016E800E7FF8AC0D9FF8BC0DAFF000EDF6E00016A
:1016F800000188511200FC0E120000010001B3C065
:10170800B8F000010001B96B000120EE64F000019F
:10171800B151D9260001B251DA22DF50000100018F
:10172800BA6F00010001BA51190DF3500001000110
:10173800B12500010001BB6FF45000010001B22186
:101748000001BC6FBBC0D9FFBCC0DAFFDF50D8B402
:1017580002D0FF0E1200000120EE01F00001BB5183
:10176800D9260001BC51DA220001B3C0DFFF000115
:1017780020EE02F00001BB51D9260001BC51DA224B
:101788000001B4C0DFFF030E00010001BB2500010A
:101798000001A76F000E00010001BC210001A86F25
:1017A80000010001B6C0AAF000010001B5C0A9F00F
:1017B800B8C0ABF0B9C0ACF069EC10F0000120EE95
:1017C80064F00001B151D9260001B251DA220001BA
:1017D80010EE64F00001B151E1260001B251E2229D
:1017E800E7500001B76F0001B729030BDF6EBBC0DC
:1017F800D9FFBCC0DAFF010EDF6E010E12006ED0F9
:101808001B6E010E4A6E1B50000E426E000E416E9A
:10181800000E446E000E436E000E466E000E456EBE
:101828001200FF0E1B6EFF0E1C6E20EE16F04C50C1
:10183800D9264D50DA22DF501D6E1E6A1B501D2618
:101848001C501E221D504C24D96E1E504D20DA6E9D
:10185800DF501F6E0F0E1F161F50436E446A445010
:101868004310D8B405D01B6E020E4A6E1B501200EE
:101878001B6E030E4A6E1B501200010E41241B6E94
:10188800000E42201C6E1C50800A1D6E43501B5CCB
:101898004450800A1D58D8B003D0414A422A120049
:1018A8001B6E030E4A6E1B5012001B6E320E176E13
:1018B8001B504DC019F04CC018F04350030FBAEC40
:1018C80012F020EE16F04C50D9264D50DA22000EB8
:1018D800DF6E1B6E000E4A6E1B5012004A50000A43
:1018E800D8B48ED7010AD8B49CD7030AD8B4C5D7C0
:1018F800010AD8A41200D9D70001000182C086F0DD
:1019080000010001876B000120EE64F000018051A6
:10191800D92600018151DA22DF5000010001886FC9
:10192800000100018851190DF350000100018025C4
:1019380000010001896FF4500001000181210001BC
:101948008A6F89C0D9FF8AC0DAFFDF50D8B402D0C5
:10195800FF0E1200000120EE01F000018951D92686
:1019680000018A51DA22000182C0DFFF000120EE67
:1019780002F000018951D92600018A51DA220001BA
:1019880083C0DFFF030E000100018925326E000EBF
:10199800000100018A21336E000185C035F0000185
:1019A80084C034F086C036F087C037F005EC12F0FA
:1019B800000120EE64F000018051D9260001815118
:1019C800DA22000110EE64F000018051E1260001E6
:1019D8008151E222E7503C6E3C28030BDF6E89C040
:1019E800D9FF8AC0DAFF010EDF6E010E1200E8CFC0
:1019F800ABF0C7B41200000E00010001AD6F000E7D
:101A08000001AC6F2CD000010001AC5100010001B5
:101A1800A725D96E00010001AD5100010001A821E0
:101A2800DA6E1C0E00010001AC250001A96F000E42
:101A380000010001AD210001AA6F0001A9510001B8
:101A48000001CC25E16E0001AA5100010001CD2161
:101A5800E26EDFCFE7FF00010001AC4BAD2B0001C8
:101A68000001AB510001A96FAA6B0001A951000147
:101A78000001AC5D0001AA5100010001AD59D8A0D8
:101A8800C2D7000120EE32F00001CC51D926000166
:101A9800CD51DA220001ABC0DFFF000120EE33F0A8
:101AA8000001CC51D9260001CD51DA22000EDF6E9B
:101AB800C596C580000120EE19F00001CC51D92649
:101AC8000001CD51DA22090EDF6E1200000100017B
:101AD800A8C0CDF000010001A7C0CCF0CCC0D9FF50
:101AE800CDC0DAFF000EDF6E000120EE01F000012C
:101AF800CC51D9260001CD51DA22000EDF6E00014B
:101B080020EE02F00001CC51D9260001CD51DA2295
:101B1800000EDF6E000120EE16F00001CC51D92630
:101B28000001CD51DA22000EDF6E000120EE18F020
:101B38000001CC51D9260001CD51DA22000EDF6E0A
:101B4800000120EE19F00001CC51D9260001CD5139
:101B5800DA22050EDF6E000120EE1BF00001CC51E9
:101B6800D9260001CD51DA22000EDF6E000120EEE9
:101B78004CF00001CC51D9260001CD51DA22000EDB
:101B8800DF6E000120EE4BF00001CC51D926000198
:101B9800CD51DA22000EDF6E1200E8CF32F00001DC
:101BA80020EE18F00001CC51D9260001CD51DA22DF
:101BB800010EDF6E000120EE16F00001CC51D9268F
:101BC8000001CD51DA22000EDF6E3250D8B43DD07C
:101BD800C7AA21D0000120EE19F00001CC51D92666
:101BE8000001CD51DA22050EDF6E000120EE1BF058
:101BF8000001CC51D9260001CD51DA22DF2A00019B
:101C080020EE1AF00001CC51D9260001CD51DA227C
:101C1800050EDF6E1200C7A40CD0000120EE19F0EB
:101C28000001CC51D9260001CD51DA22080EDF6E11
:101C38001200000120EE19F00001CC51D926000154
:101C4800CD51DA22070EDF6E1200000120EE19F0E6
:101C58000001CC51D9260001CD51DA22060EDF6EE3
:101C6800120000010001AA511E0AAB11D8B41200DB
:101C780000010001AA511F0AAB11D8A411D000011C
:101C88000001AC5100010001AE25D96E0001000130
:101C9800AD5100010001AF21DA6E000EDF6E1200B7
:101CA80000010001AA512F0AAB11D8A41200000E9E
:101CB80000010001B26F000E0001B16F000E0001BB
:101CC8000001B26F000E0001B16F17D0ACA2FED7B1
:101CD80000010001B15100010001AE25D96E0001DB
:101CE8000001B25100010001AF21DA6EDF500AECA9
:101CF80013F000010001B14BB22B00010001B251F9
:101D0800800A0001B06F0001AC5100010001B15D13
:101D180000010001AD51800A0001B059D8B012008D
:101D2800D5D70DC012F0136A20EE64F00B50D926F7
:101D38000C50DA22DF50146E1450190DF3500B2496
:101D4800156EF4500C20166E15C0D9FF16C0DAFFB8
:101D5800DF50D8B402D0FF0E120020EE01F015506B
:101D6800D9261650DA220DC0DFFF20EE02F01550FA
:101D7800D9261650DA220EC0DFFF030E1524016E95
:101D8800000E1620026E10C004F00FC003F012C03F
:101D980005F013C006F0E5EC11F020EE64F00B50EE
:101DA800D9260C50DA2210EE64F00B50E1260C50C4
:101DB800E222E750116E1128030BDF6E15C0D9FF20
:101DC80016C0DAFF010EDF6E010E1200E8CFACF08C
:101DD800000EAC6E000EAB6E00010001ACB1AC8819
:101DE80000010001ACA302D0AC8CAB8C0001000157
:101DF800ACB5AC8E00010001ACA702D0AB8801D015
:101E0800AB8A00010001ACB9AC849E9800010001C6
:101E1800ACBBAB8600010001ACAD02D09D8A01D0FD
:101E28009D9A9E9A00010001ACAF02D09D8801D016
:101E38009D98A7C0AFFF0001A8C0A9F0A9C0AAF04B
:101E48000001AB6B0001AA51B06EAC8AAB8E949CBA
:101E5800948EACA81200ACBE1200948C1200000E36
:101E6800336E000E326E41EC13F00001000E0001DB
:101E780000018D6F0001930E000100018C6F0001BD
:101E8800000E000100018F6F0001950E0001000196
:101E98008E6F020EC4EC11F000010001916F000179
:101EA800926B000191BF9207000100019151020A53
:101EB8009211D8A412000001906F0A0E00010001CF
:101EC8008B6F000190510001000E000100018D6F21
:101ED8000001950E000100018C6F020E5BEC12F000
:101EE8001200E9CF9BF0EACF9CF0E1CF9DF0E2CF62
:101EF8009EF0D9CF9FF0DACFA0F0F3CFA1F0F4CFC6
:101F0800A2F0F6CFA3F0F7CFA4F0F8CFA5F0F5CF65
:101F1800A6F09EA603D09E96DFEC12F0F2A403D0A2
:101F2800F29433EC0FF016EC11F0A6C0F5FFA5C043
:101F3800F8FFA4C0F7FFA3C0F6FFA2C0F4FFA1C03A
:101F4800F3FFA0C0DAFF9FC0D9FF9EC0E2FF9DC08B
:101F5800E1FF9CC0EAFF9BC0E9FF9AC0FBFF99C064
:101F6800FAFF110060EC11F000010001AC51000112
:101F7800AB11D8B412000001AD6F010E496E00011B
:101F8800AD510101010E00010001A86F0101940E7D
:101F980000010001A76F40EC12F00009D8B407D087
:101FA8000001AD6F000E496E0001AD511200020133
:101FB800020E00010001A86F0201660E0001000177
:101FC800A76F40EC12F00009D8B407D00001AD6F3C
:101FD800000E496E0001AD5112000A0EFFEC12F01E
:101FE800D0D7000120EE64F00001A751D9260001E6
:101FF800A851DA22000EDF6E000120EE65F0000124
:10200800A751D9260001A851DA22000EDF6E00017F
:10201800A96F000E00010001AA6F0001A951030E6B
:1020280000010001AA6501D0120000010001AA51B7
:10203800190DF35000010001A725D96EF4500001D5
:102048000001A821DA6E000EDF6E00010001AA2B44
:10205800030E00010001AA65E8D712000001AB6F6A
:10206800000E496E0001AB510201020E0001000191
:10207800A86F0201660E00010001A76FF5EC0FF0D2
:102088000101010E00010001A86F0101940E000179
:102098000001A76FF5EC0FF00201020E000100012C
:1020A800A86F0201000E00010001A76FF5EC0FF008
:1020B8000301030E00010001A86F0301000E0001D7
:1020C8000001A76FF5EC0FF0120000010001AAC093
:1020D800B0F000010001A9C0AFF000010001A8C0E4
:1020E800AEF000010001A7C0ADF012D0AFC0D9FF1B
:1020F800B0C0DAFFADC0E1FFAEC0E2FFDFCFE7FF5F
:1021080000010001AF4BB02B00010001AD4BAE2B1D
:1021180000010001AB07D8A0AC070001AB29D8B477
:10212800AC29D8B41200E2D79EAA1CD020EE16F033
:102138004C50D9264D50DA22DF50206E2050010D28
:10214800F3504C24D96EF4504D20DA6EF0EC12F0B6
:10215800DF6E20EE16F04C50D9264D50DA22DF2AD9
:1021680003EC0CF04BA61200AB98AB88206E1E0E49
:10217800176E2050000E196E000E186E000EBAEC85
:1021880012F0120003EE00F0660EEE6AE806FDE1BA
:1021980002EE00F0CC0EEE6AE806FDE101EE94F0E6
:1021A800660EEE6AE806FDE10001CE6B00EE3FF038
:1021B8000D0EEE6AE806FDE1AE0EF66E260EF76E1F
:1021C800000EF86E0900F5CF4EF0000EF86E000113
:1021D80029EF06F0E8CFA8F00001A76F010E000173
:1021E8000001CE6F0001A751000120EE34F000017C
:1021F800CC51D9260001CD51DA220001A8C0DFFF59
:10220800000EC66E000EC56E000EC76E630EC86E59
:10221800C650F00B0809C66EC68A800EC76E8B863C
:102228008B881200496601D012008EEC12F03550EE
:102238003410D8A412004AEC13F033503210D8B43A
:1022480012000101010E336E0101940E326ECDECC5
:1022580012F00009D8A412000201020E336E020126
:10226800660E326ECDEC12F00009D8B454EC13F0BF
:102278001200F2AC08D0000E00010001AA6F000E97
:102288000001A96F120026EC13F000010001A8510B
:102298000001A711D8B408D0000E00010001AA6FF0
:1022A800000E0001A96F1200000E00010001AA6FC4
:1022B800010E0001A96F12003DEC11F000010001B0
:1022C800AA510001A911D8A411D026EC13F00001DD
:1022D8000001A8510001A711D8A408D0000E0001E0
:1022E8000001AC6F010E0001AB6F1200000E00017F
:1022F8000001AC6F000E0001AB6F1200E8CFC3F015
:102308000201020E00010001B26F0201660E000117
:102318000001B16FC3C0B3F000010001C0C0B5F047
:1023280000010001BFC0B4F000010001C2C0B7F055
:1023380000010001C1C0B6F053EC0AF01200E8CF6A
:10234800C3F00101010E00010001B26F0101940EFA
:1023580000010001B16FC3C0B3F000010001C0C0AB
:10236800B5F000010001BFC0B4F000010001C2C017
:10237800B7F000010001C1C0B6F053EC0AF012003A
:10238800E8CF3EF00301030E00010001816F030155
:10239800000E00010001806F3EC082F000010001C4
:1023A8008DC084F0000100018CC083F000010001A1
:1023B8008FC086F0000100018EC085F0EEEC0AF0B7
:1023C800120004C00AF003C009F002C008F001C0FE
:1023D80007F00ED009C0D9FF0AC0DAFF07C0E1FF35
:1023E80008C0E2FFDFCFE7FF094A0A2A074A082A9E
:1023F8000506D8A006060528D8B40628D8B41200C1
:10240800E9D735C03BF034C03AF033C039F032C0B8
:1024180038F00ED03AC0D9FF3BC0DAFF38C0E1FF30
:1024280039C0E2FFDFCFE7FF3A4A3B2A384A392A68
:102438003606D8A037063628D8B43728D8B41200BC
:10244800E9D7E8CFC0F00101010E00010001B26F29
:102458000101940E00010001B16FC0C0B3F0BDC00E
:10246800B4F000010001BFC0B6F000010001BEC019
:10247800B5F081EC0BF01200000120EE65F00001D0
:10248800A751D9260001A851DA22DF500001A96F0F
:102498000001A951190DF35000010001A725D96EBB
:1024A800F45000010001A821DA6EDF501200E8CFD5
:1024B8003DF00101010E00010001816F0101940E40
:1024C80000010001806F3DC082F08BC083F00001E5
:1024D80000018DC085F0000100018CC084F080EC03
:1024E8000CF0120038EC13F001C01CF002C01DF013
:1024F8001B6E0B0E176E1B50000E196E000E186E19
:10250800000EBAEC12F0000E026E000E016E2FECF7
:1025180013F01200F2AC05D0000E356E000E346ECA
:1025280012004AEC13F033503210D8B405D0000E24
:10253800356E000E346E1200000E356E010E346ECC
:1025480012000001A8C04DF00001A7C04CF020EE19
:1025580016F04C50D9264D50DA22000EDF6E0001DD
:10256800A96F000E4A6E0001A9511200E8CF1AF0B7
:102578000201020E0C6E0201660E0B6E1AC00DF0FF
:1025880017C00EF019C010F018C00FF095EC0EF03F
:10259800120020EE65F03250D9263350DA22DF508F
:1025A800346E3450190DF3503224D96EF450332060
:1025B800DA6EDF50120006D07EEC03F012005DECFC
:1025C80000F0120000010001CE51010AD8B4F4D77E
:1025D800030AD8A41200F3D7F20E4B16ABAC03D003
:1025E8004B90ABB04B80ABB44B84ABB24B86AECF09
:1025F80001F001501200E8CFA7F0FA0E00F0E82E23
:10260800FDD700010001A72FF8D71200E8CFA7F0E7
:10261800ACAC03D0AC904BB2AC80A7C0ADFF1200FD
:1026280000010001AEC0B0F000010001ADC0AFF084
:102638001200A7C0D9FFA8C0DAFF000EDE6E000E98
:10264800DD6E1200000EF2AE010E00010001A76F50
:102658000001A86B120001C003F002C004F004C01E
:10266800CFFF03C0CEFF1200CECF03F0CFCF04F0D0
:1026780003C001F004C002F0120032C034F033C0CD
:1026880035F035C0D7FF34C0D6FF1200000EF2AEC9
:10269800010E326E336A1200D08EF28EF28C120066
:0826A800D38E03001200FF00B5
:067FF80080F4C5FFFFF15B
:00000001FF
