:0400000060EF00F0BD
:0C000800FACF9FF0FBCFA0F0C6EF0EF087
:10001800D8CF21F0E8CF22F0E0CF23F0FACF24F0B8
:10002800FBCF25F0E9CF26F0EACF27F0E1CF28F083
:10003800E2CF29F0D9CF2AF0DACF2BF0F3CF2CF08A
:10004800F4CF2DF0F6CF2EF0F7CF2FF0F8CF30F019
:10005800F5CF31F09EA003D09E90F3EC0FF09EAA4E
:1000680003D09E9A84EC10F0F2A403D0F29455ECDD
:1000780010F031C0F5FF30C0F8FF2FC0F7FF2EC0D9
:10008800F6FF2DC0F4FF2CC0F3FF2BC0DAFF2AC007
:10009800D9FF29C0E2FF28C0E1FF27C0EAFF26C038
:1000A800E9FF25C0FBFF24C0FAFF23C0E0FF22C000
:1000B800E8FF21C0D8FF100001EF11F00001946F94
:1000C800000E000100019E6F000194510001946F21
:1000D800000E00010001996F000194510001946F16
:1000E800000E000100019D6F000194510001946F02
:1000F800000E000100019C6F000194510001946FF3
:10010800000E000100019A6F00019451C6AC29D07D
:10011800C69C000120EE19F00001D151D92600013A
:10012800D251DA22050EDF6E0001946F010E000134
:1001380000019A6F00019451000120EE1BF00001AC
:10014800D151D9260001D251DA22DF2A000120EE4E
:100158001AF00001D151D9260001D251DA22040E39
:10016800DF6EC7A00AD0C9CF9BF00001946F010EC3
:10017800000100019E6F00019451000100019A677F
:10018800CED1B7D1C7A6CBD1000100019E5164ECF6
:100198000DF0000120EE19F00001D151D92600011F
:1001A800D251DA22080EDF62BAD10001946F000E34
:1001B800000100019E6F000194510001946F010E2F
:1001C800000100019C6F87D1C7A830D0000120EE44
:1001D80018F00001D151D9260001D251DA22DF2AC4
:1001E800000100019E51D8B479D1C7BA09D00001E5
:1001F800946F010E000100019D6F000194516ED1B2
:10020800000120EE1BF00001D151D9260001D25186
:10021800DA22DF2A000120EE1AF00001D151D92696
:100228000001D251DA22060EDF6E58D1000100011A
:100238009E51D8B474D1000120EE18F00001D151BC
:10024800D9260001D251DA22DF2AC7BA19D0C7B499
:100258000BD0000120EE19F00001D151D926000180
:10026800D251DA22070E76D0000120EE19F00001F3
:10027800D151D9260001D251DA22080EDF6E1DD1E4
:10028800000120EE1BF00001D151D9260001D25106
:10029800DA22DF2A000120EE19F00001D151D92617
:1002A8000001D251DA22050EDF6E000120EE1AF0AD
:1002B8000001D151D9260001D251DA22060E4AD0C6
:1002C800000120EE33F00001D151D9260001D251AE
:1002D800DA22DF500001946F000120EE32F00001B5
:1002E800D151D9260001D251DA22DF500001945DA4
:1002F800D8B0F4D0000120EE33F00001D151D92656
:100308000001D251DA22DF500001946F00019451AC
:10031800010D1C0EF326000EF422F350000100011B
:10032800D125D96EF45000010001D221DA6EDF50D8
:10033800C96E000120EE33F00001D151D926000129
:10034800D251DA22DF2A0001946F010E0001000168
:10035800996FC1D0DF6EE3D0C7A862D0000120EE4C
:1003680018F00001D151D9260001D251DA22DF2A32
:10037800000100019E51D8B44AD0C7AA27D0000175
:1003880020EE16F00001D151D9260001D251DA220F
:10039800DF500001946F00019451010DF3500001EA
:1003A8000001D125D96EF45000010001D221DA6E86
:1003B80000019BC0DFFF000120EE16F00001D151C3
:1003C800D9260001D251DA22DF2A88D0000120EE96
:1003D8001BF00001D151D9260001D251DA22DF2ABF
:1003E800000120EE1AF00001D151D9260001D251A6
:1003F800DA22060EDF6E000120EE19F00001D1515D
:10040800D9260001D251DA22050EDF6E67D000012D
:10041800946F010E000100019D6F000194515ED0A0
:10042800000100019E51D8B47AD0000120EE18F0E6
:100438000001D151D9260001D251DA22DF2AC7AAF8
:1004480027D0000120EE16F00001D151D926000175
:10045800D251DA22DF500001946F00019451010D4E
:10046800F35000010001D125D96EF45000010001BC
:10047800D221DA6E00019BC0DFFF000120EE16F0EA
:100488000001D151D9260001D251DA22DF2A47D002
:10049800C7A4B6D6000120EE19F00001D151D92623
:1004A8000001D251DA22080EDF6E0001946F010EAE
:1004B800000100019D6F000194510001946F010E2D
:1004C800000100019C6F000194510001946F000E1F
:1004D800000100019E6F0001945121D0000120EE1F
:1004E80019F00001D151D9260001D251DA22050EA6
:1004F80031D7000120EE19F00001D151D9260001B1
:10050800D251DA22DF50050AD8B43CD6030AD8B44F
:100518005BD6010AD8B420D70F0AD8B4D1D60001C7
:1005280000019E6705D0000100019951D8B402D09E
:10053800C6A8C688000120EE16F00001D151D926C0
:100548000001D251DA22140EDF6424D00001000128
:100558009D6720D0000120EE19F00001D151D92665
:100568000001D251DA22050EDF6E000120EE1BF0E9
:100578000001D151D9260001D251DA22DF2A000127
:1005880020EE1AF00001D151D9260001D251DA2209
:10059800070EDF6E000100019D51D8B448D000015C
:1005A80020EE18F00001D151D9260001D251DA22EB
:1005B800000110EE16F00001D151E1260001D251E0
:1005C800E222E7500001946F00019451010DF350AD
:1005D80000010001D125E16EF45000010001D22193
:1005E800E26EDFCFE7FF0001946F300E00010001DB
:1005F800906F0001945100010001D2C092F00001F7
:100608000001D1C091F0000120EE16F00001D15197
:10061800D9260001D251DA22DF500001956F00017E
:10062800952939EC12F0000120EE16F04BD00001AC
:1006380020EE1BF00001D151D9260001D251DA2257
:10064800DF50D8B447D0000120EE1BF00001D15193
:10065800D9260001D251DA22DF5000010001966F3D
:10066800000120EE1AF00001D151D9260001D25123
:10067800DA22DF5000010001976F000120EE18F028
:100688000001D151D9260001D251DA22DF500001F0
:100698000001986F0001946F290E00010001906F0E
:1006A800000194510001000E00010001926F000149
:1006B800960E00010001916F030E39EC12F0000153
:1006C80020EE1BF00001D151D9260001D251DA22C7
:1006D800000EDF6E000100019C51D8B41200000E1C
:1006E800376E000E366E160E1EEC0AF00001946F7F
:1006F800000E000100019C6F0001945112009CD271
:10070800000120EE19F00001D151D9260001D25183
:10071800DA22110EDF6E000120EE34F00001D15113
:10072800D9260001D251DA22DF500001946F00016E
:10073800D8909435FE0BC96E1200C5BC7AD0000162
:1007480020EE33F00001D151D9260001D251DA222E
:10075800DF500001946F000120EE32F00001D1510A
:10076800D9260001D251DA22DF500001945DD8B0B9
:1007780035D0000120EE33F00001D151D926000117
:10078800D251DA22DF500001946F00019451010D1B
:100798001C0EF326000EF422F35000010001D125AF
:1007A800D96EF45000010001D221DA6EDF50C96E13
:1007B800000120EE33F00001D151D9260001D251B9
:1007C800DA22DF2A000120EE19F00001D151D926E2
:1007D8000001D251DA22120EDF6E12000001946F6E
:1007E8002B0E00010001906F00019451000E0001D2
:1007F8000001926F000E00010001916F000E39ECAC
:1008080012F0000120EE32F00001D151D92600018A
:10081800D251DA22000EDF6E000120EE19F000013D
:10082800D151D9260001D251DA22050EDF6EC584D6
:1008380012000001946F2C0E00010001906F00015E
:100848009451000E00010001926F000E000100019A
:10085800916F000E39EC12F0000120EE19F0000142
:10086800D151D9260001D251DA22050EDF6EC58496
:100878001200C5AC0DD0000120EE19F00001D151D5
:10088800D9260001D251DA22130EDF6EC584120078
:100898000001946F2C0E00010001906F000194512B
:1008A800000E00010001926F000E00010001916F1F
:1008B800000E39EC12F0000120EE19F00001D151C0
:1008C800D9260001D251DA22050EDF6EC584120046
:1008D8000001946F2B0E00010001906F00019451EC
:1008E800000E00010001926F000E00010001916FDF
:1008F800000E39EC12F0000120EE19F00001D15180
:10090800D9260001D251DA22050EDF6E1200C5BCCD
:1009180017D0000120EE19F00001D151D9260001AD
:10092800D251DA22140EDF6E000120EE34F00001FD
:10093800D151D9260001D251DA22DF50C96E1200F6
:100948000001946F2E0E00010001906F0001945178
:10095800000E00010001926F000E00010001916F6E
:10096800000E39EC12F0000120EE19F00001D1510F
:10097800D9260001D251DA22050EDF6EC584120095
:10098800C5BC22D0000120EE19F00001D151D926B2
:100998000001D251DA22150EDF6E000120EE32F08E
:1009A8000001D151D9260001D251DA22000EDF6EA2
:1009B800000120EE1CF00001D151D9260001D251CE
:1009C800DA22DF50C96E12000001946F2E0E00016A
:1009D8000001906F00019451000E00010001926F18
:1009E800000E00010001916F000E39EC12F00001B9
:1009F80020EE19F00001D151D9260001D251DA2296
:100A0800050EDF6EC5841200C5BC0DD0000120EEB6
:100A180019F00001D151D9260001D251DA22200E55
:100A2800DF6EC58212000001946F2E0E00010001D6
:100A3800906F00019451000E00010001926F000EAA
:100A480000010001916F000E39EC12F0000120EE58
:100A580019F00001D151D9260001D251DA22050E30
:100A6800DF6EC5841200000120EE19F00001D1519B
:100A7800D9260001D251DA22210EDF6E000120EEC4
:100A880034F00001D151D9260001D251DA22DF50C9
:100A98000109C96E1200C5BC0DD0000120EE19F085
:100AA8000001D151D9260001D251DA22220EDF6E7F
:100AB800C58612000001946F2E0E00010001906F90
:100AC80000019451000E00010001926F000E000118
:100AD8000001916F000E39EC12F0000120EE19F0C0
:100AE8000001D151D9260001D251DA22050EDF6E5C
:100AF800C5841200C7A01200000120EE19F0000101
:100B0800D151D9260001D251DA22230EDF6E00011D
:100B180020EE17F00001D151D9260001D251DA2276
:100B2800DF500001946F00019451010DF350000152
:100B38000001D125D96EF45000010001D221DA6EEE
:100B4800C9CFDFFF000120EE17F00001D151D926EF
:100B58000001D251DA22DF2A000120EE17F000014D
:100B6800D151D9260001D251DA22DF500001946F09
:100B7800000120EE16F00001D151D9260001D25112
:100B8800DA22DF500001945DD8B003D0C59AC58839
:100B98001200C58AC5881200000120EE17F0000176
:100BA800D151D9260001D251DA22DF500001946FC9
:100BB800000120EE16F00001D151D9260001D251D2
:100BC800DA22DF500001945DD8B00DD0000120EE8C
:100BD80019F00001D151D9260001D251DA22220E92
:100BE800DF6EC58612000001946F2D0E0001000112
:100BF800906F0001945100010001D2C092F00001F1
:100C08000001D1C091F0000120EE16F00001D15191
:100C1800D9260001D251DA22DF5039EC12F0000156
:100C280020EE19F00001D151D9260001D251DA2263
:100C3800050EDF6EC5841200000120EE19F00001D8
:100C4800D151D9260001D251DA22DF50090AD8B48D
:100C580057D5190AD8B45BD6010AD8B46ED5030A99
:100C6800D8B407D6010AD8B433D6070AD8B488D678
:100C7800010AD8B4C9D6350AD8B4F5D6010AD8B409
:100C88000AD7030AD8B436D7010AD8A4120084D7E1
:100C980069D10101076F000E010101010B6F01010C
:100CA80007510101076F2F0E00010001C36F0101F9
:100CB80007510101010E00010001C56F01010B0E72
:100CC80000010001C46F010E03EC12F0000E0001D8
:100CD8000001C76F000E0001C66F000E0001000181
:100CE800C96F000E0001C86F12000101076F640E82
:100CF800010101010C6F010107510101076F2F0E5E
:100D080000010001C36F010107510101010E00013B
:100D18000001C56F01010C0E00010001C46F010E36
:100D280003EC12F012000101076F440E01010101EA
:100D38000D6F010107510101076F2F0E000100011E
:100D4800C36F010107510101010E00010001C56FC8
:100D580001010D0E00010001C46F010E03EC12F039
:100D68001200000E00010001C76F010E0001C66FDE
:100D7800000E00010001C96F010E0001C86F000ECE
:100D8800396E000E386E000E3B6E000E3A6E000E85
:100D980000010001AE6F000E0001AD6F1DEC13F0F5
:100DA800000E00010001AE6F000E0001AD6F14ECE3
:100DB80013F0010120EE01F001010551D9260101CE
:100DC8000651DA22DF500101076F010107510101C5
:100DD800096F086B010120EE02F001010551D926C7
:100DE80001010651DA22DF5001010A6F01010A519F
:100DF800010108113C6E010109513D6E010120EE0F
:100E080003F001010551D92601010651DA22DF500C
:100E18000101076F010107510101096F086B010109
:100E280020EE04F001010551D92601010651DA220C
:100E3800DF5001010A6F01010A51010108113E6EDC
:100E4800010109513F6E5AD00101076FE30E0101FC
:100E580001010E6F010107510101076F1F0E2CD010
:100E68000101076F5C0E010101010E6F01010751BD
:100E78000101076FA00E20D00101076F1F0E0101AD
:100E880001010E6F010107510101076F9D0E14D07A
:100E98000101076F000E010101010E6F01010751E9
:100EA8000101076F000E08D00101076FC60E11D0AF
:100EB8000101076F460E19D0010101010F6F0101F1
:100EC80007513AD00101076F000E0FD00101076FDB
:100ED800000E010101010E6F010107510101076FA9
:100EE800360EEAD70101076F360E010101010E6FB8
:100EF800010107510101076FB60EDED705C1D9FF01
:100F080006C1DAFFDF50010AD8B49ED7030AD8B465
:100F1800A7D7010AD8B4B0D7070AD8B4B9D7010AF5
:100F2800D8B4C2D7030AD8B4C3D7160AD8B4CAD714
:100F3800010AD8B4CBD7D6D70101076F2F0E00010D
:100F48000001C36F010107510101010E00010001F9
:100F5800C56F01010E0E00010001C46F020E03EC03
:100F680012F01200010101C107F1010102C108F1EB
:100F780001010851000AD8A4120001010751300AE2
:100F8800D8B4EFD6030AD8B484D6070AD8B4ADD6F5
:100F9800010AD8B4C8D6030AD8B4E3D6010AD8A43B
:100FA8001200DFD6820ED36E9B8C0101010E000168
:100FB8000001AE6F01012E0E00010001AD6F6BEC58
:100FC80012F00101010E00010001AE6F0101470E90
:100FD80000010001AD6FFDEC0CF00101010E0001F4
:100FE8000001AE6F01012A0E00010001AD6F26EC71
:100FF80013F0BCEC0FF08168EF0E80EC12F0870E56
:10100800E7EC11F09F909F9A9F869E0ECBEC11F013
:101018009D86000E00010001AE6F260E0001AD6F27
:101028006C0E7DEC0EF062EC13F0948007EC0FF080
:101038000101010E01010101016F0101450E0101CC
:101048000101006F0101010E01010101036F01019E
:10105800100E01010101026F160E8AEC11F0010158
:101068000101466F0101010146BFBCD0A3D00101B7
:10107800010E00010001AE6F0101280E0001000100
:10108800AD6F0101000145C1AFF000010001B06B77
:1010980001010101465100010001B16F0001B26B6D
:1010A8000001B1BFB2070101010E00010001B46FD8
:1010B8000101100E00010001B36F02EC13F092D091
:1010C80010C127F18FD00101010E00010001B26F9C
:1010D8000101100E00010001B16F0101010146512B
:1010E80049EC09F07FD00101010145C101F101017D
:1010F8000101026B01010101465101010101036F68
:101108000101046B010103BF04070101010E010184
:101118000101066F0101100E01010101056F4CEC80
:1011280006F060D00101010145C101F10101010191
:10113800026B01010101465101010101036F010127
:10114800046B010103BF04070101010E0101010144
:10115800066F0101100E01010101056F4CEC06F04C
:1011680041D00101010E00010001AF6F01012C0EF9
:1011780000010001AE6F0101000145C1B0F000019E
:101188000001B16B01010101465100010001B26F7C
:101198000001B36B0001B2BFB3070101010E0001EA
:1011A8000001B56F0101100E00010001B46FC8EC19
:1011B8000DF018D00101010145510A0AD8B457D7DA
:1011C800220AD8B40FD0010AD8B47AD7030AD8B4FF
:1011D8007AD7050AD8B4C5D71F0AD8B484D7030A62
:1011E800D8B4A0D70101010E01010101016F01016D
:1011F800450E01010101006F0101010E010101010C
:10120800036F0101100E01010101026F160E69EC56
:1012180011F001010101466F0101010146BF06D726
:1012280029D00101010E00010001AF6F01012C0E50
:1012380000010001AE6F0101000145C1B0F00001DD
:101248000001B16B01010101465100010001B26FBB
:101258000001B36B0001B2BFB3070101010E000129
:101268000001B56F0101100E00010001B46FC8EC58
:101278000DF0DCD60101010145511E0AD8B4D1D7C1
:10128800010AD8B4CED72D0AD1D60001CAC0B3F00E
:101298000001CBC0B4F00001D890B433B3330001DF
:1012A800D890B433B3330001D890B433B333B3C058
:1012B800B7F0B4C0B8F0070E00010001CA1500016C
:1012C8000001B96F000E00010001CB150001BA6FD3
:1012D8000001CCC0B3F00001CDC0B4F00001D8903B
:1012E800B433B3330001D890B433B3330001D8908A
:1012F800B433B333B3C0BBF0B4C0BCF0070E0001C5
:101308000001CC1500010001BD6F000E00010001B5
:10131800CD150001BE6F0BEC13F000010001CE519A
:1013280000010001AD2500010001B56F00010001B9
:10133800CF5100010001AE210001B66F000120EE7F
:101348001CF00001D151D9260001D251DA22000146
:101358000001C65100010001C811DF6E000120EE36
:101368001DF00001D151D9260001D251DA22000125
:10137800B7C0DFFF000120EE1EF00001D151D926D1
:101388000001D251DA220001B9C0DFFF000120EECE
:101398001FF00001D151D9260001D251DA220001F3
:1013A800BBC0DFFF000120EE20F00001D151D9269B
:1013B8000001D251DA220001BDC0DFFF000E00019A
:1013C8000001CB6F000E0001CA6F000E0001000182
:1013D800CD6F000E0001CC6F000120EE4BF0000134
:1013E800D151D9260001D251DA22000EDF6E000158
:1013F80020EE32F00001D151D9260001D251DA2273
:10140800050EDF6E000120EE33F00001D151D92620
:101418000001D251DA22010EDF6E000120EE1CF02D
:101428000001D151D9260001D251DA22DF50C96E0C
:10143800C68812000001CAC080F00001CBC081F04C
:101448000001D890813380330001D89081338033F4
:101458000001D8908133803380C084F081C085F04A
:10146800070E00010001CA1500010001866F000E79
:1014780000010001CB150001876F0001CCC080F08E
:101488000001CDC081F00001D89081338033000184
:10149800D890813380330001D8908133803380C065
:1014A80088F081C089F0070E00010001CC15000109
:1014B80000018A6F000E00010001CD1500018B6F3D
:1014C80053EC13F000010001CE5132240001000159
:1014D800826F00010001CF5133200001836F0001AA
:1014E80020EE1CF00001D151D9260001D251DA2298
:1014F80000010001C65100010001C811DF6E0001A2
:1015080020EE1DF00001D151D9260001D251DA2276
:10151800000184C0DFFF000120EE1EF00001D15160
:10152800D9260001D251DA22000186C0DFFF00016E
:1015380020EE1FF00001D151D9260001D251DA2244
:10154800000188C0DFFF000120EE20F00001D1512A
:10155800D9260001D251DA2200018AC0DFFF000E2D
:1015680000010001CB6F000E0001CA6F000E0001E0
:101578000001CD6F000E0001CC6F000120EE4BF092
:101588000001D151D9260001D251DA22000EDF6EB6
:10159800000120EE32F00001D151D9260001D251CC
:1015A800DA22050EDF6E000120EE33F00001D15182
:1015B800D9260001D251DA22010EDF6E000120EE99
:1015C8001CF00001D151D9260001D251DA22DF5096
:1015D800C96EC6881200000120EE65F00001B751FF
:1015E800D9260001B851DA22DF5000010001C06F8E
:1015F80000010001C051190DF35000010001B72589
:1016080000010001C36FF45000010001B82100017E
:10161800C46F010EC3C0D9FFC4C0DAFFDF6274D043
:10162800000120EE01F00001C351D9260001C45188
:10163800DA22DF5000010001B95DD8B002D0FD0EFA
:101648001200000120EE01F00001C351D92600016B
:10165800C451DA22DF500001BE6F0001BE51000103
:101668000001C16F0001C26B00010001BDC0AEF0F6
:1016780000010001BCC0ADF0030E00010001C3254C
:101688000001BE6F000E00010001C4210001BF6F00
:10169800BEC0AFF0BFC0B0F0C1C0B1F0C2C0B2F0C0
:1016A80026EC10F0000120EE65F00001B751D926B4
:1016B8000001B851DA22000110EE65F00001B751BF
:1016C800E1260001B851E222E7500001BE6F000197
:1016D800BE29030BDF6E000120EE02F00001C351AA
:1016E800D9260001C451DA22BAC0E1FFBBC0E2FF2B
:1016F800DFCFE7FFC3C0D9FFC4C0DAFF000EDF6E3B
:1017080000010001C1511200FC0E1200000100018D
:10171800B9C0BEF000010001BF6B000120EE64F00B
:101728000001B751D9260001B851DA22DF50000173
:101738000001C06F00010001C051190DF3500001F4
:101748000001B72500010001C16FF450000100013C
:10175800B8210001C26FC1C0D9FFC2C0DAFFDF5093
:10176800D8B402D0FF0E1200000120EE01F00001F3
:10177800C151D9260001C251DA220001B9C0DFFFE8
:10178800000120EE02F00001C151D9260001C2512A
:10179800DA220001BAC0DFFF030E00010001C125F3
:1017A80000010001AD6F000E00010001C22100011F
:1017B800AE6F00010001BCC0B0F000010001BBC069
:1017C800AFF0BEC0B1F0BFC0B2F026EC10F000011F
:1017D80020EE64F00001B751D9260001B851DA2291
:1017E800000110EE64F00001B751E1260001B85184
:1017F800E222E7500001BD6F0001BD29030BDF6E37
:10180800C1C0D9FFC2C0DAFF010EDF6E010E12009F
:101818000001000186C08BF0000100018C6B000103
:1018280020EE64F000018451D92600018551DA22A6
:10183800DF50000100018D6F000100018D51190D6D
:10184800F350000100018425000100018E6FF4505F
:1018580000010001852100018F6F8EC0D9FF8FC064
:10186800DAFFDF50D8B402D0FF0E1200000120EEDC
:1018780001F000018E51D92600018F51DA220001B2
:1018880086C0DFFF000120EE02F000018E51D9264C
:1018980000018F51DA22000187C0DFFF030E00012B
:1018A80000018E25326E000E000100018F21336E7B
:1018B800000189C035F0000188C034F08BC036F0D3
:1018C8008CC037F0B2EC10F0000120EE64F000019B
:1018D8008451D92600018551DA22000110EE64F006
:1018E80000018451E12600018551E222E750000100
:1018F8008A6F00018A29030BDF6E8EC0D9FF8FC063
:10190800DAFF010EDF6E010E120065D01B6E010EAC
:101918004B6E1B50000E436E000E426E000E456E5D
:10192800000E446E000E476E000E466E1200FF0E4B
:101938001B6EFF0E1C6E20EE16F04D50D9264E5031
:10194800DA22DF501D6E1E6A1B501D261C501E22F7
:101958001D504D24D96E1E504E20DA6EDF501F6E7A
:101968000F0E1F161F50446E456A1B6E020E4B6EFB
:101978001B501200010E42241B6E000E43201C6EE9
:101988001C50800A1D6E44501B5C4550800A1D582F
:10199800D8B003D0424A432A12001B6E030E4B6E86
:1019A8001B5012001B6E320E176E1B504EC019F0E2
:1019B8004DC018F04450030F95EC12F020EE16F0CD
:1019C8004D50D9264E50DA22000EDF6E1B6E000EE7
:1019D8004B6E1B5012004B50000AD8B497D7010A1F
:1019E800D8B4A5D7030AD8B4C5D7010AD8A4120019
:1019F800D9D700010001AEC0D2F000010001ADC08E
:101A0800D1F0D1C0D9FFD2C0DAFF000EDF6E0001DD
:101A180020EE01F00001D151D9260001D251DA227D
:101A2800000EDF6E000120EE02F00001D151D92630
:101A38000001D251DA22000EDF6E000120EE16F00E
:101A48000001D151D9260001D251DA22000EDF6EF1
:101A5800000120EE18F00001D151D9260001D25121
:101A6800DA22000EDF6E000120EE19F00001D151DC
:101A7800D9260001D251DA22050EDF6E000120EED0
:101A88001BF00001D151D9260001D251DA22000EF3
:101A9800DF6E000120EE4CF00001D151D926000183
:101AA800D251DA22000EDF6E000120EE4BF0000169
:101AB800D151D9260001D251DA22000EDF6E120070
:101AC800E8CF32F0000120EE18F00001D151D926FC
:101AD8000001D251DA22010EDF6E000120EE16F06D
:101AE8000001D151D9260001D251DA22000EDF6E51
:101AF8003250D8B43DD0C7AA21D0000120EE19F049
:101B08000001D151D9260001D251DA22050EDF6E2B
:101B1800000120EE1BF00001D151D9260001D2515D
:101B2800DA22DF2A000120EE1AF00001D151D9266D
:101B38000001D251DA22050EDF6E1200C7A40CD0C4
:101B4800000120EE19F00001D151D9260001D2512F
:101B5800DA22080EDF6E1200000120EE19F00001F3
:101B6800D151D9260001D251DA22070EDF6E1200B8
:101B7800000120EE19F00001D151D9260001D251FF
:101B8800DA22060EDF6E120000010001B0511E0AB3
:101B9800B111D8B4120000010001B0511F0AB111EF
:101BA800D8A411D000010001B25100010001B425F0
:101BB800D96E00010001B35100010001B521DA6EB0
:101BC800000EDF6E120000010001B0512F0AB111A2
:101BD800D8A41200000E00010001B86F000E000129
:101BE800B76F000E00010001B86F000E0001B76F5B
:101BF80017D0ACA2FED700010001B75100010001C7
:101C0800B425D96E00010001B85100010001B521C9
:101C1800DA6EDF50F8EC12F000010001B74BB82B78
:101C280000010001B851800A0001B66F0001B251ED
:101C380000010001B75D00010001B351800A0001F5
:101C4800B659D8B01200D5D70DC012F0136A20EEDD
:101C580064F00B50D9260C50DA22DF50146E145061
:101C6800190DF3500B24156EF4500C20166E15C088
:101C7800D9FF16C0DAFFDF50D8B402D0FF0E120029
:101C880020EE01F01550D9261650DA220DC0DFFFDC
:101C980020EE02F01550D9261650DA220EC0DFFFCA
:101CA800030E1524016E000E1620026E10C004F0FB
:101CB8000FC003F012C005F013C006F0ABEC11F032
:101CC80020EE64F00B50D9260C50DA2210EE64F0A6
:101CD8000B50E1260C50E222E750116E1128030B3D
:101CE800DF6E15C0D9FF16C0DAFF010EDF6E010ED8
:101CF8001200E8CFB2F0000EAC6E000EAB6E000121
:101D08000001B2B1AC8800010001B2A302D0AC8CD2
:101D1800AB8C00010001B2B5AC8E00010001B2A786
:101D280002D0AB8801D0AB8A00010001B2B9AC8403
:101D38009E9800010001B2BBAB8600010001B2AD64
:101D480002D09D8A01D09D9A9E9A00010001B2AFEF
:101D580002D09D8801D09D98ADC0AFFF0001AEC0F4
:101D6800AFF0AFC0B0F00001B16B0001B051B06E80
:101D7800AC8AAB8E949C948EACA81200ACBE1200B8
:101D8800948C1200E9CFA1F0EACFA2F0E1CFA3F042
:101D9800E2CFA4F0D9CFA5F0DACFA6F0F3CFA7F021
:101DA800F4CFA8F0F6CFA9F0F7CFAAF0F8CFABF0B0
:101DB800F5CFACF09EA603D09E96CDEC12F0F2A41F
:101DC80003D0F29483EC0FF0DAEC10F0ACC0F5FF1E
:101DD800ABC0F8FFAAC0F7FFA9C0F6FFA8C0F4FF80
:101DE800A7C0F3FFA6C0DAFFA5C0D9FFA4C0E2FFD1
:101DF800A3C0E1FFA2C0EAFFA1C0E9FFA0C0FBFFAA
:101E08009FC0FAFF110047EC11F000010001B25128
:101E18000001B111D8B412000001B36F010E4A6E6F
:101E28000001B3510101010E00010001AE6F010173
:101E3800940E00010001AD6F1EEC12F00009D8B439
:101E480007D00001B36F000E4A6E0001B3511200B3
:101E58000201020E00010001AE6F0201660E0001D0
:101E68000001AD6F1EEC12F00009D8B407D00001D4
:101E7800B36F000E4A6E0001B35112000A0EEDEC6A
:101E880012F0D0D7000120EE64F00001AD51D92640
:101E98000001AE51DA22000EDF6E000120EE65F07F
:101EA8000001AD51D9260001AE51DA22000EDF6ED5
:101EB8000001AF6F000E00010001B06F0001AF51CB
:101EC800030E00010001B06501D0120000010001FD
:101ED800B051190DF35000010001AD25D96EF45031
:101EE80000010001AE21DA6E000EDF6E0001000174
:101EF800B02B030E00010001B065E8D71200000EF8
:101F0800336E000E326E4AEC13F0384A392A00015B
:101F18000001CA4BCB2B3950800A0001946F3C500A
:101F2800385C3D50800A00019459D8A01200000185
:101F38000001C605C711D8A412000001946F330E22
:101F480000010001906F00019451000E0001000192
:101F5800926F000E00010001916F000E39EC12F033
:101F6800000E00010001C76F000E0001C66F1200CD
:101F78000001B16F000E4A6E0001B1510201020E5C
:101F880000010001AE6F0201660E00010001AD6F95
:101F980046EC0FF00101010E00010001AE6F0101D6
:101FA800940E00010001AD6F46EC0FF00201020E25
:101FB80000010001AE6F0201000E00010001AD6FCB
:101FC80046EC0FF00301030E00010001AE6F0301A0
:101FD800000E00010001AD6F46EC0FF01200000E7C
:101FE8001D6E040E1C6E3A4A3B2A00010001CC4BC0
:101FF800CD2B3B50800A1B6E3E503A5C3F50800A06
:102008001B58D8A018D000010001C805C911D8A4D0
:1020180012D0000E00010001C96F000E0001C86F48
:102028001B6E330E176E1B50000E196E000E186EC5
:10203800000EA8EC12F0000E026E000E016E38ECD5
:1020480013F0120000010001B0C0B6F00001000159
:10205800AFC0B5F000010001AEC0B4F0000100014E
:10206800ADC0B3F012D0B5C0D9FFB6C0DAFFB3C067
:10207800E1FFB4C0E2FFDFCFE7FF00010001B54B8D
:10208800B62B00010001B34BB42B00010001B107CE
:10209800D8A0B2070001B129D8B4B229D8B4120027
:1020A800E2D7000E026E000E016E41EC13F0384AC2
:1020B800392A00010001CA4BCB2B3950800A1B6E0C
:1020C8003C50385C3D50800A1B58D8A012000001D3
:1020D8000001C605C711D8A412001B6E330E176E77
:1020E8001B50000E196E000E186E000EA8EC12F0B0
:1020F800000E00010001C76F000E0001C66F12003C
:102108009EAA1CD020EE16F04D50D9264E50DA2249
:10211800DF50206E2050010DF3504D24D96EF4503D
:102128004E20DA6EDEEC12F0DF6E20EE16F04D5027
:10213800D9264E50DA22DF2A89EC0CF04CA6120080
:10214800AB98AB88206E1E0E176E2050000E196ECD
:10215800000E186E000E95EC12F01200000135C04A
:1021680083F0000134C082F0000133C081F0000127
:1021780032C080F012D082C0D9FF83C0DAFF80C09D
:10218800E1FF81C0E2FFDFCFE7FF00010001824BE2
:10219800832B00010001804B812B3606D8A037061F
:1021A8003628D8B43728D8B41200E5D74A6601D003
:1021B800120054EC12F035503410D8A412005CEC24
:1021C80013F033503210D8B412000101010E336EEF
:1021D8000101940E326EBBEC12F00009D8A4120073
:1021E8000201020E336E0201660E326EBBEC12F073
:1021F8000009D8B466EC13F0120003EE00F0660E86
:10220800EE6AE806FDE102EE00F0CC0EEE6AE806A2
:10221800FDE101EE94F0660EEE6AE806FDE100EEDF
:10222800C6F00B0EEE6AE806FDE100EE38F0150E7A
:10223800EE6AE806FDE1000EF86E0001D6EF07F041
:10224800F2AC08D0000E00010001B06F000E0001D2
:10225800AF6F12002FEC13F000010001AE51000126
:10226800AD11D8B408D0000E00010001B06F000E07
:102278000001AF6F1200000E00010001B06F010EE7
:102288000001AF6F120024EC11F000010001B05101
:102298000001AF11D8A411D02FEC13F000010001F8
:1022A800AE510001AD11D8A408D0000E0001000104
:1022B800B26F010E0001B16F1200000E00010001A3
:1022C800B26F000E0001B16F1200E8CFC5F0020135
:1022D800020E00010001B86F0201660E0001000144
:1022E800B76FC5C0B9F00101000101C1BBF0010120
:1022F800000100C1BAF00101000103C1BDF00101F4
:10230800000102C1BCF0EFEC0AF01200E8CFC5F002
:102318000101010E00010001B86F0101940E0001D6
:102328000001B76FC5C0B9F00101000101C1BBF0E0
:102338000101000100C1BAF00101000103C1BDF0B3
:102348000101000102C1BCF0EFEC0AF0120004C068
:102358000AF003C009F002C008F001C007F00ED06F
:1023680009C0D9FF0AC0DAFF07C0E1FF08C0E2FFD1
:10237800DFCFE7FF094A0A2A074A082A0506D8A034
:1023880006060528D8B40628D8B41200E9D7E8CF3D
:10239800AEF094869488AEC0C8FF000EC76E000EDB
:1023A800C66E000EC56E0E0EC612C78E9486948831
:1023B8000001AD6F020E00010001D06F0001AD51A8
:1023C800C580C68A1200E8CFADF000010001AD510A
:1023D8007E0BCD6E00010001ADAD02D0CD8E01D0D7
:1023E800CD9E000ECF6E000ECE6E9E9000010001B5
:1023F800ADAF02D09D8001D09D90CD801200E8CF76
:1024080000F10101010E00010001B86F0101940EF5
:1024180000010001B76F00C1B9F0C3C0BAF00001F4
:102428000001C5C0BCF000010001C4C0BBF08AECCB
:102438000BF01200000120EE65F00001AD51D92625
:102448000001AE51DA22DF500001AF6F0001AF5139
:10245800190DF35000010001AD25D96EF4500001AB
:102468000001AE21DA6EDF501200E8CF93F00101CF
:10247800010E00010001856F0101940E00010001A9
:10248800846F93C086F090C087F00001000192C06D
:1024980089F00001000191C088F00CEC0CF01200EA
:1024A800F2AC05D0000E356E000E346E12005CECF6
:1024B80013F033503210D8B405D0000E356E000E2C
:1024C800346E1200000E356E010E346E12000001DB
:1024D800AEC04EF00001ADC04DF020EE16F04D50EC
:1024E800D9264E50DA22000EDF6E0001AF6F000EC3
:1024F8004B6E0001AF511200E8CFADF000010001B2
:10250800AD517F0BD56E000ED76E000ED66EF294CD
:1025180000010001ADAF02D0F28A01D0F29AD58E47
:102528001200E8CF1AF00201020E0C6E0201660ECC
:102538000B6E1AC00DF017C00EF019C010F018C0BD
:102548000FF028EC0EF01200E8CF1AF00101010E8E
:102558000C6E0101940E0B6E1AC00DF017C00EF030
:1025680019C010F018C00FF028EC0EF0120020EE81
:1025780065F03250D9263350DA22DF50346E3450A9
:10258800190DF3503224D96EF4503320DA6EDF502F
:10259800120006D083EC03F0120062EC00F0120087
:1025A80000010001D051010AD8B4F4D7030AD8A415
:1025B8001200F3D7F20E4C16ABAC03D04C90ABB074
:1025C8004C80ABB44C84ABB24C86AECF01F001501A
:1025D8001200E8CFADF0FA0E00F0E82EFDD70001AA
:1025E8000001AD2FF8D71200E8CFADF0ACAC03D0A6
:1025F800AC904CB2AC80ADC0ADFF12000001000140
:10260800B4C0B6F000010001B3C0B5F01200CECFDF
:10261800AFF0CFCFB0F0AFC0ADF0B0C0AEF01200A9
:10262800ADC0AFF0AEC0B0F0B0C0CFFFAFC0CEFF0E
:102638001200ADC0AFF0AEC0B0F0B0C0D7FFAFC0B1
:10264800D6FF1200ADC0D9FFAEC0DAFF000EDE6EB5
:10265800000EDD6E1200000EF2AE010E0001000148
:10266800AD6F0001AE6B120001C003F002C004F0B0
:1026780004C0CFFF03C0CEFF120001C003F002C0A8
:1026880004F004C0D7FF03C0D6FF120032C034F0F4
:1026980033C035F035C0D7FF34C0D6FF1200CECFD7
:1026A80034F0CFCF35F034C032F035C033F01200FB
:1026B800000EF2AE010E326E336A1200D08EF28E28
:0A26C800F28C1200D38E0300120002
:067FF80080F4C5FFFFF15B
:00000001FF
