:0400000056EF00F0C7
:0C000800FACF40F0FBCF41F027EF04F0EE
:10001800D8CF18F0E8CF19F0E0CF1AF0FACF1BF0DC
:10002800FBCF1CF0E9CF1DF0EACF1EF0E1CF1FF0A7
:10003800E2CF20F0D9CF21F0DACF22F0F3CF23F0AE
:10004800F4CF24F0F6CF25F0F7CF26F0F8CF27F03D
:10005800F5CF28F09EA003D09E9025EC05F028C08F
:10006800F5FF27C0F8FF26C0F7FF25C0F6FF24C01C
:10007800F4FF23C0F3FF22C0DAFF21C0D9FF20C05C
:10008800E2FF1FC0E1FF1EC0EAFF1DC0E9FF1CC060
:10009800FBFF1BC0FAFF1AC0E0FF19C0E8FF18C039
:1000A800D8FF100004EF05F0A5EC06F00101010EE1
:1000B80000010001B76F0101000E00010001B66FD9
:1000C80066EC04F00101010E00010001B76F0101A7
:1000D800360E00010001B66F66EC04F00001000E58
:1000E80000010001B76F0001800E00010001B66F2A
:1000F80066EC04F0A3EC04F00001000E000100011E
:10010800B76F0001DA0E00010001B66FD1EC06F0FE
:100118000001000E00010001B76F0001DC0E0001B4
:100128000001B66FDAEC06F00001000E00010001D4
:10013800B76F0001DE0E00010001B66FE3EC06F0B8
:1001480090EC06F00001000E00010001C16F0001F3
:10015800800E00010001C06F0001CE6F0A0E000181
:100168000001C26F0001CE510001000E0001000124
:10017800C46F0001E10E00010001C36F0001000E11
:1001880000010001C66F0001CF0E00010001C56F1C
:100198007FEC02F000010001E06F00010001E0BF08
:1001A80035D02DD00001000E00010001B76F00010D
:1001B800DE0E00010001B66F00010001E1C0B8F0D9
:1001C80000010001B96B00010001E05100010001CC
:1001D800BA6F0001BB6B0001BABFBB070001000E7C
:1001E80000010001BD6F0001CF0E00010001BC6FCE
:1001F80004EC07F00BD0030E1AEC03F007D0000153
:100208000001E1510C0AD8B4CDD7F5D70101010E90
:1002180000010001C16F0101000E00010001C06F63
:100228000001CE6F0A0E00010001C26F0001CE511D
:100238000001000E00010001C46F0001E10E000181
:100248000001C36F0001000E00010001C66F00012C
:10025800CF0E00010001C56F7FEC02F00001000124
:10026800E06F00010001E0BF35D02DD00001000E85
:1002780000010001B76F0001DC0E00010001B66F3C
:1002880000010001E1C0B8F000010001B96B0001F4
:100298000001E05100010001BA6F0001BB6B0001D1
:1002A800BABFBB070001000E00010001BD6F0001CD
:1002B800CF0E00010001BC6F03EC07F00BD0030E5A
:1002C8001AEC03F007D000010001E1510A0AD8B482
:1002D800CDD7F5D7040E67EC05F0040E87EC05F0D2
:1002E8000101010E00010001C16F0101360E00017C
:1002F8000001C06F0001CE6F0A0E00010001C26F3D
:100308000001CE510001000E00010001C46F000180
:10031800E10E00010001C36F0001000E00010001A1
:10032800C66F0001CF0E00010001C56F7FEC02F01F
:1003380000010001E06F00010001E0BF03D72DD0EC
:100348000001000E00010001B76F0001DA0E000184
:100358000001B66F00010001E1C0B8F00001000122
:10036800B96B00010001E05100010001BA6F000102
:10037800BB6B0001BABFBB070001000E0001000102
:10038800BD6F0001CF0E00010001BC6F02EC07F049
:10039800D9D6040E1AEC03F0D5D600010001E151BC
:1003A8000B0AD8B4CDD7F5D7C7EC06F02A502910D8
:1003B800D8B472D0000E4F6E010E4E6E6DD0B3ECF5
:1003C80006F02A502910D8B403D0BDEC06F01BD093
:1003D8004F504E10D8B417D0BDEC06F02A50291053
:1003E800D8A411D0FEEC06F02A502910D8A404D0C5
:1003F800020EE8CF72F207D0030EE8CF72F2000EB9
:100408004F6E000E4E6E22EE6EF012EE70F0E65257
:10041800DE52E550800A3E6EDD50800A3E5C02E105
:10042800DF50E75CD8B014D022EE70F0DECF3EF09B
:10043800DDCF3FF0EE0E3E24D96E010E3F20DA6E7E
:10044800DF50C96E22EE70F0DE2A000EDD220BD0DE
:1004580051505010D8A40CD022EE6EF0DE50DD10B2
:10046800D8A406D0C968000E516E010E506E20D077
:10047800000E516E000E506E000EE8CF70F2000EA6
:10048800E8CF71F2000EE8CF6EF2000EE8CF6FF2FF
:10049800000EE8CF72F20CD022EE72F0DF50000AA4
:1004A800D8B48DD7020AD8B403D0010AD8B4ABD7D0
:1004B8004F504E10D8A404D051505010D8B406D084
:1004C80000EC07F02A502910D8B4C6880001000EA5
:1004D800346E0001800E336E3E6E000E356E3E5057
:1004E8003F6E0C0E366E3F50000E386E000E376EA3
:1004F800D4EC03F01200000120EE35F00001C051E9
:10050800D9260001C151DA22DF5000010001C96F6C
:1005180000010001C9510D0DF35000010001C02573
:1005280000010001CC6FF45000010001C12100015D
:10053800CD6F010ECCC0D9FFCDC0DAFFDF6274D019
:10054800000120EE01F00001CC51D9260001CD5167
:10055800DA22DF5000010001C25DD8B002D0FD0EE2
:100568001200000120EE01F00001CC51D926000153
:10057800CD51DA22DF500001C76F0001C7510001D9
:100588000001CA6F0001CB6B00010001C6C0B7F0C3
:1005980000010001C5C0B6F0030E00010001CC2522
:1005A8000001C76F000E00010001CD210001C86FD6
:1005B800C7C0B8F0C8C0B9F0CAC0BAF0CBC0BBF069
:1005C800D5EC04F0000120EE35F00001C051D92629
:1005D8000001C151DA22000110EE35F00001C051CE
:1005E800E1260001C151E222E7500001C76F000176
:1005F800C729030BDF6E000120EE02F00001CC5189
:10060800D9260001CD51DA22C3C0E1FFC4C0E2FF00
:10061800DFCFE7FFCCC0D9FFCDC0DAFF000EDF6E19
:1006280000010001CA511200FC0E1200E8CFB7F019
:1006380051D08AB002D0010E01D0000E0001B66F71
:100648008A500001B619FE0BB6198A6E12008AB2DA
:1006580002D0010E01D0000E0001B66F0001B647AE
:100668008A500001B619FD0BB6198A6E12008AB4B9
:1006780002D0010E01D0000E0001B66F0001B6478E
:10068800B6478A500001B619FB0BB6198A6E1200DC
:100698008AB602D0010E01D0000E0001B66F00012B
:1006A800B647B647B6478A500001B619F70BB619D0
:1006B8008A6E12008AB802D0010E01D0000E000125
:1006C800B66F0001B63B8A500001B619EF0BB61998
:1006D8008A6E120000010001B751000AD8B4A9D7E8
:1006E800010AD8B4B4D7030AD8B4C1D7010AD8B418
:1006F800CFD7070AD8A41200DDD70DC013F00A0E11
:100708000D6401D0120020EE34F00B50D9260C50A5
:10071800DA22DF50126E12500D0DF3500B24146EB6
:10072800F4500C20156E14C0D9FF15C0DAFFDF5045
:10073800D8A4120020EE01F01450D9261550DA2260
:100748000DC0DFFF20EE02F01450D9261550DA2232
:100758000EC0DFFF030E1424016E000E1520026E7A
:10076800046A0FC003F013C005F0066AA7EC05F091
:1007780020EE34F00B50D9260C50DA2210EE34F06B
:100788000B50E1260C50E222E750116E1128030BA2
:10079800DF6E14C0D9FF15C0DAFF010EDF6E12003C
:1007A80035C03BF00A0E356401D0120020EE34F05B
:1007B8003350D9263450DA22DF503A6E3A500D0DB4
:1007C800F35033243C6EF45034203D6E3CC0D9FFC6
:1007D8003DC0DAFFDF50D8A4120020EE01F03C50F3
:1007E800D9263D50DA2235C0DFFF20EE02F03C501A
:1007F800D9263D50DA2236C0DFFF030E3C24296E8D
:10080800000E3D202A6E2C6A37C02BF03BC02DF01D
:100818002E6AC7EC05F020EE34F03350D926345058
:10082800DA2210EE34F03350E1263450E222E75059
:10083800396E3928030BDF6E3CC0D9FF3DC0DAFFA3
:10084800010EDF6E1200E9CF42F0EACF43F0E1CFAC
:1008580044F0E2CF45F0D9CF46F0DACF47F0F3CFF6
:1008680048F0F4CF49F0F6CF4AF0F7CF4BF0F8CF85
:100878004CF0F5CF4DF0F2A403D0F29446EC05F01D
:100888009EA603D09E96D8EC01F04DC0F5FF4CC053
:10089800F8FF4BC0F7FF4AC0F6FF49C0F4FF48C055
:1008A800F3FF47C0DAFF46C0D9FF45C0E2FF44C0A6
:1008B800E1FF43C0EAFF42C0E9FF41C0FBFF40C07F
:1008C800FAFF1100000120EE34F00001B651D926DC
:1008D8000001B751DA22000EDF6E000120EE35F07C
:1008E8000001B651D9260001B751DA22000EDF6E99
:1008F8000001B86F000E00010001B96F0001B85186
:10090800030E00010001B96501D0120000010001C9
:10091800B9510D0DF35000010001B625D96EF45000
:1009280000010001B721DA6E000EDF6E0001000140
:10093800B92B030E00010001B965E8D712007E0E3D
:10094800E8CFEEF1000EE8CF6CF1000EE8CF6DF1C4
:10095800000EE8CF70F2000EE8CF71F2010EE8CF7A
:100968006EF2000EE8CF6FF2000EE8CF72F2000EC2
:10097800536E000E526E000E4F6E000E4E6E948631
:1009880094889E0EC86E000EC76E000EC66E000ECE
:10099800C56E0E0EC612C78E94889486C580C68A08
:1009A800120000010001B9C0BFF000010001B8C089
:1009B800BEF000010001B7C0BDF000010001B6C0E3
:1009C800BCF012D0BEC0D9FFBFC0DAFFBCC0E1FF87
:1009D800BDC0E2FFDFCFE7FF00010001BE4BBF2B28
:1009E80000010001BC4BBD2B00010001BA07D8A0D3
:1009F800BB070001BA29D8B4BB29D8B41200E2D782
:100A080001EE6CF011EE07F0EE6AE550E150FCE102
:100A1800E250FAE101EE00F06C0EEE6AE806FDE144
:100A280000EE80F0360EEE6AE806FDE100EE4EF0CC
:100A3800070EEE6AE806FDE1000EF86E000158EFB9
:100A480000F0010EE7EC05F00101010E0C6E01014A
:100A5800360E0B6E166E000E0D6E1650176E0B0EC0
:100A68000E6E1750000E106E000E0F6E81EC03F024
:100A7800F00E026E000E016EECEC06F0010E05ECB5
:100A880006F01200000E23EC06F00101010E346E90
:100A98000101000E336E3E6E000E356E3E503F6E05
:100AA8000A0E366E3F50000E386E000E376ED4ECCC
:100AB80003F0F00E2A6E000E296EF5EC06F0000E1B
:100AC80041EC06F01200E8CFB6F00AD08A80120096
:100AD8008A8212008A8412008A8612008A8812008A
:100AE80000010001B651000AD8B4F0D7010AD8B401
:100AF800EFD7030AD8B4EED7010AD8B4EDD7070A5E
:100B0800D8A41200EBD7E8CFB6F00AD08A9012002A
:100B18008A9212008A9412008A9612008A98120009
:100B280000010001B651000AD8B4F0D7010AD8B4C0
:100B3800EFD7030AD8B4EED7010AD8B4EDD7070A1D
:100B4800D8A41200EBD704C00AF003C009F002C011
:100B580008F001C007F00ED009C0D9FF0AC0DAFFBB
:100B680007C0E1FF08C0E2FFDFCFE7FF094A0A2A12
:100B7800074A082A0506D8A006060528D8B4062874
:100B8800D8B41200E9D72CC032F02BC031F02AC0FB
:100B980030F029C02FF00ED031C0D9FF32C0DAFFB3
:100BA8002FC0E1FF30C0E2FFDFCFE7FF314A322A32
:100BB8002F4A302A2D06D8A02E062D28D8B42E2844
:100BC800D8B41200E9D7E8CF01F00AD08A80120021
:100BD8008A8212008A8412008A8612008A88120089
:100BE8000150000AD8B4F2D7010AD8B4F1D7030AE1
:100BF800D8B4F0D7010AD8B4EFD7070AD8A412009E
:100C0800EDD7E8CF01F00AD08A9012008A9212003C
:100C18008A9412008A9612008A9812000150000ADB
:100C2800D8B4F2D7010AD8B4F1D7030AD8B4F0D7A8
:100C3800010AD8B4EFD7070AD8A41200EDD7E8CF35
:100C480029F00AD08A8012008A8212008A8412004F
:100C58008A8612008A8812002950000AD8B4F2D76E
:100C6800010AD8B4F1D7030AD8B4F0D7010AD8B426
:100C7800EFD7070AD8A41200EDD7E8CF29F00AD099
:100C88008A9012008A9212008A9412008A961200A0
:100C98008A9812002950000AD8B4F2D7010AD8B4A9
:100CA800F1D7030AD8B4F0D7010AD8B4EFD7070AA6
:100CB800D8A41200EDD7E8CFB6F000010001B65174
:100CC8007E0BCD6E00010001B6AD02D0CD8E01D0F5
:100CD800CD9E000ECF6E000ECE6E9E9000010001DC
:100CE800B6AF02D09D8001D09D90CD801200E8CF94
:100CF800B6F000010001B6517F0BD56E000ED76E1D
:100D0800000ED66EF29400010001B6AF02D0F28A4E
:100D180001D0F29AD58E1200000E9D6E000EA06EC4
:100D2800000EA36EF298F29AF296F096F0989F90C1
:100D3800F1849D809F869D86F28AD08EF28EF28CF9
:100D48001200820ED36E9B9C000E936E000E8A6E6C
:100D5800900E7BEC06F0D50E5FEC06F01200C7A8EB
:100D680003D02B6A2B2A01D02B6A2B50296E2A6AB2
:100D78001200C7AA03D02B6A2B2A01D02B6A2B504A
:100D8800296E2A6A1200C7A003D02B6A2B2A01D029
:100D98002B6A2B50296E2A6A1200B6C0D9FFB7C039
:100DA800DAFF000EDE6E000EDD6E1200B6C0D9FF4F
:100DB800B7C0DAFF000EDE6E000EDD6E1200B6C0A0
:100DC800D9FFB7C0DAFF000EDE6E000EDD6E12002E
:100DD80001C003F002C004F004C0CFFF03C0CEFF7F
:100DE800120029C02BF02AC02CF02CC0D7FF2BC032
:100DF800D6FF1200C7501200C6501200120012008F
:020E08001200D6
:067FF80080F4C5FFFFF15B
:00000001FF
