:040000005BEF00F0C2
:0C000800FACF8FF0FBCF90F09AEF05F0DC
:10001800D8CF1FF0E8CF20F0E0CF21F0FACF22F0C0
:10002800FBCF23F0E9CF24F0EACF25F0E1CF26F08B
:10003800E2CF27F0D9CF28F0DACF29F0F3CF2AF092
:10004800F4CF2BF0F6CF2CF0F7CF2DF0F8CF2EF021
:10005800F5CF2FF09EA003D09E9073EC09F09EAAD6
:1000680003D09E9ABAEC04F02FC0F5FF2EC0F8FF1B
:100078002DC0F7FF2CC0F6FF2BC0F4FF2AC0F3FFFA
:1000880029C0DAFF28C0D9FF27C0E2FF26C0E1FF58
:1000980025C0EAFF24C0E9FF23C0FBFF22C0FAFF06
:1000A80021C0E0FF20C0E8FF1FC0D8FF100005EF07
:1000B80008F07ED2000120EE19F00001BA51D926CD
:1000C8000001BB51DA22110EDF6E000120EE34F080
:1000D8000001BA51D9260001BB51DA22DF503C6E2B
:1000E800D8903C34FE0BC96E1200C5BC74D0000118
:1000F80020EE33F00001BA51D9260001BB51DA22B3
:10010800DF503C6E000120EE32F00001BA51D926D2
:100118000001BB51DA22DF503C5CD8B033D000017B
:1001280020EE33F00001BA51D9260001BB51DA2282
:10013800DF503C6E3C50010D1C0EF326000EF422DD
:10014800F35000010001BA25D96EF45000010001F6
:10015800BB21DA6EDF50C96E000120EE33F00001DA
:10016800BA51D9260001BB51DA22DF2A000120EE5C
:1001780019F00001BA51D9260001BB51DA22120E3A
:10018800DF6E12003C6E2B0E000100018B6F3C509D
:10019800000E000100018D6F000E000100018C6F40
:1001A800000E58EC09F0000120EE32F00001BA51BF
:1001B800D9260001BB51DA22000EDF6E000120EEC5
:1001C80019F00001BA51D9260001BB51DA22050EF7
:1001D800DF6EC58412003C6E2C0E000100018B6F8F
:1001E8003C50000E000100018D6F000E000100015F
:1001F8008C6F000E58EC09F0000120EE19F0000198
:10020800BA51D9260001BB51DA22050EDF6EC5842A
:100218001200C5AC0DD0000120EE19F00001BA5152
:10022800D9260001BB51DA22130EDF6EC5841200F5
:100238003C6E2C0E000100018B6F3C50000E00013B
:1002480000018D6F000E000100018C6F000E58EC4C
:1002580009F0000120EE19F00001BA51D926000179
:10026800BB51DA22050EDF6EC58412003C6E2B0EE0
:10027800000100018B6F3C50000E000100018D6FE2
:10028800000E000100018C6F000E58EC09F000010F
:1002980020EE19F00001BA51D9260001BB51DA222B
:1002A800050EDF6E1200C5BC17D0000120EE19F054
:1002B8000001BA51D9260001BB51DA22140EDF6EB3
:1002C800000120EE34F00001BA51D9260001BB51DB
:1002D800DA22DF50C96E12003C6E2E0E00010001BA
:1002E8008B6F3C50000E000100018D6F000E000165
:1002F80000018C6F000E58EC09F0000120EE19F097
:100308000001BA51D9260001BB51DA22050EDF6E71
:10031800C5841200C5BC22D0000120EE19F00001EE
:10032800BA51D9260001BB51DA22150EDF6E000141
:1003380020EE32F00001BA51D9260001BB51DA2271
:10034800000EDF6E000120EE1CF00001BA51D92624
:100358000001BB51DA22DF50C96E12003C6E2E0E2E
:10036800000100018B6F3C50000E000100018D6FF1
:10037800000E000100018C6F000E58EC09F000011E
:1003880020EE19F00001BA51D9260001BB51DA223A
:10039800050EDF6EC5841200C5BC0DD0000120EE2D
:1003A80019F00001BA51D9260001BB51DA22200EFA
:1003B800DF6EC58212003C6E2E0E000100018B6FAD
:1003C8003C50000E000100018D6F000E000100017D
:1003D8008C6F000E58EC09F0000120EE19F00001B6
:1003E800BA51D9260001BB51DA22050EDF6EC58449
:1003F8001200000120EE19F00001BA51D9260001BF
:10040800BB51DA22210EDF6E000120EE34F000012C
:10041800BA51D9260001BB51DA22DF500109C96E51
:100428001200C5BC0DD0000120EE19F00001BA5130
:10043800D9260001BB51DA22220EDF6EC5861200D2
:100448003C6E2E0E000100018B6F3C50000E000127
:1004580000018D6F000E000100018C6F000E58EC3A
:1004680009F0000120EE19F00001BA51D926000167
:10047800BB51DA22050EDF6EC5841200C7A0120038
:10048800000120EE19F00001BA51D9260001BB5134
:10049800DA22230EDF6E000120EE17F00001BA51B8
:1004A800D9260001BB51DA22DF503C6E3C50010DC9
:1004B800F35000010001BA25D96EF4500001000183
:1004C800BB21DA6EC9CFDFFF000120EE17F0000173
:1004D800BA51D9260001BB51DA22DF2A000120EEE9
:1004E80017F00001BA51D9260001BB51DA22DF50BA
:1004F8003C6E000120EE16F00001BA51D926000129
:10050800BB51DA22DF503C5CD8B003D0C59AC5880D
:100518001200C58AC5881200000120EE17F00001FC
:10052800BA51D9260001BB51DA22DF503C6E0001D6
:1005380020EE16F00001BA51D9260001BB51DA228B
:10054800DF503C5CD8B00DD0000120EE19F000015E
:10055800BA51D9260001BB51DA22220EDF6EC586B8
:1005680012003C6E2D0E000100018B6F3C50000103
:100578000001BBC08DF000010001BAC08CF0000181
:1005880020EE16F00001BA51D9260001BB51DA223B
:10059800DF5058EC09F0000120EE19F00001BA51C3
:1005A800D9260001BB51DA22050EDF6EC584120080
:1005B800000120EE19F00001BA51D9260001BB5103
:1005C800DA22DF50090AD8B475D5190AD8B46BD61F
:1005D800010AD8B48AD5030AD8B41BD6010AD8B4FC
:1005E80045D6070AD8B496D6010AD8B4D5D6350A5E
:1005F800D8B4FFD6010AD8B414D7030AD8B43ED762
:10060800010AD8A4120088D7820ED36E9B8C0101F0
:10061800010E000100019E6F01011A0E0001000188
:100628009D6F9AEC08F00101010E000100019E6F18
:100638000101310E000100019D6F33EC05F06DECF6
:1006480007F0000E936E000E8A6ED10EA2EC09F030
:100658009F909F9A9F869D86000E000100019E6FC5
:10066800260E00019D6F6C0EA8EC06F04DEC0AF00A
:10067800F1EC06F00101010E00010001B66F010165
:10068800180E00010001B56F0101010E0001000103
:10069800B86F0101000E00010001B76F160EDCEC07
:1006A80008F001010101196F0101010119BF0ED004
:1006B80003D000C117F10AD0010101011851280A1D
:1006C800D8B4F7D7010AD8B4F4D7030A0101010E48
:1006D80000010001B66F0101180E00010001B56F9D
:1006E8000101010E00010001B86F0101000E0001B7
:1006F8000001B76F160EBBEC08F001010101196F7C
:100708000101010119BFB4D710D00101010E000188
:1007180000019F6F0101000E000100019E6F0101A1
:1007280001011951A4EC07F0A3D7010101011851E7
:100738001E0AD8B4EAD7010AD8B4E7D7300A98D73E
:10074800000120EE65F00001A751D9260001A8514B
:10075800DA22DF5000010001B06F00010001B05142
:10076800190DF35000010001A72500010001B36F26
:10077800F45000010001A8210001B46F010EB3C0BC
:10078800D9FFB4C0DAFFDF6274D0000120EE01F0B7
:100798000001B351D9260001B451DA22DF5000011B
:1007A8000001A95DD8B002D0FD0E1200000120EEB4
:1007B80001F00001B351D9260001B451DA22DF500B
:1007C8000001AE6F0001AE5100010001B16F0001E0
:1007D800B26B00010001ADC09EF000010001ACC089
:1007E8009DF0030E00010001B3250001AE6F000E5D
:1007F80000010001B4210001AF6FAEC09FF0AFC08F
:10080800A0F0B1C0A1F0B2C0A2F0D6EC07F0000190
:1008180020EE65F00001A751D9260001A851DA227F
:10082800000110EE65F00001A751E1260001A85172
:10083800E222E7500001AE6F0001AE29030BDF6E24
:10084800000120EE02F00001B351D9260001B45195
:10085800DA22AAC0E1FFABC0E2FFDFCFE7FFB3C0F7
:10086800D9FFB4C0DAFF000EDF6E00010001B151FC
:100878001200FC0E12000001000182C086F0000187
:100888000001876B000120EE64F000018051D92639
:1008980000018151DA22DF5000010001886F000158
:1008A80000018851190DF350000100018025000155
:1008B8000001896FF45000010001812100018A6F55
:1008C80089C0D9FF8AC0DAFFDF50D8B402D0FF0E42
:1008D8001200000120EE01F000018951D926000123
:1008E8008A51DA22000182C0DFFF000120EE02F007
:1008F80000018951D92600018A51DA22000183C0FA
:10090800DFFF030E000100018925306E000E000193
:1009180000018A21316E000185C033F0000184C0D6
:1009280032F086C034F087C035F01DEC09F00001C4
:1009380020EE64F000018051D92600018151DA22AD
:10094800000110EE64F000018051E12600018151A0
:10095800E222E7503A6E3A28030BDF6E89C0D9FFCE
:100968008AC0DAFF010EDF6E010E12009EAA67D060
:1009780020EE16F04D50D9264E50DA22DF501B6E6D
:100988001B50010DF3504D24D96EF4504E20DA6EF1
:10099800F1EC09F0DF6E20EE16F04D50D9264E50DE
:1009A800DA22DF2A000EFCEC05F020EE16F04D509E
:1009B800D9264E50DA22020EDF621AD0FF0E1B6EC5
:1009C800FF0E1C6E20EE16F04D50D9264E50DA223E
:1009D800DF501D6E1E6A1B501D261C501E221D5006
:1009E8004D24D96E1E504E20DA6EDF500F0B476E25
:1009F8004750485CD8B002D0482A21D01B6E000E60
:100A0800476E1B501B6E000E486E1B501B6E1F0E50
:100A1800176E1B504EC019F04DC018F020EE16F09E
:100A28004D50D9264E50DA22DF50CCEC09F020EE9A
:100A380016F04D50D9264E50DA22000EDF6E4BA626
:100A48001200AB98AB881B6E1E0E176E1B50000E63
:100A5800196E000E186E000ECCEC09F012000001A1
:100A680000019EC0BBF0000100019DC0BAF0BAC0F1
:100A7800D9FFBBC0DAFF000EDF6E000120EE01F0E7
:100A88000001BA51D9260001BB51DA22000EDF6EEF
:100A9800000120EE02F00001BA51D9260001BB5135
:100AA800DA22000EDF6E000120EE16F00001BA51C6
:100AB800D9260001BB51DA22000EDF6E000120EEBC
:100AC80018F00001BA51D9260001BB51DA22000EF4
:100AD800DF6E000120EE19F00001BA51D92600019D
:100AE800BB51DA22050EDF6E000120EE1BF000017B
:100AF800BA51D9260001BB51DA22000EDF6E00017F
:100B080020EE4CF00001BA51D9260001BB51DA227F
:100B1800000EDF6E000120EE4BF00001BA51D9261D
:100B28000001BB51DA22000EDF6E1200E9CF91F00E
:100B3800EACF92F0E1CF93F0E2CF94F0D9CF95F0DD
:100B4800DACF96F0F3CF97F0F4CF98F0F6CF99F08C
:100B5800F7CF9AF0F8CF9BF0F5CF9CF09EA603D084
:100B68009E965DEC00F09EAC12D08AB202D0010EC7
:100B780001D0000E00018E6F00018E478A500001DF
:100B88008E19FD0B8E198A6E9E9CB7EC09F0F2A4A3
:100B980010D08AB002D0010E01D0000E00018E6F75
:100BA8008A5000018E19FE0B8E198A6EF29430EC71
:100BB8000AF02EEC08F09CC0F5FF9BC0F8FF9AC025
:100BC800F7FF99C0F6FF98C0F4FF97C0F3FF96C0EF
:100BD800DAFF95C0D9FF94C0E2FF93C0E1FF92C04D
:100BE800EAFF91C0E9FF90C0FBFF8FC0FAFF110038
:100BF800E8CF02F043D08AB002D0010E01D0000E37
:100C0800016E8A500118FE0B01188A6E12008AB212
:100C180002D0010E01D0000E016E01468A50011863
:100C2800FD0B01188A6E12008AB402D0010E01D0A1
:100C3800000E016E014601468A500118FB0B01188F
:100C48008A6E12008AB602D0010E01D0000E016E23
:100C58000146014601468A500118F70B01188A6EB1
:100C680012008AB802D0010E01D0000E016E013ABE
:100C78008A500118EF0B01188A6E12000250000A00
:100C8800D8B4B9D7010AD8B4C2D7030AD8B4CCD7D4
:100C9800010AD8B4D7D7070AD8A41200E2D70DC0E2
:100CA80012F0136A20EE64F00B50D9260C50DA22A9
:100CB800DF50146E1450190DF3500B24156EF450B8
:100CC8000C20166E15C0D9FF16C0DAFFDF50D8B455
:100CD80002D0FF0E120020EE01F01550D926165052
:100CE800DA220DC0DFFF20EE02F01550D92616508B
:100CF800DA220EC0DFFF030E1524016E000E162047
:100D0800026E10C004F00FC003F012C005F013C04B
:100D180006F0FDEC08F020EE64F00B50D9260C50DC
:100D2800DA2210EE64F00B50E1260C50E222E75074
:100D3800116E1128030BDF6E15C0D9FF16C0DAFF3C
:100D4800010EDF6E010E1200E8CFA2F0000EAC6EAD
:100D5800000EAB6E00010001A2B1AC8800010001D9
:100D6800A2A302D0AC8CAB8C00010001A2B5AC8E62
:100D780000010001A2A702D0AB8801D0AB8A000114
:100D88000001A2B9AC849E9800010001A2BBAB8609
:100D980000010001A2AD02D09D8A01D09D9A9E9AC1
:100DA80000010001A2AF02D09D8801D09D989DC08E
:100DB800AFFF00019EC09FF09FC0A0F00001A16B93
:100DC8000001A051B06EAC8AAB8E949C948EACA8F6
:100DD8001200ACBE1200948C120078EC08F00001EE
:100DE8000001A2510001A111D8B412000001A36FA3
:100DF800010E496E0001A3510201020E000100011B
:100E08009E6F0201660E000100019D6F3DEC09F026
:100E18000009D8B407D00001A36F000E496E000185
:100E2800A35112000101010E000100019E6F010192
:100E38007E0E000100019D6F3DEC09F00009D8B459
:100E480007D00001A36F000E496E0001A3511200E4
:100E58000A0E00EC0AF0D0D7000120EE64F0000181
:100E68009D51D92600019E51DA22000EDF6E000145
:100E780020EE65F000019D51D92600019E51DA222D
:100E8800000EDF6E00019F6F000E00010001A06FD1
:100E980000019F51030E00010001A06501D012005E
:100EA80000010001A051190DF350000100019D251A
:100EB800D96EF450000100019E21DA6E000EDF6E3B
:100EC80000010001A02B030E00010001A065E8D776
:100ED80012000001A16F000E496E0001A15101012D
:100EE800010E000100019E6F01017E0E000100014C
:100EF8009D6F30EC07F00201020E000100019E6FA9
:100F08000201660E000100019D6F30EC07F002013E
:100F1800020E000100019E6F0201000E0001000197
:100F28009D6F30EC07F00301030E000100019E6F76
:100F38000301000E000100019D6F30EC07F0120064
:100F4800E8CFA1F00001A06F000E00010001A26F20
:100F58000001A0510001A06F000E00010001A26F66
:100F68000001A05116D0ACA2FED700010001A25189
:100F7800010DF350000100019E25D96EF4500001C7
:100F880000019F21DA6EDF500BEC0AF0000100012E
:100F9800A22B00010001A15100010001A25DD8B0FF
:100FA8001200E1D700010001A0C0A6F00001000175
:100FB8009FC0A5F0000100019EC0A4F0000100013F
:100FC8009DC0A3F012D0A5C0D9FFA6C0DAFFA3C068
:100FD800E1FFA4C0E2FFDFCFE7FF00010001A54B5E
:100FE800A62B00010001A34BA42B00010001A107BF
:100FF800D8A0A2070001A129D8B4A229D8B4120008
:10100800E2D703EE00F0660EEE6AE806FDE102EEB6
:1010180000F0CC0EEE6AE806FDE101EE7EF0660E09
:10102800EE6AE806FDE100EE3DF0100EEE6AE80615
:10103800FDE1AC0EF66E140EF76E000EF86E0900A8
:10104800F5CF4FF00900F5CF50F0000EF86E000113
:1010580008EF03F0496601D012008BEC09F0335019
:101068003210D8A4120042EC0AF031503010D8B433
:1010780012000201020E316E0201660E306EDFECC4
:1010880009F00009D8A412000101010E316E010116
:101098007E0E306EDFEC09F00009D8B451EC0AF08E
:1010A8001200F2AC08D0000E00010001A06F000E83
:1010B80000019F6F120015EC0AF0000100019E511B
:1010C80000019D11D8B408D0000E00010001A06FE6
:1010D800000E00019F6F1200000E00010001A06FBA
:1010E800010E00019F6F120055EC08F0000100018D
:1010F800A05100019F11D8A411D015EC0AF00001ED
:1011080000019E5100019D11D8A408D0000E0001D5
:101118000001A26F010E0001A16F1200000E000174
:101128000001A26F000E0001A16F120000019EC015
:101138004EF000019DC04DF020EE16F04D50D9261E
:101148004E50DA22000EDF6E00019F6F000E4A6ECD
:1011580000019F5100019F6F000E476E00019F51D3
:1011680000019F6F000E486E00019F511200E8CFEA
:10117800B9F00101010E00010001A86F01017E0E06
:1011880000010001A76FB9C0A9F000010001B6C0B5
:10119800ABF000010001B5C0AAF000010001B8C021
:1011A800ADF000010001B7C0ACF0A4EC03F01200F0
:1011B800E8CFB9F00201020E00010001A86F020198
:1011C800660E00010001A76FB9C0A9F00001000177
:1011D800B6C0ABF000010001B5C0AAF000010001E3
:1011E800B8C0ADF000010001B7C0ACF0A4EC03F04A
:1011F800120004C00AF003C009F002C008F001C0E0
:1012080007F00ED009C0D9FF0AC0DAFF07C0E1FF16
:1012180008C0E2FFDFCFE7FF094A0A2A074A082A7F
:101228000506D8A006060528D8B40628D8B41200A2
:10123800E9D733C039F032C038F031C037F030C0A8
:1012480036F00ED038C0D9FF39C0DAFF36C0E1FF1A
:1012580037C0E2FFDFCFE7FF384A392A364A372A54
:101268003406D8A035063428D8B43528D8B41200A6
:10127800E9D7000120EE65F000019D51D926000153
:101288009E51DA22DF5000019F6F00019F51190D16
:10129800F350000100019D25D96EF45000010001B2
:1012A8009E21DA6EDF501200E8CF3BF00201020EF9
:1012B80000010001816F0201660E00010001806FCC
:1012C8003BC082F08BC083F0000100018DC085F027
:1012D800000100018CC084F03FEC04F0120027EC00
:1012E8000AF001C01CF002C01DF01B6E0B0E176E39
:1012F8001B50000E196E000E186E000ECCEC09F093
:10130800000E026E000E016E1EEC0AF01200F2AC26
:1013180005D0000E336E000E326E120042EC0AF059
:1013280031503010D8B405D0000E336E000E326E36
:101338001200000E336E010E326E1200E8CF9DF0DF
:10134800000100019D517F0BD56E000ED76E000E77
:10135800D66EF294000100019DAF02D0F28A01D04E
:10136800F29AD58E120048EC0AF030C034F031C041
:1013780035F034C032F035C033F0D89033323232E1
:10138800D8903332323232C034F033C035F01200E4
:10139800E8CF1AF00101010E0C6E01017E0E0B6EF2
:1013A8001AC00DF017C00EF019C010F018C00FF0D9
:1013B80053EC06F0120020EE65F03050D92631507B
:1013C800DA22DF50326E3250190DF3503024D96EC4
:1013D800F4503120DA6EDF501200F20E4B16ABAC2F
:1013E80003D04B90ABB04B80ABB44B84ABB24B86C5
:1013F800AECF01F001501200E8CF9DF0FA0E00F0D8
:10140800E82EFDD7000100019D2FF8D71200E8CF84
:101418009DF0ACAC03D0AC904BB2AC809DC0ADFF9E
:101428001200000EF2AE010E000100019D6F0001D6
:101438009E6B120001C003F002C004F004C0CFFF8D
:1014480003C0CEFF1200CECF03F0CFCF04F003C00D
:1014580001F004C002F01200000E316E000E306E72
:1014680039EC0AF054EC0AF0120030C032F031C006
:1014780033F033C0D7FF32C0D6FF1200000EF2AEF1
:10148800010E306E316A1200C450316EC350306E96
:101498001200D08EF28EF28C1200D38E030012004E
:0614A800C2821200640084
:067FF80080F4C5FFFFF15B
:00000001FF
