:040000005BEF00F0C2
:0C000800FACF99F0FBCF9AF0BBEF0DF09F
:10001800D8CF21F0E8CF22F0E0CF23F0FACF24F0B8
:10002800FBCF25F0E9CF26F0EACF27F0E1CF28F083
:10003800E2CF29F0D9CF2AF0DACF2BF0F3CF2CF08A
:10004800F4CF2DF0F6CF2EF0F7CF2FF0F8CF30F019
:10005800F5CF31F09EA003D09E90A3EC10F09EAA9D
:1000680003D09E9ADEEC0EF031C0F5FF30C0F8FFE9
:100078002FC0F7FF2EC0F6FF2DC0F4FF2CC0F3FFF2
:100088002BC0DAFF2AC0D9FF29C0E2FF28C0E1FF50
:1000980027C0EAFF26C0E9FF25C0FBFF24C0FAFFFE
:1000A80023C0E0FF22C0E8FF21C0D8FF100036EFD0
:1000B8000FF000018E6F000E00010001986F000123
:1000C8008E5100018E6F000E00010001936F000138
:1000D8008E5100018E6F000E00010001976F000124
:1000E8008E5100018E6F000E00010001966F000115
:1000F8008E5100018E6F000E00010001946F000107
:100108008E51C6AC29D0C69C000120EE19F0000122
:10011800C651D9260001C751DA22050EDF6E00014B
:100128008E6F010E00010001946F00018E510001D5
:1001380020EE1BF00001C651D9260001C751DA2272
:10014800DF2A000120EE1AF00001C651D92600016D
:10015800C751DA22040EDF6EC7A00AD0C9CF95F0C6
:1001680000018E6F010E00010001986F00018E5191
:10017800000100019467CED1B7D1C7A6CBD1000149
:100188000001985117EC0CF0000120EE19F0000165
:10019800C651D9260001C751DA22080EDF62BAD14A
:1001A80000018E6F000E00010001986F00018E5152
:1001B80000018E6F010E00010001966F87D1C7A85C
:1001C80030D0000120EE18F00001C651D9260001F8
:1001D800C751DA22DF2A000100019851D8B479D139
:1001E800C7BA09D000018E6F010E00010001976F98
:1001F80000018E516ED1000120EE1BF00001C651A6
:10020800D9260001C751DA22DF2A000120EE1AF0B0
:100218000001C651D9260001C751DA22060EDF6E49
:1002280058D1000100019851D8B474D1000120EED2
:1002380018F00001C651D9260001C751DA22DF2A79
:10024800C7BA19D0C7B40BD0000120EE19F00001CD
:10025800C651D9260001C751DA22070E76D000010F
:1002680020EE19F00001C651D9260001C751DA2243
:10027800080EDF6E1DD1000120EE1BF00001C651F3
:10028800D9260001C751DA22DF2A000120EE19F031
:100298000001C651D9260001C751DA22050EDF6ECA
:1002A800000120EE1AF00001C651D9260001C751FD
:1002B800DA22060E4AD0000120EE33F00001C651C2
:1002C800D9260001C751DA22DF5000018E6F0001E4
:1002D80020EE32F00001C651D9260001C751DA22BA
:1002E800DF5000018E5DD8B0F4D0000120EE33F06D
:1002F8000001C651D9260001C751DA22DF5000019A
:100308008E6F00018E51010D1C0EF326000EF42293
:10031800F35000010001C625D96EF4500001000118
:10032800C721DA6EDF50C96E000120EE33F00001FC
:10033800C651D9260001C751DA22DF2A00018E6F83
:10034800010E00010001936FC1D0DF6EE3D0C7A892
:1003580062D0000120EE18F00001C651D926000134
:10036800C751DA22DF2A000100019851D8B44AD0D7
:10037800C7AA27D0000120EE16F00001C651D926E1
:100388000001C751DA22DF5000018E6F00018E5143
:10039800010DF35000010001C625D96EF45000018B
:1003A8000001C721DA6E000195C0DFFF000120EED1
:1003B80016F00001C651D9260001C751DA22DF2AFA
:1003C80021D0000120EE1BF00001C651D926000102
:1003D800C751DA22DF2A000120EE1AF00001C651C7
:1003E800D9260001C751DA22060EDF6E000120EE81
:1003F80019F00001C651D9260001C751DA22050EAD
:10040800DF6E67D000018E6F010E00010001976F4B
:1004180000018E515ED0000100019851D8B47AD005
:10042800000120EE18F00001C651D9260001C7517D
:10043800DA22DF2AC7AA27D0000120EE16F0000131
:10044800C651D9260001C751DA22DF5000018E6F4C
:1004580000018E51010DF35000010001C625D96E2F
:10046800F45000010001C721DA6E000195C0DFFFDA
:10047800000120EE16F00001C651D9260001C7512F
:10048800DA22DF2A47D0C7A4B6D6000120EE19F039
:100498000001C651D9260001C751DA22080EDF6EC5
:1004A80000018E6F010E00010001976F00018E514F
:1004B80000018E6F010E00010001966F00018E5140
:1004C80000018E6F000E00010001986F00018E512F
:1004D80021D0000120EE19F00001C651D9260001F3
:1004E800C751DA22050E31D7000120EE19F00001BC
:1004F800C651D9260001C751DA22DF50050AD8B4FF
:100508003CD6030AD8B45BD6010AD8B420D70F0A60
:10051800D8B4D1D600010001986705D000010001C8
:100528009351D8B402D0C6A8C688000120EE16F0B0
:100538000001C651D9260001C751DA22140EDF6422
:1005480024D000010001976720D0000120EE19F0A7
:100558000001C651D9260001C751DA22050EDF6E07
:10056800000120EE1BF00001C651D9260001C75139
:10057800DA22DF2A000120EE1AF00001C651D9263E
:100588000001C751DA22070EDF6E00010001975102
:10059800D8B448D0000120EE18F00001C651D92681
:1005A8000001C751DA22000110EE16F00001C65111
:1005B800E1260001C751E222E75000018E6F0001D9
:1005C8008E51010DF35000010001C625E16EF45073
:1005D80000010001C721E26EDFCFE7FF00018E6F47
:1005E800280E000100018B6F00018E5100010001EF
:1005F800C7C08DF000010001C6C08CF0000120EEDC
:1006080016F00001C651D9260001C751DA22DF5081
:1006180000018F6F00018F2988EC10F0000120EE97
:1006280016F04BD0000120EE1BF00001C651D92670
:100638000001C751DA22DF50D8B447D0000120EEBC
:100648001BF00001C651D9260001C751DA22DF503C
:1006580000010001906F000120EE1AF00001C65160
:10066800D9260001C751DA22DF5000010001916F3D
:10067800000120EE18F00001C651D9260001C7512B
:10068800DA22DF5000010001926F00018E6F290EFF
:10069800000100018B6F00018E510001000E000166
:1006A80000018D6F0001900E000100018C6F030E98
:1006B80088EC10F0000120EE1BF00001C651D9268D
:1006C8000001C751DA22000EDF6E000100019651C9
:1006D800D8B41200000E336E000E326E160E4BECBC
:1006E80008F000018E6F000E00010001966F0001F6
:1006F8008E51120051D2000120EE19F00001C651AE
:10070800D9260001C751DA22240EDF6E000120EE3F
:1007180034F00001C651D9260001C751DA22DF5052
:100728003E6ED8903E34FE0BC96E1200C5BC74D024
:10073800000120EE33F00001C651D9260001C7514F
:10074800DA22DF503E6E000120EE32F00001C65181
:10075800D9260001C751DA22DF503E5CD8B033D029
:10076800000120EE33F00001C651D9260001C7511F
:10077800DA22DF503E6E3E50010D1C0EF326000EAD
:10078800F422F35000010001C625D96EF45000018F
:100798000001C721DA6EDF50C96E000120EE33F088
:1007A8000001C651D9260001C751DA22DF2A00010B
:1007B80020EE19F00001C651D9260001C751DA22EE
:1007C800240EDF6E12003E6E2B0E000100018B6FAF
:1007D8003E50000E000100018D6F000E0001000167
:1007E8008C6F000E88EC10F0000120EE32F0000152
:1007F800C651D9260001C751DA22000EDF6E00016A
:1008080020EE19F00001C651D9260001C751DA229D
:10081800050EDF6EC58412003E6E2C0E000100012D
:100828008B6F3E50000E000100018D6F000E00011D
:1008380000018C6F000E88EC10F0000120EE19F01A
:100848000001C651D9260001C751DA22050EDF6E14
:10085800C58412003E6E2B0E000100018B6F3E50C6
:10086800000E000100018D6F000E000100018C6F69
:10087800000E88EC10F0000120EE19F00001C651BE
:10088800D9260001C751DA22050EDF6E1200C5BC59
:1008980017D0000120EE19F00001C651D926000139
:1008A800C751DA22140EDF6E000120EE34F0000189
:1008B800C651D9260001C751DA22DF50C96E12008D
:1008C8003E6E2E0E000100018B6F3E50000E00019F
:1008D80000018D6F000E000100018C6F000E88EC86
:1008E80010F0000120EE19F00001C651D9260001D0
:1008F800C751DA22050EDF6EC5841200C5BC22D0AE
:10090800000120EE19F00001C651D9260001C75197
:10091800DA22150EDF6E000120EE32F00001C6511A
:10092800D9260001C751DA22000EDF6E000120EE41
:100938001CF00001C651D9260001C751DA22DF5048
:10094800C96E12003E6E2E0E000100018B6F3E50E4
:10095800000E000100018D6F000E000100018C6F78
:10096800000E88EC10F0000120EE19F00001C651CD
:10097800D9260001C751DA22050EDF6EC5841200A0
:10098800C5BC0DD0000120EE19F00001C651D926D2
:100998000001C751DA22200EDF6EC58212003E6EBA
:1009A8002E0E000100018B6F3E50000E0001000169
:1009B8008D6F000E000100018C6F000E88EC10F0A6
:1009C800000120EE19F00001C651D9260001C751D7
:1009D800DA22050EDF6EC5841200000120EE19F040
:1009E8000001C651D9260001C751DA22210EDF6E57
:1009F800000120EE34F00001C651D9260001C7518C
:100A0800DA22DF500109C96E1200C5BC0DD0000101
:100A180020EE19F00001C651D9260001C751DA228B
:100A2800220EDF6EC58612003E6E2E0E00010001FA
:100A38008B6F3E50000E000100018D6F000E00010B
:100A480000018C6F000E88EC10F0000120EE19F008
:100A58000001C651D9260001C751DA22050EDF6E02
:100A6800C5841200C7A01200000120EE19F0000191
:100A7800C651D9260001C751DA22230EDF6E0001C4
:100A880020EE17F00001C651D9260001C751DA221D
:100A9800DF503E6E3E50010DF35000010001C625A7
:100AA800D96EF45000010001C721DA6EC9CFDFFF0B
:100AB800000120EE17F00001C651D9260001C751E8
:100AC800DA22DF2A000120EE17F00001C651D926EC
:100AD8000001C751DA22DF503E6E000120EE16F009
:100AE8000001C651D9260001C751DA22DF503E5C09
:100AF800D8B003D0C59AC5881200C58AC588120027
:100B0800000120EE17F00001C651D9260001C75197
:100B1800DA22DF503E6E000120EE16F00001C651C9
:100B2800D9260001C751DA22DF503E5CD8B00DD07B
:100B3800000120EE19F00001C651D9260001C75165
:100B4800DA22220EDF6EC58612003E6E2D0E0001DF
:100B580000018B6F3E5000010001C7C08DF00001FD
:100B68000001C6C08CF0000120EE16F00001C6514D
:100B7800D9260001C751DA22DF5088EC10F00001B5
:100B880020EE19F00001C651D9260001C751DA221A
:100B9800050EDF6EC5841200000120EE19F0000179
:100BA800C651D9260001C751DA22DF50090AD8B444
:100BB800A2D5190AD8B46BD6030AD8B44BD6070AFB
:100BC800D8B49CD6010AD8B4DBD6350AD8B405D730
:100BD800010AD8B41AD7030AD8B444D7010AD8B43A
:100BE8008FD7070AD8A41200A1D5820ED36E9B8C8A
:100BF8000101010E00010001A86F01011E0E000194
:100C08000001A76FD2EC10F00101010E00010001F4
:100C1800A86F0101370E00010001A76FB0EC0BF0BF
:100C28000101010E00010001A86F01011C0E000165
:100C38000001A76F4AEC11F078EC0EF0000E936EED
:100C4800000E8A6E9F909F9A9F869D86000E0001D7
:100C58000001A86F260E0001A76F6C0E30EC0DF096
:100C68007DEC11F0FCEC0DF00101010E000100011A
:100C7800C06F0101360E00010001BF6F0101010EB6
:100C880000010001C26F0101000E00010001C16FE7
:100C9800160EEBEC0FF001010101356F01010101A6
:100CA80035AF8BD0010101013551FC0AD8B494D07D
:100CB800010E8A6E91D00101010E00010001A86F9A
:100CC80001011A0E00010001A76F0101000136C1E0
:100CD800A9F000010001AA6B0101010135510001D1
:100CE8000001AB6F0001AC6B0001ABBFAC070101A9
:100CF800010E00010001AE6F0101000E00010001AC
:100D0800AD6F41EC11F068D000C117F165D0010159
:100D1800010E00010001A96F0101180E0001000178
:100D2800A86F0101000136C1AAF000010001AB6BF8
:100D380001010101355100010001AC6F0001AD6BEB
:100D48000001ACBFAD070101010E00010001AF6F4A
:100D58000101000E00010001AE6F7BEC0CF03CD0ED
:100D6800000E00010001A96F000E00010001A86F2C
:100D7800000E00010001AB6F2F0E0001AA6F0101E8
:100D880035C1C4F00001C56BC4BFC507D8900001C8
:100D9800C43500010001AC6F0001C5350001AD6F1D
:100DA8000101010E00010001AF6F0101000E0001F9
:100DB8000001AE6F7BEC0CF00FD001010101365140
:100DC8000A0AD8B478D7230AD8B49ED7040AD8B464
:100DD800C7D7020AD8B49BD70101010E0001000150
:100DE800C06F0101360E00010001BF6F0101010E45
:100DF80000010001C26F0101000E00010001C16F76
:100E0800160ECAEC0FF001010101356F0101010155
:100E180035AF28D0010101013551FC0AD8B422D7D9
:100E2800020E8A6E1FD70101000136C1AEF0000123
:100E38000001AF6B01010101355100010001B06FE4
:100E48000001B16B0001B0BFB1070101010E000143
:100E58000001B36F0101000E00010001B26F40EC08
:100E680007F000D70101010136511E0AD8B4FAD69D
:100E78002C0AD8B4D8D7F6D600010001AE51320AF0
:100E8800AF11D8A41200000E00010001C16F000EBE
:100E98000001C06F0001B46F000E00010001BE6FB9
:100EA8000001B451000E00010001C16F000E0001E5
:100EB800C06F16D000010001C05100010001B22529
:100EC800D96E00010001C15100010001B321DA6EA1
:100ED800DF5000010001BE2700010001C04BC12BFB
:100EE800FF0E0001B46FFF0EB56F0001B0C0B6F081
:100EF8000001B1C0B7F00001B4510001B6270001EC
:100F0800B5510001B72300010001C151800A000159
:100F1800B86FB65100010001C05D0001B751800AE9
:100F28000001B859D8A0C6D7FF0E0001B46FFF0E54
:100F3800B56F0001B0C0B6F00001B1C0B7F0000154
:100F4800B4510001B6270001B5510001B7230001D3
:100F5800B65100010001B225D96E0001B751000158
:100F68000001B321DA6E00010001BE51DF621200F8
:100F7800000120EE01F00001B251D9260001B35161
:100F8800DA22DF500001B46F0001B4390F0B0F0BE8
:100F980000010001BF6F00010001BF51020AD8A47F
:100FA8001200000120EE01F00001B251D926000123
:100FB800B351DA22DF500F0B00010001C26F0001AC
:100FC8000001C26704D00001B46F030E16D00001FF
:100FD8000001C205D8A404D00001B46F020E0DD0E0
:100FE80000010001C251020AD8A404D00001B46F64
:100FF800010E03D00001B46F040E00010001B96FA7
:101008000001B451000120EE02F00001B251D926CE
:101018000001B351DA22DF5000010001BA6F00016C
:1010280020EE03F00001B251D9260001B351DA22B3
:10103800DF5000010001BB6F000120EE02F000014B
:10104800B251D9260001B351DA22DF500001000164
:10105800BC6F000120EE03F00001B251D926000157
:10106800B351DA22DF5000010001BD6F4F0E0CECC6
:101078000FF00001000E00010001A86F0001B90E79
:1010880000010001A76F050E41EC0BF01200E8CF3C
:1010980037F0000120EE32F00001C651D9260001D8
:1010A800C751DA22000EDF6E8FD0000120EE32F039
:1010B8000001C651D9260001C751DA22DF50346E2B
:1010C800000120EE4BF00001C651D9260001C7519E
:1010D800DA22DF50345CD8B028D0000120EE32F09C
:1010E8000001C651D9260001C751DA22DF50346EFB
:1010F8003450010D350EF326000EF422F350000192
:101108000001C625D96EF45000010001C721DA6E2E
:10111800000110EE32F00001C651E1260001C7516E
:10112800E222E750356E355034D0000120EE4BF006
:101138000001C651D9260001C751DA22DF50D8B4C0
:101148000BD0000120EE4BF00001C651D92600015A
:10115800C751DA22DF5001D03750346E356A340E69
:101168003426000E3522345000010001C625D96E00
:10117800355000010001C721DA6E000110EE32F08F
:101188000001C651E1260001C751E222E750366E40
:101198003650010D1C0EF326000EF422F350000108
:1011A8000001C625E16EF45000010001C721E26E7E
:1011B800DFCFE7FF000120EE32F00001C651D9264B
:1011C8000001C751DA22DF2A000120EE32F00001C7
:1011D800C651D9260001C751DA22DF50346E375084
:1011E800345CD8A062D7000120EE4BF00001C65154
:1011F800D9260001C751DA22000EDF6E000120EE69
:1012080032F00001C651D9260001C751DA2237C091
:10121800DFFF000120EE33F00001C651D92600019E
:10122800C751DA22010EDF6E000120EE1CF000012A
:10123800C651D9260001C751DA22DF50C96EC688C7
:101248001200000120EE65F00001B151D92600011D
:10125800B251DA22DF5000010001BA6F000100012B
:10126800BA51190DF35000010001B1250001000128
:10127800BD6FF45000010001B2210001BE6F010EE4
:10128800BDC0D9FFBEC0DAFFDF6274D0000120EE16
:1012980001F00001BD51D9260001BE51DA22DF500C
:1012A80000010001B35DD8B002D0FD0E12000001AC
:1012B80020EE01F00001BD51D9260001BE51DA220D
:1012C800DF500001B86F0001B85100010001BB6F89
:1012D8000001BC6B00010001B7C0A8F000010001CB
:1012E800B6C0A7F0030E00010001BD250001B86FCC
:1012F800000E00010001BE210001B96FB8C0A9F0BD
:10130800B9C0AAF0BBC0ABF0BCC0ACF0AFEC0EF0FB
:10131800000120EE65F00001B151D9260001B2515B
:10132800DA22000110EE65F00001B151E12600015A
:10133800B251E222E7500001B86F0001B829030B4F
:10134800DF6E000120EE02F00001BD51D926000138
:10135800BE51DA22B4C0E1FFB5C0E2FFDFCFE7FF3C
:10136800BDC0D9FFBEC0DAFF000EDF6E000100016C
:10137800BB511200FC0E1200000120EE65F00001C6
:101388008051D92600018151DA22DF500001000185
:10139800876F000100018751190DF350000100010A
:1013A8008025000100018A6FF450000100018121AD
:1013B80000018B6F010E8AC0D9FF8BC0DAFFDF6294
:1013C8006CD0000120EE01F000018A51D9260001FD
:1013D8008B51DA22DF5000010001825DD8B002D0C3
:1013E800FD0E1200000120EE01F000018A51D926FD
:1013F80000018B51DA22DF503C6E3C5000010001A5
:10140800886F0001896B000186C033F0000185C038
:1014180032F0030E000100018A253C6E000E000127
:1014280000018B213D6E3CC034F03DC035F088C0D2
:1014380036F089C037F04DEC10F0000120EE65F071
:1014480000018051D92600018151DA22000110EEF5
:1014580065F000018051E12600018151E222E75048
:101468003C6E3C28030BDF6E000120EE02F0000109
:101478008A51D92600018B51DA2283C0E1FF84C04A
:10148800E2FFDFCFE7FF8AC0D9FF8BC0DAFF000E8B
:10149800DF6E0001000188511200FC0E12000001ED
:1014A800000182C086F000010001876B000120EE78
:1014B80064F000018051D92600018151DA22DF5001
:1014C80000010001886F000100018851190DF350D7
:1014D80000010001802500010001896FF45000011E
:1014E8000001812100018A6F89C0D9FF8AC0DAFF13
:1014F800DF50D8B402D0FF0E1200000120EE01F038
:1015080000018951D92600018A51DA22000182C0DE
:10151800DFFF000120EE02F000018951D926000109
:101528008A51DA22000183C0DFFF030E00010001A7
:101538008925326E000E000100018A21336E0001F8
:1015480085C035F0000184C034F086C036F087C00D
:1015580037F04DEC10F0000120EE64F000018051EE
:10156800D92600018151DA22000110EE64F0000151
:101578008051E12600018151E222E7503C6E3C286F
:10158800030BDF6E89C0D9FF8AC0DAFF010EDF6E58
:10159800010E120067D0FF0E1B6EFF0E1C6E20EEB0
:1015A80016F04B50D9264C50DA22DF501D6E1E6AB9
:1015B8001B501D261C501E221D504B24D96E1E5038
:1015C8004C20DA6EDF501F6E0F0E1F161F50436E31
:1015D800446AD89043364436D8904336443644500B
:1015E8004310D8B405D01B6E020E4D6E1B5012006E
:1015F8001B6E030E4D6E1B501200010E41241B6E14
:10160800000E42201C6E1C50800A1D6E43501B5C4D
:101618004450800A1D58D8B003D0414A422A1200CB
:101628001B6E030E4D6E1B5012001B6E320E176E92
:101638001B504CC019F04BC018F04350020FE7EC98
:1016480010F020EE16F04B50D9264C50DA22000E3E
:10165800DF6E1B6E010E4D6E1B50000E426E000EAB
:10166800416E12004D50010AD8B495D7030AD8B478
:10167800C4D7010AD8A41200D8D7E8CFABF0C7B4B2
:101688001200000E00010001AD6F000E0001AC6FEA
:101698002CD000010001AC5100010001A725D96E32
:1016A80000010001AD5100010001A821DA6E1C0EF5
:1016B80000010001AC250001A96F000E0001000126
:1016C800AD210001AA6F0001A95100010001C62542
:1016D800E16E0001AA5100010001C721E26EDFCFCF
:1016E800E7FF00010001AC4BAD2B00010001AB513D
:1016F8000001A96FAA6B0001A95100010001AC5DAE
:101708000001AA5100010001AD59D8A0C2D70001BB
:1017180020EE32F00001C651D9260001C751DA2265
:101728000001ABC0DFFF000120EE33F00001C6511D
:10173800D9260001C751DA22000EDF6EC596C58092
:10174800000120EE19F00001C651D9260001C75149
:10175800DA22090EDF6E120000010001A8C0C7F0EE
:1017680000010001A7C0C6F0C6C0D9FFC7C0DAFF94
:10177800000EDF6E000120EE01F00001C651D926EF
:101788000001C751DA22000EDF6E000120EE02F0E0
:101798000001C651D9260001C751DA22000EDF6EBA
:1017A800000120EE16F00001C651D9260001C751EC
:1017B800DA22000EDF6E000120EE18F00001C6519B
:1017C800D9260001C751DA22000EDF6E000120EE93
:1017D80019F00001C651D9260001C751DA22050EB9
:1017E800DF6E000120EE1BF00001C651D926000172
:1017F800C751DA22000EDF6E000120EE4CF0000126
:10180800C651D9260001C751DA22000EDF6E000149
:1018180020EE4BF00001C651D9260001C751DA224B
:10182800000EDF6E1200E8CF32F0000120EE18F053
:101838000001C651D9260001C751DA22010EDF6E18
:10184800000120EE16F00001C651D9260001C7514B
:10185800DA22000EDF6E3250D8B43DD0C7AA21D0AC
:10186800000120EE19F00001C651D9260001C75128
:10187800DA22050EDF6E000120EE1BF00001C651D2
:10188800D9260001C751DA22DF2A000120EE1AF01A
:101898000001C651D9260001C751DA22050EDF6EB4
:1018A8001200C7A40CD0000120EE19F00001C651A7
:1018B800D9260001C751DA22080EDF6E1200000196
:1018C80020EE19F00001C651D9260001C751DA22CD
:1018D800070EDF6E1200000120EE19F00001C6515C
:1018E800D9260001C751DA22060EDF6E1200000168
:1018F8000001AA511E0AAB11D8B412000001000160
:10190800AA511F0AAB11D8A411D000010001AC5193
:1019180000010001AE25D96E00010001AD510001A2
:101928000001AF21DA6E000EDF6E12000001000127
:10193800AA512F0AAB11D8A41200000E0001000111
:10194800B26F000E0001B16F000E00010001B26F0E
:10195800000E0001B16F17D0ACA2FED70001000144
:10196800B15100010001AE25D96E00010001B2514C
:1019780000010001AF21DA6EDF5037EC11F00001F1
:101988000001B14BB22B00010001B251800A0001E5
:10199800B06F0001AC5100010001B15D0001000110
:1019A800AD51800A0001B059D8B01200D5D70DC08A
:1019B80012F0136A20EE64F00B50D9260C50DA228C
:1019C800DF50146E1450190DF3500B24156EF4509B
:1019D8000C20166E15C0D9FF16C0DAFFDF50D8B438
:1019E80002D0FF0E120020EE01F01550D926165035
:1019F800DA220DC0DFFF20EE02F01550D92616506E
:101A0800DA220EC0DFFF030E1524016E000E162029
:101A1800026E10C004F00FC003F012C005F013C02E
:101A280006F02DEC10F020EE64F00B50D9260C5087
:101A3800DA2210EE64F00B50E1260C50E222E75057
:101A4800116E1128030BDF6E15C0D9FF16C0DAFF1F
:101A5800010EDF6E010E1200E8CFACF0000EAC6E86
:101A6800000EAB6E00010001ACB1AC8800010001B2
:101A7800ACA302D0AC8CAB8C00010001ACB5AC8E31
:101A880000010001ACA702D0AB8801D0AB8A0001ED
:101A98000001ACB9AC849E9800010001ACBBAB86D8
:101AA80000010001ACAD02D09D8A01D09D9A9E9A9A
:101AB80000010001ACAF02D09D8801D09D98A7C05D
:101AC800AFFF0001A8C0A9F0A9C0AAF00001AB6B44
:101AD8000001AA51B06EAC8AAB8E949C948EACA8CF
:101AE8001200ACBE1200948C1200000E336E000E71
:101AF800326E6EEC11F00001000E000100018D6FD6
:101B08000001930E000100018C6F0001000E00011E
:101B180000018F6F0001950E000100018E6F020E0B
:101B28000CEC10F000010001916F0001926B0001B4
:101B380091BF9207000100019151020A9211D8A4A5
:101B480012000001906F0A0E000100018B6F000166
:101B580090510001000E000100018D6F0001950EEB
:101B6800000100018C6F020E88EC10F01200E9CF22
:101B78009BF0EACF9CF0E1CF9DF0E2CF9EF0D9CF69
:101B88009FF0DACFA0F0F3CFA1F0F4CFA2F0F6CF18
:101B9800A3F0F7CFA4F0F8CFA5F0F5CFA6F09EA656
:101BA80003D09E960CEC11F0F2A403D0F29479ECD9
:101BB8000DF05EEC0FF0A6C0F5FFA5C0F8FFA4C0BD
:101BC800F7FFA3C0F6FFA2C0F4FFA1C0F3FFA0C0B7
:101BD800DAFF9FC0D9FF9EC0E2FF9DC0E1FF9CC015
:101BE800EAFF9BC0E9FF9AC0FBFF99C0FAFF11000A
:101BF800A8EC0FF000010001AC510001AB11D8B402
:101C080012000001AD6F010E496E0001AD510201D5
:101C1800020E00010001A86F0201660E000100011A
:101C2800A76F6DEC10F00009D8B407D00001AD6FB4
:101C3800000E496E0001AD5112000101010E0001B4
:101C48000001A86F0101840E00010001A76F6DEC6F
:101C580010F00009D8B407D00001AD6F000E496E2E
:101C68000001AD5112000A0E2CEC11F0D0D7000182
:101C780020EE64F00001A751D9260001A851DA220C
:101C8800000EDF6E000120EE65F00001A751D92695
:101C98000001A851DA22000EDF6E0001A96F000EC4
:101CA80000010001AA6F0001A951030E0001000103
:101CB800AA6501D0120000010001AA51190DF350C4
:101CC80000010001A725D96EF45000010001A821E8
:101CD800DA6E000EDF6E00010001AA2B030E000170
:101CE8000001AA65E8D712000001AB6F000E496E2B
:101CF8000001AB510101010E00010001A86F0101B3
:101D0800840E00010001A76F3BEC0EF00201020EE9
:101D180000010001A86F0201660E00010001A76F13
:101D28003BEC0EF00201020E00010001A86F020157
:101D3800000E00010001A76F3BEC0EF00301030E3B
:101D480000010001A86F0301000E00010001A76F48
:101D58003BEC0EF0120000010001AAC0B0F0000137
:101D68000001A9C0AFF000010001A8C0AEF0000159
:101D78000001A7C0ADF012D0AFC0D9FFB0C0DAFFE4
:101D8800ADC0E1FFAEC0E2FFDFCFE7FF0001000119
:101D9800AF4BB02B00010001AD4BAE2B0001000191
:101DA800AB07D8A0AC070001AB29D8B4AC29D8B48C
:101DB8001200E2D79EAA1CD020EE16F04B50D9266E
:101DC8004C50DA22DF50206E2050010DF3504B2486
:101DD800D96EF4504C20DA6E1DEC11F0DF6E20EE57
:101DE80016F04B50D9264C50DA22DF2ACEEC0AF0F6
:101DF8004AA61200AB98AB88206E1E0E176E2050B4
:101E0800000E196E000E186E000EE7EC10F01200AE
:101E1800E8CFA8F00001A76F010E00010001C86F0C
:101E28000001A751000120EE34F00001C651D92667
:101E38000001C751DA220001A8C0DFFF000EC66EFC
:101E4800000EC56E000EC76E630EC86EC650F00B4E
:101E58000809C66EC68A800EC76E8B868B889486E4
:101E68009488120003EE00F0660EEE6AE806FDE1C3
:101E780002EE00F0CC0EEE6AE806FDE101EE84F019
:101E8800660EEE6AE806FDE10001C86B00EE3FF061
:101E98000C0EEE6AE806FDE1080EF66E230EF76EEC
:101EA800000EF86E0900F5CF4EF0000EF86E000136
:101EB800F9EF05F0496601D01200BBEC10F035507F
:101EC8003410D8A4120077EC11F033503210D8B483
:101ED80012000201020E336E0201660E326EFAEC37
:101EE80010F00009D8A412000101010E336E01019F
:101EF800840E326EFAEC10F00009D8B481EC11F0BF
:101F08001200F2AC08D0000E00010001AA6F000E0A
:101F18000001A96F120053EC11F000010001A85153
:101F28000001A711D8B408D0000E00010001AA6F63
:101F3800000E0001A96F1200000E00010001AA6F37
:101F4800010E0001A96F120085EC0FF000010001DD
:101F5800AA510001A911D8A411D053EC11F0000125
:101F68000001A8510001A711D8A408D0000E000153
:101F78000001AC6F010E0001AB6F1200000E0001F2
:101F88000001AC6F000E0001AB6F1200E8CFC3F088
:101F98000101010E00010001B26F0101840E000170
:101FA8000001B16FC3C0B3F000010001C0C0B5F0BB
:101FB80000010001BFC0B4F000010001C2C0B7F0C9
:101FC80000010001C1C0B6F025EC09F01200E8CF0D
:101FD800C3F00201020E00010001B26F0201660E99
:101FE80000010001B16FC3C0B3F000010001C0C01F
:101FF800B5F000010001BFC0B4F000010001C2C08B
:10200800B7F000010001C1C0B6F025EC09F01200DC
:10201800E8CF3EF00301030E00010001816F0301C8
:10202800000E00010001806F3EC082F00001000137
:102038008DC084F0000100018CC083F00001000114
:102048008FC086F0000100018EC085F0C0EC09F059
:10205800120004C00AF003C009F002C008F001C071
:1020680007F00ED009C0D9FF0AC0DAFF07C0E1FFA8
:1020780008C0E2FFDFCFE7FF094A0A2A074A082A11
:102088000506D8A006060528D8B40628D8B4120034
:10209800E9D735C03BF034C03AF033C039F032C02C
:1020A80038F00ED03AC0D9FF3BC0DAFF38C0E1FFA4
:1020B80039C0E2FFDFCFE7FF3A4A3B2A384A392ADC
:1020C8003606D8A037063628D8B43728D8B4120030
:1020D800E9D7000120EE65F00001A751D9260001DB
:1020E800A851DA22DF500001A96F0001A951190D8A
:1020F800F35000010001A725D96EF450000100013A
:10210800A821DA6EDF501200E8CF3DF00201020E7E
:1021180000010001816F0201660E00010001806F5D
:102128003DC082F08BC083F0000100018DC085F0B6
:10213800000100018CC084F053EC0AF0120065EC39
:1021480011F001C01CF002C01DF01B6E0B0E176EC3
:102158001B50000E196E000E186E000EE7EC10F002
:10216800000E026E000E016E5CEC11F01200F2AC73
:1021780005D0000E356E000E346E120077EC11F0AB
:1021880033503210D8B405D0000E356E000E346EC0
:102198001200000E356E010E346E12000001A8C048
:1021A8004CF00001A7C04BF020EE16F04B50D9269A
:1021B8004C50DA22000EDF6E0001A96F010E4D6E41
:1021C8000001A9511200E8CF1AF00101010E0C6EAE
:1021D8000101840E0B6E1AC00DF017C00EF019C065
:1021E80010F018C00FF0DBEC0CF0120020EE65F0D8
:1021F8003250D9263350DA22DF50346E3450190D5C
:10220800F3503224D96EF4503320DA6EDF501200C6
:1022180006D07EEC03F012005DEC00F01200000125
:102228000001C851010AD8B4F4D7030AD8A412008F
:10223800F3D7F20E4A16ABAC03D04A90ABB04A8043
:10224800ABB44A84ABB24A86AECF01F0015012005B
:10225800E8CFA7F0FA0E00F0E82EFDD70001000144
:10226800A72FF8D71200E8CFA7F0ACAC03D0AC90FA
:102278004AB2AC80A7C0ADFF120000010001AEC099
:10228800B0F000010001ADC0AFF01200A7C0D9FF47
:10229800A8C0DAFF000EDE6E000EDD6E1200000E22
:1022A800F2AE010E00010001A76F0001A86B120039
:1022B80001C003F002C004F004C0CFFF03C0CEFF8A
:1022C8001200CECF03F0CFCF04F003C001F004C05A
:1022D80002F0120032C034F033C035F035C0D7FFF9
:1022E80034C0D6FF1200000EF2AE010E326E336A11
:1022F8001200D08EF28EF28C1200D38E03001200E0
:02230800FF00D4
:067FF80080F4C5FFFFF15B
:00000001FF
